:020000040000FA
:100000005023012095020000CD020000CF02000025
:10001000D1020000D3020000D50200000000000061
:10002000000000000000000000000000D7020000F7
:10003000D902000000000000DB020000CD5F0000DC
:10004000E12C0000F52C0000092D00001D2D000002
:10005000312D0000452D0000592D00006D2D0000B0
:10006000812D0000952D0000A92D0000BD2D000060
:10007000D12D0000E52D0000F92D00000D2E00000F
:10008000212E0000352E0000492E00005D2E0000BC
:10009000712E0000852E0000992E0000AD2E00006C
:1000A000C12E0000D52E0000E92E0000FD2E00001C
:1000B000112F0000252F0000392F00004D2F0000C8
:1000C000612F0000752F0000892F00009D2F000078
:1000D000B12F0000C52F0000D92F0000ED2F000028
:1000E0000130000015300000293000003D300000D4
:1000F0005130000065300000793000008D30000084
:10010000A1300000B5300000C9300000DD30000033
:10011000F130000005310000193100002D310000E0
:100120004131000055310000693100007D3100008F
:1001300091310000A5310000B9310000CD3100003F
:10014000E1310000F5310000093200001D320000ED
:100150003132000045320000593200006D3200009B
:100160008132000095320000A9320000BD3200004B
:10017000D1320000E5320000F93200000D330000FA
:100180002133000035330000493300005D330000A7
:10019000713300008533000099330000AD33000057
:1001A000C1330000D5330000E9330000FD33000007
:1001B0001134000025340000393400004D340000B3
:1001C0006134000075340000893400009D34000063
:1001D000B1340000C5340000D9340000ED34000013
:1001E0000135000015350000293500003D350000BF
:1001F0005135000065350000793500008D3500006F
:10020000A1350000B5350000C9350000DD3500001E
:10021000F135000005360000193600002D360000CB
:100220004136000055360000693600007D3600007A
:1002300091360000A5360000B9360000CD3600002A
:10024000E136000015380000ED3B0000B53C000031
:10025000453F0000DF020000DF020000DF02000077
:10026000994000004D43000049450000F146000060
:10027000D547000099490000954B0000894C0000CB
:10028000DFF80CD000F0E0F900480047E903020075
:100290005023012012484FF01F01016011484FF018
:1002A0007701016010484FF0770101600F484FF46B
:1002B000885101600B484FF0760101600A484FF009
:1002C000760101600A4880470A480047FEE7FEE7DA
:1002D000FEE7FEE7FEE7FEE7FEE7FEE7FEE7FEE7F6
:1002E00010080540040805400C08054000080540BA
:1002F000F9600000810200002DE9F05F0546002052
:1003000092469B4688460646814640241BE0284686
:1003100041464746224600F050F953465A46C01A15
:10032000914110D311461846224600F037F92D1A94
:1003300067EB01084F4622460120002100F02EF90C
:1003400017EB00094E41201EA4F10104DFDC4846F2
:1003500031462A464346BDE8F09F40EA01039B0729
:1003600003D009E008C9121F08C0042AFAD203E02A
:1003700011F8013B00F8013B521EF9D27047D2B28E
:1003800001E000F8012B491EFBD270470022F6E77E
:1003900010B513460A4604461946FFF7F0FF2046FB
:1003A00010BD421C10F8011B0029FBD1801A7047B8
:1003B00010B5002200E0521C835C8C5CA34201D18A
:1003C000002BF8D1D8B2E1B2401A10BD034611F8A3
:1003D000012B00F8012B002AF9D118467047420082
:1003E00005D0C0F3C7525242914201DC0020704751
:1003F00000EBC150704796230022114600F0F6B87A
:10040000BFFFDFFFFFFEFFFFFFFFFFFFFFFFFFFF5D
:10041000FFFFFFFFFFFFFFFFFFFFFFFFFFFFFFFFEC
:10042000F0B480EA0102D40F4200B2EB410F02D2D5
:100430000246084611464A0042D0C30DDDB2C1F360
:10044000C752AD1A202D35DAC1F3160141F400026E
:1004500004B15242C5F1200602FA06F12A411044C5
:10046000B3EBD05F23D0C4B1012DA0EBC35009DCA6
:10047000F0BC4FF0004202EAC352DBB200F50000CC
:1004800000F0B4B8400000F1807000EBC350A0F160
:10049000807040EAD170490009E0490841EAC07122
:1004A000A0EBC35000F50000400800EBC350F0BCC7
:1004B00000F093B86142012202EB4101001BF6E714
:1004C000F0BC704781F00041AAE780F00040A7E748
:1004D00030B480EA010202F0004530F0004221F021
:1004E000004013D090B1C30DD40DC2F31601C0F378
:1004F0001600E41A41F4000140F400027D349142F8
:1005000001D3641C00E04900002C02DA30BC00205A
:1005100070474FF400000023914201D3891A03432E
:1005200040084FEA4101F7D151B1914202D14FF059
:10053000004105E002D24FF0010101E06FF001013E
:1005400003EBC450284430BC00F047B820F0004012
:10055000C10DC0F3160040F400007F2901DA00202D
:100560007047962903DCC1F19601C840704796395F
:1005700088407047002801DBC0F10040002901DB02
:10058000C1F1004181427047002801DBC0F1004009
:10059000002901DBC1F1004188427047202A04DBB9
:1005A000203A00FA02F1002070479140C2F1200386
:1005B00020FA03F3194390407047202A04DB203AC5
:1005C00021FA02F00021704721FA02F3D040C2F173
:1005D000200291400843194670470029A8BF704780
:1005E000401C490008BF20F00100704710B4B0FA69
:1005F00080FC00FA0CF050EA010404BF10BC704704
:1006000049B1CCF1200421FA04F411FA0CF118BF1D
:10061000012121430843A3EB0C01CB1D4FEA0061EC
:100620004FEA102042BF002010BC704700EBC350BF
:1006300010440029A4BF10BC7047401C490008BFEB
:1006400020F0010010BC7047064C074D06E0E06842
:1006500040F0010394E8070098471034AC42F6D309
:10066000FFF712FEA0560200C056020070B58C18AB
:1006700010F8015B15F0070301D110F8013B2A11B6
:1006800006D110F8012B03E010F8016B01F8016BA3
:100690005B1EF9D12B0705D40023521E0DD401F89F
:1006A000013BFAE710F8013BCB1A921C03E013F868
:1006B000015B01F8015B521EF9D5A142D8D300209D
:1006C00070BD7047704770477047704770477047FC
:1006D0007047000070B504461048164620440D4689
:1006E000682801D8A00703D07C210DA000F0FAFBF8
:1006F0000DB1A80003D07D2109A000F0F3FB2EB1BD
:10070000012E06D07E2106A000F0ECFB2068A84355
:1007100001E020682843206070BD0000FCF7FEBFA8
:100720002E2E5C2E2E5C2E2E5C2E2E5C6472697634
:100730006572735C686333325F6C6C5F6472697698
:1007400065725C7372635C686333325F6C6C5F61AB
:100750006F732E630000000070B5044607480D4615
:100760002044682801D8A00703D08F2104A000F0FE
:10077000B9FB206865F30800206070BDFCF7FEBF80
:100780002E2E5C2E2E5C2E2E5C2E2E5C64726976D4
:100790006572735C686333325F6C6C5F6472697638
:1007A00065725C7372635C686333325F6C6C5F614B
:1007B0006F732E63000000007FB501220321052026
:1007C00001F05AF8684600F0DCFA02A800F0C2F91D
:1007D0002549264800F0D6F900258DF80250302032
:1007E0008DF8010005248DF800508DF8044068460E
:1007F00000F042FA632060F3102404F1805424F0E6
:10080000706000F1807020F4700000F5801020F01E
:10081000800003908DF8085002A800F0B5F8202061
:1008200000F028F80128FAD100221146042005F032
:10083000D1F9012211460B2005F0CCF9502000F02F
:10084000F5FE4FF4404001F09FFA04F013FE05203E
:1008500000F09FF9012000F0ADFE002000F0AAFE9C
:10086000012000F06FFE7FBD10221100777777071F
:100870007047000010B5040002D034F0690004D0C5
:1008800040F28B5104A000F02DFB114890F83C0081
:10089000204000D0012010BD2E2E5C2E2E5C2E2E6E
:1008A0005C2E2E5C647269766572735C68633332A9
:1008B0005F6C6C5F6472697665725C7372635C68AE
:1008C0006333325F6C6C5F636C6B2E6300000000FF
:1008D0000040054070B506004FF0000406D0012E20
:1008E00004D040F2E54119A000F0FCFA254DB5F81E
:1008F000FE03C00704D140F2E64114A000F0F2FA72
:1009000046B1D5F800014FF48056000631460ED4AA
:1009100008200DE095F8260000F00700052803D018
:10092000012085F82A000EE06FF005040BE001209D
:1009300000F036F9040006D185F82A00314620205F
:1009400000F02EF90446204670BD00002E2E5C2ECD
:100950002E5C2E2E5C2E2E5C647269766572735C42
:10096000686333325F6C6C5F6472697665725C7366
:1009700072635C686333325F6C6C5F636C6B2E63B5
:1009800000000000004005402DE9F041040027D0A0
:10099000207900F01F00172804D940F2B94158A06F
:1009A00000F0A0FA6068C0F308201338B0F5E67FC5
:1009B00004D940F2BA4152A000F094FA60684FF0B6
:1009C000FF3101EB10700E2804D940F2BB414CA05E
:1009D00000F088FA6168584A080605D4134605E015
:1009E0006FF00200BDE8F0815448036801F01F0079
:1009F000401CB3FBF0F0C1F308256D1C5049454382
:100A00000844904204D94FF498613DA000F06AFA7E
:100A10004C484C4928444942884204D940F2C141DB
:100A200037A000F05FFA6068012101EB1070B5FBA0
:100A3000F0F0454E454F3044B84204D940F2C2412F
:100A40002FA000F04FFA6068C0F30360401E0E282C
:100A500004D940F2C3412AA000F044FA6068C0F310
:100A60000350401E0E2804D940F2C44124A000F0D7
:100A700039FA6068C0F30350401CB5FBF0F0304415
:100A8000B84204D940F2C5411DA000F02BFA6068BD
:100A9000C0F30360401CB5FBF0F03044B84204D909
:100AA00040F2C64116A000F01DFA2078012805D0BA
:100AB00020B14FF4996112A000F014FA244DB5F85A
:100AC000FE03C00704D140F2C9410DA000F00AFAAC
:100AD000D5F80001217920F08000C1F3C01140EA6F
:100AE000C110C5F800016068C5F80001207820B188
:100AF0000020BDE8F041FFF7EDBE0120F9E700005E
:100B00002E2E5C2E2E5C2E2E5C2E2E5C6472697650
:100B10006572735C686333325F6C6C5F64726976B4
:100B200065725C7372635C686333325F6C6C5F63C5
:100B30006C6B2E630000000000366E010480FF1F06
:100B4000C0BDF0FF00E4B1F1401E1BFF40E0060B0A
:100B500000400540002290B10021132363F31021CF
:100B600001F1805121F0706101F1807121F4700177
:100B700001F58011416001210170104670476FF04E
:100B80000202FAE710B505F08DF8BDE8104005F057
:100B900069BA10B505F098F9BDE8104005F062BAE1
:100BA000F8B5064600200D466FF00704009007E0F8
:100BB0003046FFF75FFE012806D00098401C0090E9
:100BC000A842F5D92046F8BD0024FBE770B5060021
:100BD0004FF0000506D0012E04D04FF4677117A026
:100BE00000F080F9234CB4F8FE03C00704D140F2B2
:100BF0009D3112A000F076F946B1002084F8320051
:100C00004FF480510820FFF7CBFF13E094F8260043
:100C100000F007016FF0050003290BD0D4F8001194
:100C20000A064FF0010102D494F82A2012B184F888
:100C3000321000E00546284670BD00002E2E5C2EC6
:100C40002E5C2E2E5C2E2E5C647269766572735C4F
:100C5000686333325F6C6C5F6472697665725C7373
:100C600072635C686333325F6C6C5F636C6B2E63C2
:100C7000000000000040054070B5040045D0207819
:100C8000012805D020B14FF45F712DA000F02AF9A2
:100C9000607850B1102808D0202806D0302804D021
:100CA00040F27D3126A000F01DF9A07830B1402837
:100CB00004D040F27E3122A000F014F9E0788028C0
:100CC00005D020B140F27F311DA000F00BF9207952
:100CD000012814D0022812D0032810D004280ED0E6
:100CE00005280CD006280AD0072808D0082806D0E6
:100CF000092804D04FF4607111A000F0F3F81E4DE4
:100D0000B5F8FE03C00708D102E06FF0020070BD25
:100D100040F281310AA000F0E5F8207985F8A200C0
:100D2000E07861780843A178084314490870207876
:100D300020B10020BDE87040FFF748BF0120F9E76F
:100D40002E2E5C2E2E5C2E2E5C2E2E5C647269760E
:100D50006572735C686333325F6C6C5F6472697672
:100D600065725C7372635C686333325F6C6C5F6383
:100D70006C6B2E63000000000040054010440540ED
:100D80007047002150B1012202700022827042702F
:100D90008022C27005220271084670476FF002017E
:100DA000FAE710B501F06CFB0A2000F09DF8302145
:100DB000112000F06FF8052000F096F8C021BDE882
:100DC00010400F2000F066B808B500208DF8000034
:100DD00001226946104600F003F89DF8000008BDA6
:100DE0002DE9F7431A4E884642F2107517462946F8
:100DF000304601F0FFFC2B4600222721304601F04F
:100E00009DFD040015D12B4601226946304601F0B4
:100E100001FE04000DD12946304601F09DFC04007E
:100E200007D12B4601222721304601F087FD04001F
:100E300006D02946304601F027FD2046BDE8FE8356
:100E40002B463A464146304601F0D0FB0446F4E7D3
:100E500000E004407CB514460D460646062269466D
:100E60000220FFF7BDFFBDF800003080BDF8020092
:100E70002880BDF804002080B6F900008010308082
:100E8000B5F9000080102880B4F90000801020809F
:100E90007CBD0000F8B5104E8DF800008DF80110F3
:100EA00042F210752946304601F0A4FC2B46002280
:100EB0002721304601F042FD040006D12B460222D4
:100EC0006946304601F0A6FD04462946304601F049
:100ED000DBFC2046F8BD000000E00440704770478E
:100EE00070477047FEE7000008B50D49096AC1F375
:100EF00002630C490968D94041F270731944491ED4
:100F0000B1FBF3F206E0009200BF00994B1E009384
:100F10000029FAD1011EA0F10100F4D108BD0000A2
:100F2000004005400080FF1F08B50C49096AC1F365
:100F300002630B490968D9400A4B1944491EB1FBA9
:100F4000F3F206E0009200BF00994B1E00930029C7
:100F5000FAD1011EA0F10100F4D108BD0040054006
:100F60000080FF1F808D5B0070477047704770479F
:100F700070477047704770477047704770477047B9
:100F800070477047704770477047704770477047A9
:100F900070477047704770472DE9F04704464F4847
:100FA000002617460D46844207D04D48844204D09F
:100FB00040F27B114BA0FFF795FF032D04D94FF4AE
:100FC000BE7148A0FFF78EFF37B1012F04D040F269
:100FD0007D1144A0FFF786FF5048017819B14FF00A
:100FE000FF30BDE8F08701210170E369A9408B4320
:100FF0004FF0000264D0E3696FF00709DB074FF49C
:10100000A04C11D085B1A36C4FEA1348A36E1B0C02
:101010000A2B09D8434504D306E0761CB6B26645D0
:1010200048D8E369DB07F8D1E3699B0714D5012DA4
:1010300012D0D4F888301E0CD4F8A8301B0C0A2B20
:101040000AD8B34208D2002303E05B1C9BB263457D
:1010500030D8E669B607F8D4E3695B0715D5022DE9
:1010600013D0D4F8C86000234FEA1648D4F8E860DB
:10107000360C0A2E09D8464504D306E05B1C9BB209
:10108000634517D8E6697607F8D4E3691B0717D5D7
:10109000032D15D0D4F8085100232E0CD4F8285174
:1010A0002D0C0A2D0CD8B54207D309E05B1C9BB26E
:1010B000634502D90270484693E7E5692D07F5D4E8
:1010C000E369012F06D00F258D432B40E3610270A9
:1010D000002086E701F00F010B43F7E700300540E1
:1010E000003405402E2E5C2E2E5C2E2E5C2E2E5CA7
:1010F000647269766572735C686333325F6C6C5FCF
:101100006472697665725C7372635C686333325FC4
:101110006C6C5F646D612E63000000002480FF1F13
:1011200070B505460B480C46854207D00A488542F3
:1011300004D04FF4B27109A0FFF7D4FE14B134F01B
:101140000F1004D040F2651104A0FFF7CBFEAC6194
:1011500070BD000000300540003405402E2E5C2E8E
:101160002E5C2E2E5C2E2E5C647269766572735C2A
:10117000686333325F6C6C5F6472697665725C734E
:1011800072635C686333325F6C6C5F646D612E63A5
:101190000000000070B5054609480C46854206D09F
:1011A0000848854203D0FB2107A0FFF79BFE2CB126
:1011B000012C03D0FC2104A0FFF794FE2C6070BD2D
:1011C00000300540003405402E2E5C2E2E5C2E2E65
:1011D0005C2E2E5C647269766572735C6863333270
:1011E0005F6C6C5F6472697665725C7372635C6875
:1011F0006333325F6C6C5F646D612E6300000000CE
:1012000070B50C00054602D034F00F1004D04FF436
:10121000AB7104A0FFF766FEA868204000D0012053
:1012200070BD00002E2E5C2E2E5C2E2E5C2E2E5CB1
:10123000647269766572735C686333325F6C6C5F8D
:101240006472697665725C7372635C686333325F83
:101250006C6C5F646D612E63000000002DE9F04747
:1012600005464448002614460F46854207D04248AA
:10127000854204D04FF46B7140A0FFF733FE032F7B
:1012800004D940F2AD313DA0FFF72CFE64B1E06817
:10129000002827D04FF480784FF40079404506D1DC
:1012A0002079C00711D007E06FF002065EE04845E4
:1012B00002D1207980070DD040F2B2312FA0FFF784
:1012C00011FEE06870B1404502D1207AC00703E00A
:1012D000484502D1207A800720B140F2B33127A0DF
:1012E000FFF700FEA06940B1012806D0022804D013
:1012F0004FF46D7121A0FFF7F5FDE06940B10428BE
:1013000006D0082804D040F2B5311CA0FFF7EAFD52
:101310002069B0F5806F04D940F2B63117A0FFF70D
:10132000E1FD2068B0F5805F05D020B140F2B73113
:1013300012A0FFF7D7FD05EB871061680164A16873
:101340004164218AA28AC1F3090141EA0241816410
:101350002268E1680A43D4E9061319430A4341F2BB
:101360000F31C36D0A408B431A43C2653046BDE856
:10137000F087000000300540003405402E2E5C2E22
:101380002E5C2E2E5C2E2E5C647269766572735C08
:10139000686333325F6C6C5F6472697665725C732C
:1013A00072635C686333325F6C6C5F646D612E6383
:1013B000000000002DE9F0410646144800241546BF
:1013C0000F46864207D01248864204D040F20521DB
:1013D00010A0FFF787FD032F04D940F206210DA0CE
:1013E000FFF780FD06EB871005644FF4805208E09C
:1013F000641CA4B2944203D96FF00700BDE8F081E9
:101400000564016EA942F3D10020F7E700300540E2
:10141000003405402E2E5C2E2E5C2E2E5C2E2E5C73
:10142000647269766572735C686333325F6C6C5F9B
:101430006472697665725C7372635C686333325F91
:101440006C6C5F646D612E63000000002DE9F0415B
:1014500006461948002415460F46864207D017480D
:10146000864204D04FF4107115A0FFF73BFD032F07
:1014700004D940F2412112A0FFF734FD06EB871199
:1014800001F148008A6CC2EA05428A644FF4805236
:1014900068310BE0641CA4B2944203D96FF00700DA
:1014A000BDE8F0810368C3EA054303600B68B5EB50
:1014B000134FEFD10020F3E7003005400034054022
:1014C0002E2E5C2E2E5C2E2E5C2E2E5C6472697687
:1014D0006572735C686333325F6C6C5F64726976EB
:1014E00065725C7372635C686333325F6C6C5F64FB
:1014F0006D612E6300000000002258B100210160E0
:10150000416001238160C0E9031341618161C161D0
:10151000104670476FF00202FAE7000010B5074C62
:1015200001212046FFF76CFE002806D0012120464D
:10153000FFF7F6FD02490120087010BD003005409C
:101540000880FF1F10B5040006D0012C04D040F223
:10155000711108A0FFF7C6FC14480068012804D0E8
:101560004FF4B97103A0FFF7BDFC1148C0F840412A
:1015700010BD00002E2E5C2E2E5C2E2E5C2E2E5CBE
:10158000647269766572735C686333325F6C6C5F3A
:101590006472697665725C7372635C686333325F30
:1015A0006C6C5F65666D2E630000000000040140F6
:1015B0000080204210B5040006D0012C04D040F277
:1015C000631108A0FFF78EFC14480068012804D0BE
:1015D0004FF4B27103A0FFF785FC1148C0F86041D9
:1015E00010BD00002E2E5C2E2E5C2E2E5C2E2E5C4E
:1015F000647269766572735C686333325F6C6C5FCA
:101600006472697665725C7372635C686333325FBF
:101610006C6C5F65666D2E63000000000004014085
:1016200000802042704770477047000070B5054643
:10163000194800240068012804D040F24F1117A077
:10164000FFF750FCF02D04D94FF4A87113A0FFF759
:1016500049FC11490831086805F0F00220F0F0005B
:10166000104308601C481B4A44F6206300680CE0E5
:10167000166AC6F3026620FA06F6B6FBF3F6641C99
:10168000A64202D26FF0070070BD0E6806F0F006A9
:10169000AE42EDD1002070BD000401402E2E5C2E24
:1016A0002E5C2E2E5C2E2E5C647269766572735CE5
:1016B000686333325F6C6C5F6472697665725C7309
:1016C00072635C686333325F6C6C5F65666D2E635A
:1016D00000000000004005400080FF1F7047704779
:1016E0007047704770477047704770477047704742
:1016F0007047704770477047704770477047704732
:101700007047704770B50E46050002D00E4805427E
:1017100003D071210DA0FFF7E5FB2EB1012E03D000
:1017200072210AA0FFF7DEFB164C2069C00703D127
:10173000732106A0FFF7D6FB2068012E02D02843B4
:10174000206070BDA843FBE7EE3A0C702E2E5C2E95
:101750002E5C2E2E5C2E2E5C647269766572735C34
:10176000686333325F6C6C5F6472697665725C7358
:1017700072635C686333325F6C6C5F6663672E63B1
:10178000000000000080044070B50E46040002D046
:101790000A48044203D0842109A0FFF7A3FB164D99
:1017A0002EB1012E06D0852105A0FFF79BFB6868AE
:1017B000204301E06868A043686070BD8602F0F0D5
:1017C0002E2E5C2E2E5C2E2E5C2E2E5C6472697684
:1017D0006572735C686333325F6C6C5F64726976E8
:1017E00065725C7372635C686333325F6C6C5F66F6
:1017F00063672E63000000000080044070B50E4651
:10180000040002D00A48044203D0962109A0FFF741
:1018100069FB164D2EB1012E06D0972105A0FFF7CA
:1018200061FBA868204301E0A868A043A86070BDE0
:101830000078F8FF2E2E5C2E2E5C2E2E5C2E2E5C59
:10184000647269766572735C686333325F6C6C5F77
:101850006472697665725C7372635C686333325F6D
:101860006C6C5F6663672E630000000000800440BC
:10187000704770477047000070B504461C48164614
:101880000D460088C00704D140F2812119A0FFF75E
:1018900029FB74B1012C0CD0022C0AD0032C08D0E7
:1018A000042C06D0052C04D040F2822111A0FFF7B1
:1018B00019FB25B940F283210EA0FFF713FB0C4B57
:1018C0000020A2011B1DE90708D002EB800119448A
:1018D000012E0C8809D0C4F30E040C806D0803D0CF
:1018E000401CC0B21028EED370BD44F40044F4E7AD
:1018F000FC3B05402E2E5C2E2E5C2E2E5C2E2E5C8C
:10190000647269766572735C686333325F6C6C5FB6
:101910006472697665725C7372635C686333325FAC
:101920006C6C5F6770696F2E630000002DE9F041F9
:1019300014000E4605464FF0000704D052480088B8
:10194000C00708D102E06FF002079AE04FF48071FF
:101950004EA0FFF7C7FA75B1012D0CD0022D0AD0A9
:10196000032D08D0042D06D0052D04D040F201111E
:1019700046A0FFF7B7FA26B94FF4817143A0FFF7ED
:10198000B1FA208830B1012804D040F203113FA001
:10199000FFF7A8FA608830B1022804D04FF48271B2
:1019A0003AA0FFF79FFAA08830B1042804D040F293
:1019B000051136A0FFF796FAE08840B1102806D04E
:1019C000202804D04FF4837130A0FFF78BFA2089D0
:1019D00038B1B0F5804F04D040F207112BA0FFF7CB
:1019E00081FA608930B1402804D04FF4847127A077
:1019F000FFF778FAA08938B1B0F5007F04D040F243
:101A0000091122A0FFF76EFAE08938B1B0F5805FC6
:101A100004D04FF485711DA0FFF764FA208A38B115
:101A2000B0F5004F04D040F20B1118A0FFF75AFA9E
:101A30000021F0071FD020886288E3881043A28825
:101A40004DF2772C1A43104362890F4B1043A28941
:101A50001043E289104322891043228A0243A801DD
:101A600000EB81001B1D1844038802EA0C0223EAE4
:101A70000C0313430380760803D0491CC9B2102914
:101A8000D7D33846BDE8F081FC3B05402E2E5C2EB6
:101A90002E5C2E2E5C2E2E5C647269766572735CF1
:101AA000686333325F6C6C5F6472697665725C7315
:101AB00072635C686333325F6C6C5F6770696F2E52
:101AC0006300000070B50D4604000ED0012C0CD050
:101AD000022C0AD0032C08D0042C06D0052C04D0EC
:101AE0004FF4FF7108A0FFF7FDF925B940F2FF118F
:101AF00005A0FFF7F7F9124901EB0410B0F8000850
:101B0000284000D0012070BD2E2E5C2E2E5C2E2E83
:101B10005C2E2E5C647269766572735C6863333226
:101B20005F6C6C5F6472697665725C7372635C682B
:101B30006333325F6C6C5F6770696F2E6300000007
:101B40000030054070B50D4604000ED0012C0CD0BD
:101B5000022C0AD0032C08D0042C06D0052C04D06B
:101B600040F24A2107A0FFF7BDF925B940F24B2109
:101B700004A0FFF7B7F9114800EB041001882943CE
:101B8000018070BD2E2E5C2E2E5C2E2E5C2E2E5CC7
:101B9000647269766572735C686333325F6C6C5F24
:101BA0006472697665725C7372635C686333325F1A
:101BB0006C6C5F6770696F2E630000000A38054027
:101BC00070B50C46050001D0680904D04FF4B2711D
:101BD0000FA0FFF787F934B1012C04D040F2651152
:101BE0000BA0FFF77FF918480088C00704D14FF415
:101BF000B37107A0FFF776F9134A05F01F00083A02
:101C0000012C118802D08143118070BD0143FBE794
:101C10002E2E5C2E2E5C2E2E5C2E2E5C647269762F
:101C20006572735C686333325F6C6C5F6472697693
:101C300065725C7372635C686333325F6C6C5F67A0
:101C400070696F2E63000000FC3B054070B51646BE
:101C50000D4604000ED0012C0CD0022C0AD0032C0F
:101C600008D0042C06D0052C04D04FF4BE7118A067
:101C7000FFF738F925B940F27D1115A0FFF732F9C9
:101C80000F2E08D9A6F120001B2804D94FF4BF71EC
:101C90000FA0FFF727F91C480088C00704D140F2C5
:101CA0007F110BA0FFF71EF9174B0020A2019B1D0F
:101CB000E90706D002EB800119440C8866F305049D
:101CC0000C806D0803D0401CC0B21028F0D370BD4A
:101CD0002E2E5C2E2E5C2E2E5C2E2E5C647269766F
:101CE0006572735C686333325F6C6C5F64726976D3
:101CF00065725C7372635C686333325F6C6C5F67E0
:101D000070696F2E63000000FC3B054070B50D4606
:101D100004000ED0012C0CD0022C0AD0032C08D0C9
:101D2000042C06D0052C04D04FF40E7107A0FFF749
:101D3000D9F825B940F2392104A0FFF7D3F81148AA
:101D400000EB041001882943018070BD2E2E5C2E0B
:101D50002E5C2E2E5C2E2E5C647269766572735C2E
:101D6000686333325F6C6C5F6472697665725C7352
:101D700072635C686333325F6C6C5F6770696F2E8F
:101D8000630000000838054010B504000DD0B4F51C
:101D9000804F0AD0B4F5004F07D0B4F5404F04D0BF
:101DA0004FF4ED710AA0FFF79DF817480088C007AF
:101DB00004D140F2DB1106A0FFF794F81248001F8F
:101DC000018804F44042C1F30D011143018010BDAC
:101DD0002E2E5C2E2E5C2E2E5C2E2E5C647269766E
:101DE0006572735C686333325F6C6C5F64726976D2
:101DF00065725C7372635C686333325F6C6C5F67DF
:101E000070696F2E63000000FC3B0540002258B152
:101E1000002101804180C180018201814181818155
:101E2000C1818180104670476FF00202FAE7704767
:101E300070477047704770477047704770477047EA
:101E4000704770477047000070B504460F480D4654
:101E500084420AD00E48844207D00E48844204D0FF
:101E60004FF438710CA0FFF73DF83DB1B5F5806F28
:101E700004D040F2E12108A0FFF734F8206805F40F
:101E8000806120F480600843206070BD00E0044061
:101E900000E4044000E804402E2E5C2E2E5C2E2E22
:101EA0005C2E2E5C647269766572735C6863333293
:101EB0005F6C6C5F6472697665725C7372635C6898
:101EC0006333325F6C6C5F6932632E630000000025
:101ED0002DE9F74F4FF000068AB00C000546B146D9
:101EE0004FF0020A6FF002087DD00C980028FBD05A
:101EF0005B4885420AD05B48854207D05A488542F4
:101F000004D04FF48A7159A0FEF7ECFF606810B15D
:101F10006449884204D940F2151154A0FEF7E2FF4B
:101F20002068072804D94FF48B7150A0FEF7DAFF20
:101F30005D48006A0127C0F302315C48006820FA5E
:101F400001FB2068A168099161680191296B8740B4
:101F5000C90604D5296B01F0030101F1010908B993
:101F60004FF0030A002F75D03846FEF744FA009070
:101F70000198FEF740FA059002905846FEF73BFAAA
:101F80000299FEF7A5FA0099FEF7A2FA00900998C7
:101F9000FEF731FA01904846FEF72DFA0121FEF7CF
:101FA0001EFA81465046FEF726FA0121FEF717FA7F
:101FB0004946FEF735FA0199FEF732FA82460146A4
:101FC0000098FEF77FFA03900098FEF7BFFAFEF73D
:101FD00012FA0099FEF779FAB0F17C5F00980ADBFB
:101FE000FEF7B4FA00E035E0FEF705FA4FF07E5157
:101FF000FEF716FA03E0FEF7A9FAFEF7FCF98146B0
:102000005146FEF7B7FA25D929490398FEF7BCFADD
:1020100020D34846FEF79AFABBFBF0F0B0FBF7F08E
:10202000FEF7E9F9074639460598FEF74BFA3946B7
:10203000FEF74EFA07460398FEF788FA4108228811
:10204000A0EB500041EA024141EA0020E8620C980E
:10205000076000E046460DB03046BDE8F08F000056
:1020600000E0044000E4044000E804402E2E5C2E12
:102070002E5C2E2E5C2E2E5C647269766572735C0B
:10208000686333325F6C6C5F6472697665725C732F
:1020900072635C686333325F6C6C5F6932632E63BA
:1020A00000000000801A0600004005400080FF1F6D
:1020B0000000784270B504460F480D4684420AD0AD
:1020C0000E48844207D00E48844204D040F20121D9
:1020D0000CA0FEF707FF35B1012D08D040F2022118
:1020E00008A0FEF7FFFEE06820F4806002E0E068F0
:1020F00040F48060E06070BD00E0044000E4044013
:1021000000E804402E2E5C2E2E5C2E2E5C2E2E5CC3
:10211000647269766572735C686333325F6C6C5F9E
:102120006472697665725C7372635C686333325F94
:102130006C6C5F6932632E630000000070B504466A
:102140000C480D4684420AD00B48844207D00B4805
:10215000844204D040F28D2109A0FEF7C3FE15B1E0
:102160001548054204D040F28E2105A0FEF7BAFEC4
:10217000256270BD00E0044000E4044000E8044033
:102180002E2E5C2E2E5C2E2E5C2E2E5C64726976BA
:102190006572735C686333325F6C6C5F647269761E
:1021A00065725C7372635C686333325F6C6C5F6929
:1021B00032632E6300000000A0AD0FFF70B504462F
:1021C0000D480D4684420AD00C48844207D00C4882
:1021D000844204D04FF4EF710AA0FEF783FE35B1BC
:1021E000012D04D040F2DF1106A0FEF77BFE20682F
:1021F00065F30000206070BD00E0044000E404408E
:1022000000E804402E2E5C2E2E5C2E2E5C2E2E5CC2
:10221000647269766572735C686333325F6C6C5F9D
:102220006472697665725C7372635C686333325F93
:102230006C6C5F6932632E630000000010B50446C9
:102240000B4884420AD00B48844207D00A48844293
:1022500004D04FF4AE7109A0FEF744FE206820F0D0
:1022600001002060206840F400402060002010BD84
:1022700000E0044000E4044000E804402E2E5C2E00
:102280002E5C2E2E5C2E2E5C647269766572735CF9
:10229000686333325F6C6C5F6472697665725C731D
:1022A00072635C686333325F6C6C5F6932632E63A8
:1022B0000000000010B504460848844209D00848D0
:1022C000844206D00748844203D0D42106A0FEF7FA
:1022D00009FE206840F08000206010BD00E004404E
:1022E00000E4044000E804402E2E5C2E2E5C2E2ECE
:1022F0005C2E2E5C647269766572735C686333323F
:102300005F6C6C5F6472697665725C7372635C6843
:102310006333325F6C6C5F6932632E6300000000D0
:1023200010B504460848844209D00848844206D0C3
:102330000748844203D0C72106A0FEF7D3FD2068DA
:1023400040F48070206010BD00E0044000E40440D0
:1023500000E804402E2E5C2E2E5C2E2E5C2E2E5C71
:10236000647269766572735C686333325F6C6C5F4C
:102370006472697665725C7372635C686333325F42
:102380006C6C5F6932632E630000000010B5044678
:102390000848844209D00848844206D0074884424D
:1023A00003D0E12106A0FEF79DFD206840F40070F7
:1023B000206010BD00E0044000E4044000E8044058
:1023C0002E2E5C2E2E5C2E2E5C2E2E5C6472697678
:1023D0006572735C686333325F6C6C5F64726976DC
:1023E00065725C7372635C686333325F6C6C5F69E7
:1023F00032632E630000000070B504460E480D469F
:1024000084420AD00D48844207D00D48844204D04B
:102410004FF41F710BA0FEF765FD15B1174805427B
:1024200004D040F27D2107A0FEF75CFDE069284062
:1024300000D0012070BD000000E0044000E4044032
:1024400000E804402E2E5C2E2E5C2E2E5C2E2E5C80
:10245000647269766572735C686333325F6C6C5F5B
:102460006472697665725C7372635C686333325F51
:102470006C6C5F6932632E630000000020A908FFC6
:1024800010B58AB001211020FFF77EF96846FFF7EA
:10249000BDFC2020ADF806000220ADF8020040206F
:1024A000ADF80A000420ADF8040001216A46084690
:1024B000FFF73CFA6A4680210020FFF737FA012136
:1024C00031220846FFF7C2FB302280210020FFF7AF
:1024D000BDFB0D4C2046FFF7B1FE05A800F020FA29
:1024E0000A480021CDE90510079108AA05A9204650
:1024F00000F00EF801212046FFF7DCFD0121204607
:10250000FFF75CFE0AB010BD00E00440A0860100A9
:1025100070B516460D00044641D0224884420AD0C8
:102520002148844207D02148844204D04FF4C4712A
:102530001FA0FEF7D7FC686810B12B49884204D968
:1025400040F289111AA0FEF7CDFC2868072804D9AB
:102550004FF4C57116A0FEF7C5FC206820F00100FD
:102560002060206840F400402060206840F00100B6
:102570002060324629462046FFF7AAFC216821F058
:1025800040012160216821F400412160216821F08F
:1025900001012160216921F48051216170BD6FF03A
:1025A000020070BD00E0044000E4044000E8044084
:1025B0002E2E5C2E2E5C2E2E5C2E2E5C6472697686
:1025C0006572735C686333325F6C6C5F64726976EA
:1025D00065725C7372635C686333325F6C6C5F69F5
:1025E00032632E6300000000801A06002DE9FF5FB1
:1025F00007462D48002615468A4687420AD02B48B2
:10260000874207D02A48874204D04FF48C6129A022
:10261000FEF768FCBAF1000F40D0B868002400F063
:1026200080094FF4806BA5F1010830E001224021C0
:102630003846039B00F050FA0646B9F1000F02D06D
:10264000444507D104E0022D08D3A81E844205D1D9
:10265000594600E000213846FFF7F6FBCEB9444565
:1026600006D110213846FFF769FD3846FFF78EFE88
:10267000384600F03BF80AF80400444506D1012230
:1026800010213846039B00F027FA0646641CAC4232
:10269000CCD300213846FFF7D7FB01E06FF00206EC
:1026A00004B03046BDE8F09F00E0044000E4044080
:1026B00000E804402E2E5C2E2E5C2E2E5C2E2E5C0E
:1026C000647269766572735C686333325F6C6C5FE9
:1026D0006472697665725C7372635C686333325FDF
:1026E0006C6C5F6932632E630000000010B5044615
:1026F000084884420AD00848844207D007488442E8
:1027000004D040F2D12106A0FEF7ECFB94F828009B
:1027100010BD000000E0044000E4044000E8044074
:102720002E2E5C2E2E5C2E2E5C2E2E5C6472697614
:102730006572735C686333325F6C6C5F6472697678
:1027400065725C7372635C686333325F6C6C5F6983
:1027500032632E630000000070B5044613480D4636
:1027600084420AD01248844207D01248844204D0DE
:1027700040F2693110A0FEF7B5FB01222B4651044F
:10278000204600F0A9F900280ED101212046FFF7CC
:10279000D5FC2046FFF78EFD2B462046BDE8704055
:1027A0000122134900F098B970BD000000E0044018
:1027B00000E4044000E804402E2E5C2E2E5C2E2EF9
:1027C0005C2E2E5C647269766572735C686333326A
:1027D0005F6C6C5F6472697665725C7372635C686F
:1027E0006333325F6C6C5F6932632E6300000000FC
:1027F0000100020070B5044611480D4684420AD01B
:102800001048844207D01048844204D040F24D3131
:102810000EA0FEF767FB2B4600224FF40031204646
:1028200000F05AF900280AD12046FFF779FD2B461F
:102830002046BDE870400122124900F04DB970BD3C
:1028400000E0044000E4044000E804402E2E5C2E2A
:102850002E5C2E2E5C2E2E5C647269766572735C23
:10286000686333325F6C6C5F6472697665725C7347
:1028700072635C686333325F6C6C5F6932632E63D2
:10288000000000000100020070B5054613480C4628
:10289000854210D0124885420DD0124885420AD098
:1028A00040F29B4110A0FEF71DFB04E010212846DA
:1028B000FFF744FC641E10212846FFF79DFD012808
:1028C00001D1002CF2D12846FFF760FD23462846AF
:1028D000BDE870400122102100F0FEB800E0044085
:1028E00000E4044000E804402E2E5C2E2E5C2E2EC8
:1028F0005C2E2E5C647269766572735C6863333239
:102900005F6C6C5F6472697665725C7372635C683D
:102910006333325F6C6C5F6932632E6300000000CA
:10292000002138B14CF250324260002282600260D5
:10293000084670476FF00201FAE700002DE9F04108
:1029400006462348984615460F4686420AD0214837
:10295000864207D02048864204D040F28A311FA028
:10296000FEF7C0FA35B1012D04D040F28B311BA027
:10297000FEF7B8FA7F2F04D94FF4637117A0FEF762
:10298000B1FA434601228021304600F0A5F8040048
:102990001BD1780645EA1061304600F0F9F843464D
:1029A00045B100224FF48021304600F095F8040034
:1029B00003D00AE001220821F6E74FF480513046A7
:1029C000FFF71AFD012800D1841E2046BDE8F081E2
:1029D00000E0044000E4044000E804402E2E5C2E99
:1029E0002E5C2E2E5C2E2E5C647269766572735C92
:1029F000686333325F6C6C5F6472697665725C73B6
:102A000072635C686333325F6C6C5F6932632E6340
:102A1000000000002DE9F843054600241D489946B2
:102A200017460E46009485420AD01B48854207D0BF
:102A30001A48854204D040F2FE3119A0FEF752FA3E
:102A40001EB34FF480580098B84220D0FCB94B46D2
:102A500001228021284600F03FF80400F3D10098BD
:102A6000315C284600F094F84B46012208212846A4
:102A700000F032F8044641462846FFF7BDFC012825
:102A800005D00098401C0090DDE76FF0020420465E
:102A9000BDE8F88300E0044000E4044000E804409E
:102AA0002E2E5C2E2E5C2E2E5C2E2E5C6472697691
:102AB0006572735C686333325F6C6C5F64726976F5
:102AC00065725C7372635C686333325F6C6C5F6900
:102AD00032632E63000000002DE9F04106461A48DB
:102AE000984614460D466FF00707864209D01748EE
:102AF000864206D01648864203D0AB2115A0FEF7C9
:102B0000F1F915B12148054203D0AC2111A0FEF71F
:102B1000E9F92CB1012C03D0AD210EA0FEF7E2F9AA
:102B2000F0692840012C01D1854208D0204306D00D
:102B300037B1B8F1000F03D0A8F10108F0E7002782
:102B40003846BDE8F081000000E0044000E40440A5
:102B500000E804402E2E5C2E2E5C2E2E5C2E2E5C69
:102B6000647269766572735C686333325F6C6C5F44
:102B70006472697665725C7372635C686333325F3A
:102B80006C6C5F6932632E630000000020A908FFAF
:102B900070B5044608480D4684420AD0074884426E
:102BA00007D00748844204D040F2C32105A0FEF7B5
:102BB00099F984F8245070BD00E0044000E404401A
:102BC00000E804402E2E5C2E2E5C2E2E5C2E2E5CF9
:102BD000647269766572735C686333325F6C6C5FD4
:102BE0006472697665725C7372635C686333325FCA
:102BF0006C6C5F6932632E630000000070477047A1
:102C0000704770477047704770477047704770470C
:102C1000704770472DE9F04104004FF000056FF058
:102C2000020619D02088B0F5007F03D3CD211AA069
:102C3000FEF758F92288500900EB4001202000EBF4
:102C40004103B4F90200834204D8252303EB410178
:102C5000814203D2202801D335461AE01D4901EBF9
:102C600080010E681C4F1D4BB7EBC65F06D10A6092
:102C7000B4F90210606843F821000AE00968C1F362
:102C800008018A4203D1616843F8201001E06FF027
:102C900001052846BDE8F0812E2E5C2E2E5C2E2EDE
:102CA0005C2E2E5C647269766572735C6863333285
:102CB0005F6C6C5F6472697665725C7372635C688A
:102CC0006333325F6C6C5F696E74657272757074B9
:102CD000732E63005C100540000080FFF881FF1F29
:102CE000034810B500688047BFF34F8F10BD000048
:102CF000F881FF1F034810B540688047BFF34F8F2E
:102D000010BD0000F881FF1F034810B580688047A0
:102D1000BFF34F8F10BD0000F881FF1F034810B5AF
:102D2000C0688047BFF34F8F10BD0000F881FF1FC0
:102D3000034810B500698047BFF34F8F10BD0000F6
:102D4000F881FF1F034810B540698047BFF34F8FDC
:102D500010BD0000F881FF1F034810B5806980474F
:102D6000BFF34F8F10BD0000F881FF1F034810B55F
:102D7000C0698047BFF34F8F10BD0000F881FF1F6F
:102D8000034810B5006A8047BFF34F8F10BD0000A5
:102D9000F881FF1F034810B5406A8047BFF34F8F8B
:102DA00010BD0000F881FF1F034810B5806A8047FE
:102DB000BFF34F8F10BD0000F881FF1F034810B50F
:102DC000C06A8047BFF34F8F10BD0000F881FF1F1E
:102DD000034810B5006B8047BFF34F8F10BD000054
:102DE000F881FF1F034810B5406B8047BFF34F8F3A
:102DF00010BD0000F881FF1F034810B5806B8047AD
:102E0000BFF34F8F10BD0000F881FF1F034810B5BE
:102E1000C06B8047BFF34F8F10BD0000F881FF1FCC
:102E2000034810B5006C8047BFF34F8F10BD000002
:102E3000F881FF1F034810B5406C8047BFF34F8FE8
:102E400010BD0000F881FF1F034810B5806C80475B
:102E5000BFF34F8F10BD0000F881FF1F034810B56E
:102E6000C06C8047BFF34F8F10BD0000F881FF1F7B
:102E7000034810B5006D8047BFF34F8F10BD0000B1
:102E8000F881FF1F034810B5406D8047BFF34F8F97
:102E900010BD0000F881FF1F034810B5806D80470A
:102EA000BFF34F8F10BD0000F881FF1F034810B51E
:102EB000C06D8047BFF34F8F10BD0000F881FF1F2A
:102EC000034810B5006E8047BFF34F8F10BD000060
:102ED000F881FF1F034810B5406E8047BFF34F8F46
:102EE00010BD0000F881FF1F034810B5806E8047B9
:102EF000BFF34F8F10BD0000F881FF1F034810B5CE
:102F0000C06E8047BFF34F8F10BD0000F881FF1FD8
:102F1000034810B5006F8047BFF34F8F10BD00000E
:102F2000F881FF1F034810B5406F8047BFF34F8FF4
:102F300010BD0000F881FF1F034810B5806F804767
:102F4000BFF34F8F10BD0000F881FF1F034810B57D
:102F5000C06F8047BFF34F8F10BD0000F881FF1F87
:102F6000034810B5D0F880008047BFF34F8F10BDE5
:102F7000F881FF1F034810B5D0F884008047BFF3E5
:102F80004F8F10BDF881FF1F034810B5D0F888009F
:102F90008047BFF34F8F10BDF881FF1F034810B566
:102FA000D0F88C008047BFF34F8F10BDF881FF1F12
:102FB000034810B5D0F890008047BFF34F8F10BD85
:102FC000F881FF1F034810B5D0F894008047BFF385
:102FD0004F8F10BDF881FF1F034810B5D0F898003F
:102FE0008047BFF34F8F10BDF881FF1F034810B516
:102FF000D0F89C008047BFF34F8F10BDF881FF1FB2
:10300000034810B5D0F8A0008047BFF34F8F10BD24
:10301000F881FF1F034810B5D0F8A4008047BFF324
:103020004F8F10BDF881FF1F034810B5D0F8A800DE
:103030008047BFF34F8F10BDF881FF1F034810B5C5
:10304000D0F8AC008047BFF34F8F10BDF881FF1F51
:10305000034810B5D0F8B0008047BFF34F8F10BDC4
:10306000F881FF1F034810B5D0F8B4008047BFF3C4
:103070004F8F10BDF881FF1F034810B5D0F8B8007E
:103080008047BFF34F8F10BDF881FF1F034810B575
:10309000D0F8BC008047BFF34F8F10BDF881FF1FF1
:1030A000034810B5D0F8C0008047BFF34F8F10BD64
:1030B000F881FF1F034810B5D0F8C4008047BFF364
:1030C0004F8F10BDF881FF1F034810B5D0F8C8001E
:1030D0008047BFF34F8F10BDF881FF1F034810B525
:1030E000D0F8CC008047BFF34F8F10BDF881FF1F91
:1030F000034810B5D0F8D0008047BFF34F8F10BD04
:10310000F881FF1F034810B5D0F8D4008047BFF303
:103110004F8F10BDF881FF1F034810B5D0F8D800BD
:103120008047BFF34F8F10BDF881FF1F034810B5D4
:10313000D0F8DC008047BFF34F8F10BDF881FF1F30
:10314000034810B5D0F8E0008047BFF34F8F10BDA3
:10315000F881FF1F034810B5D0F8E4008047BFF3A3
:103160004F8F10BDF881FF1F034810B5D0F8E8005D
:103170008047BFF34F8F10BDF881FF1F034810B584
:10318000D0F8EC008047BFF34F8F10BDF881FF1FD0
:10319000034810B5D0F8F0008047BFF34F8F10BD43
:1031A000F881FF1F034810B5D0F8F4008047BFF343
:1031B0004F8F10BDF881FF1F034810B5D0F8F800FD
:1031C0008047BFF34F8F10BDF881FF1F034810B534
:1031D000D0F8FC008047BFF34F8F10BDF881FF1F70
:1031E000034810B5D0F800018047BFF34F8F10BDE2
:1031F000F881FF1F034810B5D0F804018047BFF3E2
:103200004F8F10BDF881FF1F034810B5D0F808019B
:103210008047BFF34F8F10BDF881FF1F034810B5E3
:10322000D0F80C018047BFF34F8F10BDF881FF1F0E
:10323000034810B5D0F810018047BFF34F8F10BD81
:10324000F881FF1F034810B5D0F814018047BFF381
:103250004F8F10BDF881FF1F034810B5D0F818013B
:103260008047BFF34F8F10BDF881FF1F034810B593
:10327000D0F81C018047BFF34F8F10BDF881FF1FAE
:10328000034810B5D0F820018047BFF34F8F10BD21
:10329000F881FF1F034810B5D0F824018047BFF321
:1032A0004F8F10BDF881FF1F034810B5D0F82801DB
:1032B0008047BFF34F8F10BDF881FF1F034810B543
:1032C000D0F82C018047BFF34F8F10BDF881FF1F4E
:1032D000034810B5D0F830018047BFF34F8F10BDC1
:1032E000F881FF1F034810B5D0F834018047BFF3C1
:1032F0004F8F10BDF881FF1F034810B5D0F838017B
:103300008047BFF34F8F10BDF881FF1F034810B5F2
:10331000D0F83C018047BFF34F8F10BDF881FF1FED
:10332000034810B5D0F840018047BFF34F8F10BD60
:10333000F881FF1F034810B5D0F844018047BFF360
:103340004F8F10BDF881FF1F034810B5D0F848011A
:103350008047BFF34F8F10BDF881FF1F034810B5A2
:10336000D0F84C018047BFF34F8F10BDF881FF1F8D
:10337000034810B5D0F850018047BFF34F8F10BD00
:10338000F881FF1F034810B5D0F854018047BFF300
:103390004F8F10BDF881FF1F034810B5D0F85801BA
:1033A0008047BFF34F8F10BDF881FF1F034810B552
:1033B000D0F85C018047BFF34F8F10BDF881FF1F2D
:1033C000034810B5D0F860018047BFF34F8F10BDA0
:1033D000F881FF1F034810B5D0F864018047BFF3A0
:1033E0004F8F10BDF881FF1F034810B5D0F868015A
:1033F0008047BFF34F8F10BDF881FF1F034810B502
:10340000D0F86C018047BFF34F8F10BDF881FF1FCC
:10341000034810B5D0F870018047BFF34F8F10BD3F
:10342000F881FF1F034810B5D0F874018047BFF33F
:103430004F8F10BDF881FF1F034810B5D0F87801F9
:103440008047BFF34F8F10BDF881FF1F034810B5B1
:10345000D0F87C018047BFF34F8F10BDF881FF1F6C
:10346000034810B5D0F880018047BFF34F8F10BDDF
:10347000F881FF1F034810B5D0F884018047BFF3DF
:103480004F8F10BDF881FF1F034810B5D0F8880199
:103490008047BFF34F8F10BDF881FF1F034810B561
:1034A000D0F88C018047BFF34F8F10BDF881FF1F0C
:1034B000034810B5D0F890018047BFF34F8F10BD7F
:1034C000F881FF1F034810B5D0F894018047BFF37F
:1034D0004F8F10BDF881FF1F034810B5D0F8980139
:1034E0008047BFF34F8F10BDF881FF1F034810B511
:1034F000D0F89C018047BFF34F8F10BDF881FF1FAC
:10350000034810B5D0F8A0018047BFF34F8F10BD1E
:10351000F881FF1F034810B5D0F8A4018047BFF31E
:103520004F8F10BDF881FF1F034810B5D0F8A801D8
:103530008047BFF34F8F10BDF881FF1F034810B5C0
:10354000D0F8AC018047BFF34F8F10BDF881FF1F4B
:10355000034810B5D0F8B0018047BFF34F8F10BDBE
:10356000F881FF1F034810B5D0F8B4018047BFF3BE
:103570004F8F10BDF881FF1F034810B5D0F8B80178
:103580008047BFF34F8F10BDF881FF1F034810B570
:10359000D0F8BC018047BFF34F8F10BDF881FF1FEB
:1035A000034810B5D0F8C0018047BFF34F8F10BD5E
:1035B000F881FF1F034810B5D0F8C4018047BFF35E
:1035C0004F8F10BDF881FF1F034810B5D0F8C80118
:1035D0008047BFF34F8F10BDF881FF1F034810B520
:1035E000D0F8CC018047BFF34F8F10BDF881FF1F8B
:1035F000034810B5D0F8D0018047BFF34F8F10BDFE
:10360000F881FF1F034810B5D0F8D4018047BFF3FD
:103610004F8F10BDF881FF1F034810B5D0F8D801B7
:103620008047BFF34F8F10BDF881FF1F034810B5CF
:10363000D0F8DC018047BFF34F8F10BDF881FF1F2A
:10364000034810B5D0F8E0018047BFF34F8F10BD9D
:10365000F881FF1F034810B5D0F8E4018047BFF39D
:103660004F8F10BDF881FF1F034810B5D0F8E80157
:103670008047BFF34F8F10BDF881FF1F034810B57F
:10368000D0F8EC018047BFF34F8F10BDF881FF1FCA
:10369000034810B5D0F8F0018047BFF34F8F10BD3D
:1036A000F881FF1F034810B5D0F8F4018047BFF33D
:1036B0004F8F10BDF881FF1F034810B5D0F8F801F7
:1036C0008047BFF34F8F10BDF881FF1F034810B52F
:1036D000D0F8FC018047BFF34F8F10BDF881FF1F6A
:1036E0004A4810B5D0F85C4249480068012803D127
:1036F000E00701D0FDF7F6FF4548001D00680128EE
:1037000003D1A00701D5FDF7EEFF4148083000685E
:10371000012803D1600701D5FDF7E6FF3C480C30D6
:103720000068012803D1200701D5FDF7DEFF3848E6
:1037300010300068012803D1E00601D5FDF7D6FF5F
:10374000334814300068012803D1A00601D5FDF7E5
:10375000CEFF2F4818300068012803D1600601D53C
:10376000FDF7C6FF2A481C300068012803D1200657
:1037700001D5FDF7BEFF264820300068012803D19F
:10378000E00501D5FDF7B6FF214824300068012887
:1037900003D1A00501D5FDF7AEFF1D482830006814
:1037A000012803D1600501D5FDF7A6FF18482C308C
:1037B0000068012803D1200501D5FDF79EFF1448BC
:1037C00030300068012803D1E00401D5FDF796FFF1
:1037D0000F4834300068012803D1A00401D5FDF75B
:1037E0008EFF0B4838300068012803D1600401D5F2
:1037F000FDF786FF06483C300068012803D120040D
:1038000001D5FDF77EFFBFF34F8F10BD00100540BF
:10381000800AA2422DE9F05FDD48D0F86042DD4821
:103820000068DD4EDD4D012822D1D5F8000238B9FF
:10383000D5F80001012803D1E00701D0FDF79CFB7A
:10384000D5F8400238B9D5F84001012803D1E00588
:1038500001D5FDF789FB7068F26800F001114FF0A7
:1038600001109043014203D0E00301D5FDF780FB36
:10387000CB48D0F8B0034FF0021A012821D1D5F877
:10388000040238B9D5F80401012803D1A00701D5F5
:10389000FDF773FBD5F8440238B9D5F84401012887
:1038A00003D1A00501D5FDF760FB7068F26800F058
:1038B00002112AEA0200014203D0E00301D5FDF71C
:1038C00058FBB84800684FF0041B012821D1D5F8F7
:1038D000080238B9D5F80801012803D1600701D5DD
:1038E000FDF74CFBD5F8480238B9D5F84801012856
:1038F00003D1600501D5FDF739FB7068F26800F06F
:1039000004112BEA0200014203D0E00301D5FDF7C8
:1039100031FBA548D0F8B0034FF00819012821D198
:10392000D5F80C0238B9D5F80C01012803D12007CD
:1039300001D5FDF724FBD5F84C0238B9D5F84C0178
:10394000012803D1200501D5FDF711FB7068F2684D
:1039500000F0081129EA0200014203D0E00301D57A
:10396000FDF709FB91480068DFF84482904F914EC3
:1039700008F10808012823D1D6F8000238B9D6F892
:103980000001012803D1E00601D5FDF701FBD6F8BF
:10399000400238B9D6F84001012803D1E00401D52E
:1039A000FDF7EEFA3868D8F8002000F001114FF06A
:1039B00001109043014203D0A00301D5FDF7E4FAC2
:1039C0007D48D0F8B003012822D1D6F8040238B9D6
:1039D000D6F80401012803D1A00601D5FDF7D9FAD4
:1039E000D6F8440238B9D5F84401012803D1A0041F
:1039F00001D5FDF7C6FA3868D8F8002000F00211AA
:103A00002AEA0200014203D0A00301D5FDF7BDFA66
:103A10006A480068012822D1D6F8080238B9D6F8D9
:103A20000801012803D1600601D5FDF7B3FAD6F8E5
:103A3000480238B9D5F84801012803D1600401D5FE
:103A4000FDF7A0FA3868D8F8002000F004112BEA3E
:103A50000200014203D0A00301D5FDF797FA5848B0
:103A6000D0F8B003012822D1D6F80C0238B9D6F824
:103A70000C01012803D1200601D5FDF78CFAD6F8F8
:103A80004C0238B9D5F84C01012803D1200401D5E6
:103A9000FDF779FA3868D8F8002000F0081129EA13
:103AA0000200014203D0A00301D5FDF770FA454D95
:103AB000D5F80003012807D143480068000703D068
:103AC000600301D5FDF7B0FDD5F80803012807D143
:103AD000D5F81402012803D1200301D5FDF7A2FD7A
:103AE000D5F80403012807D1D5F81002012803D125
:103AF000E00201D5FDF797FD4FF01C40C0680006BD
:103B000003D5600201D501F0F4FC3048C06F0128F4
:103B100009D12F49886949680840400603D020022E
:103B200001D5FDF7DBF92B48C06F01280BD12A48DE
:103B300000682949143909680840400603D0E001AB
:103B400001D5FDF7CCF92548C06F01280BD12448D9
:103B500000682349143909680840400603D0A001D1
:103B600001D5FDF7BDF91F48C06F01280BD11E48D4
:103B700000681D49143909680840400603D06001F7
:103B800001D5FDF7AEF9BFF34F8FBDE8F09F000000
:103B900000100540B00BA642003005400000A642D0
:103BA0000010A642B01BA6420020A642B08BA6423F
:103BB000043405400080A6420090A642B09BA64275
:103BC00000A0A64200802042100401400000A44250
:103BD000002005400080A442182405400000A542B2
:103BE000182805400080A542182C054070B52B48C8
:103BF000D0F864422A4DD5F80802012807D1D5F83B
:103C00008002012803D1E00701D002F0BBFAD5F809
:103C10004802012807D1D5F8C002012803D1A00726
:103C200001D502F0B0FA1F4DD5F80802012807D1DE
:103C3000D5F88002012803D1600701D502F0A4FA6B
:103C4000D5F84802012807D1D5F8C002012803D1D0
:103C5000200701D502F099FA134890F84010C907DF
:103C600007D090F84100C00703D0A00201D5FDF7AE
:103C700087F80E480088C00403D5600201D501F022
:103C800037FC0B48006810F4403F03D0200201D5F8
:103C900002F006F8BFF34F8F70BD00000010054022
:103CA00000004842008048420040054000C40440F3
:103CB000049404402DE9F0419B48D0F868429B48A9
:103CC0000068012807D19A480068012803D1E0075D
:103CD00001D002F07CFA9548001D0068012808D147
:103CE0009348001D0068012803D1A00701D502F008
:103CF0006FFA8E4808300068012808D18C480830D7
:103D00000068012803D1600701D502F062FA8748F4
:103D10000C300068012808D185480C300068012863
:103D200003D1200701D502F055FA80481030006811
:103D3000012808D17E4810300068012803D1E00630
:103D400001D502F048FA794814300068012808D1FA
:103D5000774814300068012803D1A00601D502F08D
:103D60003BFA724818300068012808D170481830B2
:103D70000068012803D1600601D502F02FFA6B48D4
:103D80001C300068012808D169481C3000680128EF
:103D900003D1200601D502F022FA644820300068E1
:103DA000012808D1624820300068012803D1E005CD
:103DB00001D502F012FA5F4D686D4FF4C066296FAD
:103DC00006EAD01001F4C061084203D0200501D5F5
:103DD00002F006FA686D4FF4C057296F07EAD01059
:103DE00001F4C051084203D0E00401D502F0F9F912
:103DF00051480068012807D150480068012803D1C4
:103E0000E00301D502F0EEF94B48001D00680128DF
:103E100008D14A48001D0068012803D1A00301D53C
:103E200002F0E1F9444808300068012808D143480D
:103E300008300068012803D1600301D502F0D4F9ED
:103E40003D480C300068012808D13C480C3000681F
:103E5000012803D1200301D502F0C7F936481030FC
:103E60000068012808D1354810300068012803D1C6
:103E7000E00201D502F0BAF92F4814300068012899
:103E800008D12E4814300068012803D1A00201D5C2
:103E900002F0ADF9284818300068012808D12748F9
:103EA00018300068012803D1600201D502F0A1F9A1
:103EB00021481C300068012808D120481C300068C7
:103EC000012803D1200201D502F094F91A482030CC
:103ED0000068012808D1194820300068012803D162
:103EE000E00101D502F084F9154D286806EAD010EA
:103EF000134E1C36316801F4C061084203D0200122
:103F000001D502F078F92868316807EAD01001F489
:103F1000C051084203D0E00001D502F06DF9BFF3B3
:103F20004F8FBDE8F081000000100540800A30424C
:103F3000000E304200800140808A3042008E3042C4
:103F40005484014070B55048D0F86C424F48006826
:103F5000012807D14E480068012803D1E00701D0AD
:103F600002F04BF94948001D0068012808D1484873
:103F7000001D0068012803D1A00701D502F03EF919
:103F8000424808300068012808D1414808300068DC
:103F9000012803D1600701D502F031F93B480C300C
:103FA0000068012808D13A480C300068012803D184
:103FB000200701D502F024F93448103000680128A8
:103FC00008D1334810300068012803D1E00601D53C
:103FD00002F017F92D4814300068012808D12C4848
:103FE00014300068012803D1A00601D502F00AF9B7
:103FF000264818300068012808D125481830006884
:10400000012803D1600601D502F0FEF81F481C30DC
:104010000068012808D11E481C300068012803D11F
:10402000200601D502F0F1F8184820300068012878
:1040300008D1174820300068012803D1E00501D5D8
:1040400002F0E1F8134E3068124D4FF4C0611C3598
:1040500001EAD010296801F4C061084203D02005AC
:1040600001D502F0D3F830684FF4C05101EAD01006
:10407000296801F4C051084203D0E00401D502F0E0
:10408000C6F8BFF34F8F70BD00100540800A314263
:10409000000E3142548801402DE9F0419A48D0F891
:1040A0007C429A4D286B012806D1A86B012803D1C8
:1040B000E00701D002F0E9FB686B012806D1E86B4C
:1040C000012803D1A00701D502F0E0FB904931F8A7
:1040D000900F8989084010F0FF0F03D0600701D5C9
:1040E00002F0D2FB8B4D286B012806D1A86B01286A
:1040F00003D1200701D502F0CBFB686B012806D164
:10410000E86B012803D1E00601D502F0C2FB82482A
:10411000008881490C310988084010F0FF0F03D056
:10412000A00601D502F0B3FB7C4D286B012806D117
:10413000A86B012803D1600601D502F0ACFB686BC7
:10414000012806D1E86B012803D1200601D502F031
:10415000A3FB7348008872490C310988084010F0AD
:10416000FF0F03D0E00501D502F094FB6D4D286BE5
:10417000012806D1A86B012803D1A00501D502F0C2
:104180008DFB686B012806D1E86B012803D160051F
:1041900001D502F084FB6448008863490C3109882A
:1041A000084010F0FF0F03D0200501D502F075FB89
:1041B0005E4D286B012806D1A86B012803D1E004CD
:1041C00001D502F06EFB686B012806D1E86B01286F
:1041D00003D1A00401D502F065FB554931F8900FD9
:1041E0008989084010F0FF0F03D0600401D502F068
:1041F00057FB504D286B012806D1A86B012803D12D
:10420000E00301D502F050FB686B012806D1E86B92
:10421000012803D1A00301D502F047FB46480088DE
:1042200045490C310988084010F0FF0F03D06003A6
:1042300001D502F038FB4FF08740D0F8000101288B
:104240000BD13E4881693E4A40691140104001420D
:1042500003D0200301D502F056FE3A480768C5682E
:10426000A80606D517F00B0F03D0600201D502F0A7
:1042700036FE05EA0706B00603D5200201D502F096
:104280002FFE300603D5E00101D502F02CFE7006AA
:1042900003D5A00101D502F025FEA80705D5F80534
:1042A00003D5600101D502F01CFE274807682648A7
:1042B0000C300568A80606D517F00B0F03D02001B7
:1042C00001D502F011FE05EA0706B00603D5E000AD
:1042D00001D502F00AFE300603D5A00001D502F098
:1042E00007FE700603D5600001D502F000FEA807A6
:1042F00005D5F80503D5002C01DA02F0F7FDBFF370
:104300004F8FBDE8F08100000010054000102A42E8
:104310000050014000902A429054014000102B426E
:104320009058014000902B42905C014000102C42BC
:104330000060014000902C429064014000000C405D
:10434000FBFC7CF700D0014000D401402DE9F04196
:104350007648D0F8804276480668C568A80606D533
:1043600016F00B0F03D0E00701D002F0C2FD05EA02
:104370000607B80603D5A00701D502F0BBFD380635
:1043800003D5600701D502F0B8FD780603D52007F4
:1043900001D502F0B1FDA80705D5F00503D5E0066B
:1043A00001D502F0A8FD6348076862480C30056833
:1043B000A80606D517F00B0F03D0A00601D502F012
:1043C0009DFD05EA0706B00603D5600601D502F09B
:1043D00096FD300603D5200601D502F093FD700648
:1043E00003D5E00501D502F08CFDA80705D5F80539
:1043F00003D5A00501D502F083FD4F484568466905
:10440000680505D5300603D5200501D501F076F8FD
:10441000A80505D5B00603D5E00401D501F06FF875
:10442000280505D5B00703D4A00401D501F065F82F
:10443000E80506D516F01D0F03D0600401D501F084
:104440005BF83E4805683D4810300668680505D5AC
:10445000300603D5E00301D501F054F8A80505D5D1
:10446000B00603D5A00301D501F04DF8280505D508
:10447000B00703D4600301D501F043F8E80506D581
:1044800016F01D0F03D0200301D501F039F82C4898
:1044900045684669680505D5300603D5A00201D5F3
:1044A00001F034F8A80505D5B00603D5600201D5A2
:1044B00001F02DF8280505D5B00703D4200201D559
:1044C00001F023F8E80506D516F01D0F03D0E00132
:1044D00001D501F019F81B4805681A481030066824
:1044E000680505D5300603D5600101D501F012F845
:1044F000A80505D5B00603D5200101D501F00BF8BC
:10450000280505D5B00703D4E00001D501F001F876
:10451000E80506D516F01D0F03D0A00001D500F068
:10452000F7FFBFF34F8FBDE8F0810000001005409A
:10453000001002400014024000C0014004C40140C9
:10454000000002400404024070B56648D0F884427E
:10455000654D2E8BE00705D0F00603D5700601D51A
:1045600001F014FEA00705D5B00603D5300601D52D
:1045700001F00DFEAE8B600705D5F00603D5700681
:1045800001D501F005FE200705D5B00603D530069C
:1045900001D501F0FEFD2E8CE00605D5F00603D511
:1045A000700601D501F0F6FDA00605D5B00603D5CD
:1045B000300601D501F0EFFDB5F84860600605D57D
:1045C000F00503D5B00501D501F0E6FD200605D5BF
:1045D000B00403D5700401D501F0DFFDB5F8A45097
:1045E000E00505D5E80703D1E80601D501F0D6FDC1
:1045F000A00505D5A80703D4E80501D501F0CFFD36
:10460000600505D5680703D4E80401D501F0C8FDAD
:1046100036480588E00305D5E80603D5680601D5C8
:1046200001F0B4FDA00305D5A80603D5280601D5E1
:1046300001F0ADFD2D48001D0588600305D5E80695
:1046400003D5680601D501F0AEFD200305D5A80607
:1046500003D5280601D501F0A7FD244808300588B8
:10466000E00205D5E80603D5680601D501F09DFDF9
:10467000A00205D5A80603D5280601D501F096FDB0
:104680001A4830300588600205D5E80503D5A8052D
:1046900001D501F08CFD200205D5A80403D56804DE
:1046A00001D501F085FD11488C300588E00105D564
:1046B000E80703D1E80601D501F07BFDA00105D58F
:1046C000A80703D4E80501D501F074FD600105D504
:1046D000680703D4E80401D501F06DFDBFF34F8FE7
:1046E00070BD0000001005400070014018480240F5
:1046F00070B53648D0F8884235480588E00705D0BF
:10470000E80603D5680601D501F056FDA00705D5DA
:10471000A80603D5280601D501F04FFD2C48001D41
:104720000588600705D5E80603D5680601D501F0C0
:1047300045FD200705D5A80603D5280601D501F0BB
:104740003EFD234808300588E00605D5E80603D578
:10475000680601D501F034FDA00605D5A80603D5ED
:10476000280601D501F02DFD194830300588600676
:1047700005D5E80503D5A80501D501F023FD2006E0
:1047800005D5A80403D5680401D501F01CFD104827
:104790008C300588E00505D5E80703D1E80601D58A
:1047A00001F0FCFCA00505D5A80703D4E80501D558
:1047B00001F00BFD600505D5680703D4E80401D5B9
:1047C00001F004FDBFF34F8F70BD000000100540E5
:1047D000184C024070B56648D0F88C4265480068B5
:1047E000644900F00F000831096801F00F01084228
:1047F00003D0600601D5FCF771FF5E4820300068E9
:104800005C4900F00F002831096801F00F010842EF
:1048100003D0200601D5FCF762FF564840300068FF
:10482000544900F00F004831096801F00F010842B7
:1048300003D0E00501D5FCF753FF4E486030006817
:104840004C4900F00F006831096801F00F0108427F
:1048500003D0A00501D5FCF744FF474D6868012847
:1048600007D1D5F88000012803D1E00301D5FEF778
:10487000C7F9E868012807D1D5F88400012803D1D9
:10488000A00301D5FEF7BBF92869012807D13B48F1
:104890008068800703D0600301D5FEF7AFF9384D7B
:1048A0006868012807D1D5F88000012803D12003CA
:1048B00001D5FEF7A8F9E868012807D1D5F88400EA
:1048C000012803D1E00201D5FEF79CF928690128EF
:1048D00007D12C480068800703D0A00201D5FEF75D
:1048E00090F9294D6868012807D1D5F88000012882
:1048F00003D1600201D5FEF789F9E868012807D1E4
:10490000D5F88400012803D1200201D5FEF77DF9F6
:104910002869012807D11D488068800703D0E0017D
:1049200001D5FEF771F91A4D6868012807D1D5F84D
:104930008000012803D1A00101D5FEF76AF9E868DB
:10494000012807D1D5F88400012803D1600101D5E1
:10495000FEF75EF92869012807D10E480068800734
:1049600003D0200101D5FEF752F9BFF34F8F70BD80
:10497000001005400C7C014000003C4200E001407A
:1049800000803C4208E40140000044420020024014
:10499000008044420824024070B57248D0F890422A
:1049A000714DD5F89800012807D1D5F89803012852
:1049B00003D1E00601D5FDF73BFAD5F89C000128AC
:1049C00007D1D5F89C03012803D1A00601D5FDF736
:1049D00031FAD5F88C00012807D1D5F88C030128CD
:1049E00003D1600601D5FDF724FA60494868604E9E
:1049F000C96930403140084203D0200601D5FDF797
:104A000016FA5C4DD5F89800012807D1D5F898031F
:104A1000012803D1E00501D5FDF70EFAD5F89C0079
:104A2000012807D1D5F89C03012803D1A00501D5A1
:104A3000FDF704FAD5F88C00012807D1D5F88C03CE
:104A4000012803D1600501D5FDF7F7F94A48006850
:104A500049493040183109683140084203D02005E7
:104A600001D5FDF7E8F9454DD5F89800012807D1A3
:104A7000D5F89803012803D1E00401D5FDF7E0F94A
:104A8000D5F89C00012807D1D5F89C03012803D153
:104A9000A00401D5FDF7D6F9D5F88C00012807D17F
:104AA000D5F88C03012803D1600401D5FDF7C9F9BD
:104AB00033480068324930401831096831400842B3
:104AC00003D0200401D5FDF7BAF92E4D28782E4EDB
:104AD00000F00300012807D196F8E100800703D514
:104AE000A00301D500F002FD2878C0F301100128D1
:104AF00007D196F8E100800603D5600301D500F0E8
:104B0000F6FC224DD5F80003012807D1D5F8800323
:104B1000012803D1E00201D5FCF7ABFED5F8040370
:104B2000012807D1D5F88403012803D1A00201D5BB
:104B3000FCF79EFED5F80803012807D1D5F88803B5
:104B4000012803D1600201D5FCF794FE10484068AB
:104B500010F4403F03D0200201D502F0D5F9BFF395
:104B60004F8F70BD0010054000009C4200E00440E3
:104B70001752F00000809C4204E4044000009D4273
:104B800004E8044013440540004005400080904282
:104B90000090044070B53548D0F89442344800681D
:104BA000012808D1324820380068012803D1E007E5
:104BB00001D0FBF787FD2E48001D0068012808D1B1
:104BC0002B481C380068012803D1A00701D5FBF74A
:104BD0007AFD284D2868284E012807D1D6F8B00064
:104BE000C00303D0600701D5FBF76BFD28680128DF
:104BF00007D1D6F8B000C00303D0200701D5FBF7DA
:104C000063FD1E480068012808D11C482038006850
:104C1000012803D1E00601D5FBF758FD1748001D18
:104C20000068012808D115481C380068012803D104
:104C3000A00601D5FBF74BFD114D2868114E012848
:104C400006D13068C00503D0600601D5FBF73DFDF5
:104C50002868012806D13068C00503D0200601D598
:104C6000FBF736FDBFF34F8F70BD0000001005400D
:104C7000E00880422014804200000440E088804226
:104C800020948042B004044070B52A48D0F898427D
:104C900040F2F715600740F27F1611D526480088CC
:104CA000254908310B88891F0988234A0A3212884E
:104CB0001840284202D11140314201D000F01AFCC4
:104CC000A0060CD51D48018E038F428E408F1940DF
:104CD000294202D10240324201D000F00CFC6006B1
:104CE00025D517480278401E0378801C00781449A7
:104CF0001A3109788C0618D4D40716D11A405208F4
:104D000013D1C20701D082070FD4420701D5020791
:104D10000BD4C20601D5800607D4080701D5C80602
:104D200003D4480603D5080601D5FBF7A1FDBFF360
:104D30004F8F70BD0010054030FC0640000007405A
:104D4000A50407402DE9F04104461D4616460F46CE
:104D50002A2000F0BFFA204600F092FA304600F018
:104D60008FFA2B2000F0B6FA384600F089FA284670
:104D700000F086FABDE8F0412C2000F0ABBA00004C
:104D8000F0B58BB06846FDF741F82020ADF806007D
:104D9000402002240125ADF80240ADF80A0001468A
:104DA000ADF800506A462846FCF7C0FD6A46082167
:104DB0000120FCF7BBFDA7036A4639460020FCF73B
:104DC000B5FD01212020FCF719FD05A802F076F8B9
:104DD00000268DF816608DF8174041F28730184C88
:104DE000079005A9204601F0ABFD08A801F03CFFA3
:104DF00040F6C310ADF828600890ADF82A500422A0
:104E000080210120FCF722FF08AA0121204601F0A1
:104E10003FFE01221146204601F0D0FE4021012034
:104E2000FCF774FF08210120FCF770FF39460020D1
:104E3000FCF76CFF204601F0F9FF0BB0F0BD00005D
:104E4000005C014010B50121064801F02FFD80B241
:104E500041F28631884200D3084664225043B0FBB9
:104E6000F1F010BD005C014010B5FFF789FF4FF471
:104E7000004421460020FCF765FE1E20FCF734F8B4
:104E800021460020FCF742FF6420FCF72DF880212A
:104E90000120FCF73BFF6420FCF726F8112000F00E
:104EA00019FA362000F016FA002000F000FA3A2035
:104EB00000F010FA052000F0FAF9B22000F00AFA2A
:104EC0000C2000F0F4F90C2000F0F1F9002000F0C3
:104ED000EEF9332000F0EBF9332000F0E8F9B720C9
:104EE00000F0F8F9352000F0E2F9BB2000F0F2F90B
:104EF000352000F0DCF9C02000F0ECF92C2000F0A7
:104F0000D6F9C22000F0E6F9012000F0D0F9C32064
:104F100000F0E0F9132000F0CAF9C42000F0DAF93B
:104F2000202000F0C4F9C62000F0D4F90F2000F0D2
:104F3000BEF9D02000F0CEF9A42000F0B8F9A120ED
:104F400000F0B5F9D62000F0C5F9A12000F0AFF9C6
:104F5000E02000F0BFF9F02000F0A9F9002000F0F7
:104F6000A6F9042000F0A3F9042000F0A0F9042021
:104F700000F09DF9052000F09AF9292000F097F93A
:104F8000332000F094F93E2000F091F9382000F031
:104F90008EF9122000F08BF9122000F088F92820F9
:104FA00000F085F9302000F082F9E12000F092F95C
:104FB000F02000F07CF9072000F079F90A2000F0D9
:104FC00076F90D2000F073F90B2000F070F907203E
:104FD00000F06DF9282000F06AF9332000F067F93D
:104FE0003E2000F064F9362000F061F9142000F052
:104FF0005EF9142000F05BF9292000F058F9322006
:1050000000F055F9212000F065F9112000F062F957
:105010007820FBF769FFBDE81040292000F05AB95D
:105020002DE9F0419EB013A8FCF7F0FE40202027A8
:10503000ADF85600ADF8527013AA10210120FCF70C
:1050400075FC13AA20210120FCF770FC2B221021F3
:105050000120FCF7FBFD282220210120FCF7F6FDB2
:1050600001218804FCF790FB684600F01DFC002439
:105070000220CDE90040082002900320CDE9044041
:105080007801CDE906403C4E0894694630460A94C2
:1050900000F0F0FA1A941B941AA81C9400F090FAED
:1050A00001214FF41030FCF72DFB0BA8FCF724FA7C
:1050B00001250F9510950E94CDE911540BAA2803E4
:1050C00082E85100DFF8B48000214046FCF7C6F8C2
:1050D00000B1FEE72A4C4FF49B712046FBF73CFBE6
:1050E000012291072046FBF7F5FA254840F23F11CF
:1050F0005430FBF731FBADF860700620ADF862006C
:105100002048199018A8FDF785FDBDF96200002818
:1051100009DB00F01F0105FA01F14009800000F1F0
:10512000E020C0F88012BDF96210F020002904DBF5
:1051300001F1E02181F8000405E001F00F0101F127
:10514000E02181F8140DBDF96200002808DB00F0B1
:105150001F018D404009800000F1E020C0F800519F
:1051600001214046FCF716F80121304600F0D4F941
:105170001EB0BDE8F0810000000002400030054094
:10518000140801401D150000002801DC00220BE07E
:10519000642802DB41F2863206E041F28631484360
:1051A0006421B0FBF1F082B20121014801F06CBD35
:1051B000005C01402DE9F05F02FB03F40B44024464
:1051C0005B1E521E670000269BB292B2FFF7BAFD2B
:1051D00040210120FCF7B6FC08210120FCF796FDD8
:1051E000234D4FF0010885F800804EF66029DFF866
:1051F00084A024E0B81B4C46A04200D8044628787E
:105200000028FCD000202870DFF86CB00246014670
:105210005846FBF7C1FE0A98002182195846FCF750
:10522000C9F8A2B200215846FCF710F9012200216A
:105230005846FBF7B1FE1149C1F800802644BE4232
:10524000D8D328780028FCD054462021204600F0EE
:10525000C1F90028F9D00221204600F0BBF900284E
:10526000F9D0BDE8F05F40210120FCF74FBD000000
:105270000880FF1F0000024000300540000021426E
:1052800070B5040AC5B240210120FCF75BFC08217F
:105290000120FCF73BFD204600F030F8284600F0E6
:1052A0002DF8BDE8704040210120FCF72FBD10B55E
:1052B000044640210120FCF745FC08210120FCF7B1
:1052C00025FD204600F01AF84021BDE810400120DD
:1052D000FCF71CBD10B5044640210120FCF732FC50
:1052E00008210120FCF72EFC204600F007F84021A1
:1052F000BDE810400120FCF709BD000001B50A23FC
:1053000001226946014800F0E2FA08BD00000240AF
:1053100010B58EB006A801F0A5FA684601F070F944
:1053200001218804FCF76AFA03224FF400410120AE
:10533000FCF78CFC1020079041F28830184C0C9040
:1053400006A9204600F0B2FF00220121204601F00C
:10535000FDF901221146204600F05AFF00220321E8
:10536000204601F05BF90120049000210320CDE9E3
:1053700002100820019105906A460121204601F0A3
:1053800039F800220121204601F090F9012211464E
:10539000204601F0DFF8204601F02CFA0EB010BDD7
:1053A00000880140C10706D0164940F223120A6066
:1053B00043F210220A60810702D5144A1249116192
:1053C000410703D5124A4AF2015111801149C20620
:1053D00006D5B1F8FE234AF208531A43A1F8FE237A
:1053E000420606D5B1F8FE334AF203521343A1F840
:1053F000FE33000605D508497720086006490831C4
:1054000008607047000401400100A5A50080044029
:10541000FC3B0540004005400408054010B586B03F
:105420006846FCF7F3FC0024ADF800400220ADF81C
:105430000200FFF76DFF4020ADF80A00ADF8024012
:105440006A4620210020FCF771FA6A4640210020BC
:10545000FCF76CFA6A4610210020FCF767FA4FF45B
:105460000040ADF810006A4601210020FCF75EFA0A
:1054700006B010BD0D4810B5B0F8FE03800704D487
:1054800040F2AD410AA0FBF72DFD1748017801F06D
:10549000C00141F00F010170134910200D31087057
:1054A0001E20FBF741FD002010BD0000004005401C
:1054B0002E2E5C2E2E5C2E2E5C2E2E5C6472697657
:1054C0006572735C686333325F6C6C5F64726976BB
:1054D00065725C7372635C686333325F6C6C5F70BF
:1054E00077632E6300000000024405407047704758
:1054F00070477047704770477047704770477047F4
:1055000070477047704770477047704770477047E3
:10551000704770477047704770B5044616480D468F
:1055200084420DD0154884420AD01548844207D0E1
:105530001448844204D040F2622113A0FBF7D2FC4D
:1055400035B1012D04D040F263210FA0FBF7CAFC56
:105550006069400705D535B14FF419710AA0FBF712
:10556000C1FC012D04D0606820F04000606070BD77
:10557000606840F04000F9E700C0014000C401400D
:1055800000000240000402402E2E5C2E2E5C2E2EC7
:105590005C2E2E5C647269766572735C686333326C
:1055A0005F6C6C5F6472697665725C7372635C6871
:1055B0006333325F6C6C5F7370692E6300000000B0
:1055C0006FF0020118B1002101604160816008465E
:1055D0007047000070B50546144800260C46854209
:1055E0000DD0134885420AD01248854207D0124890
:1055F000854204D04FF4257110A0FBF773FC14B161
:1056000034F0BF0004D040F295210CA0FBF76AFCF7
:105610006869A10704D524F00204810700D401269B
:10562000204200D00126304670BD000000C001407D
:1056300000C4014000000240000402402E2E5C2EF7
:105640002E5C2E2E5C2E2E5C647269766572735C05
:10565000686333325F6C6C5F6472697665725C7329
:1056600072635C686333325F6C6C5F7370692E6366
:10567000000000002DE9F041054679480C466FF026
:10568000020685420DD0774885420AD07648854289
:1056900007D07648854204D040F2ED1174A0FBF7A4
:1056A00021FC002C7ED0206830B1012804D04FF4BA
:1056B000F8716FA0FBF716FC606830B1022804D0C7
:1056C00040F2F1116AA0FBF70DFCA06830B1082888
:1056D00004D04FF4F97166A0FBF704FCE0684FF4C6
:1056E000805730B1B84204D040F2F31160A0FBF70C
:1056F000F9FB206950B1B0F5004F07D0B0F5404F2D
:1057000004D04FF4FA715AA0FBF7ECFB606950B17A
:10571000012808D0022806D0032804D040F2F51151
:1057200053A0FBF7DFFBA06990B1042810D0082834
:105730000ED00C280CD010280AD0142808D0182815
:1057400006D01C2804D04FF4FB7149A0FBF7CAFB1C
:10575000E06940B3B0F5807F31D0B0F5007F2ED046
:10576000B0F5407F2BD0B0F5806F28D0B0F5A06F9A
:1057700025D0B0F5C06F22D0B0F5E06F1FD0B0F5E6
:10578000006F1CD0B0F5106F19D0B0F5206F16D097
:10579000B0F5306F13D0B0F5406F10D0B0F5506F4A
:1057A0000DD001E052E00AE0B0F5606F07D0B0F52F
:1057B000706F04D040F2F7112DA0FBF793FB206A25
:1057C00030B1B84204D04FF4FC7129A0FBF78AFB3A
:1057D000606A30B1802804D040F2F91124A0FBF7B0
:1057E00081FBA06A50B1012808D0022806D0032806
:1057F00004D04FF4FD711EA0FBF774FBA1680829CB
:1058000002D1E068B84221D02068012804D119B93A
:105810006269DAB1022A19D062681043626A1143E0
:105820000843E168084321690843686094F8281038
:10583000E86861F30100E860A068082809D0E16920
:1058400060690843216A0843A86100263046BDE824
:10585000F081D4E905010843D4E907121143F2E7C6
:1058600000C0014000C401400000024000040240AA
:105870002E2E5C2E2E5C2E2E5C2E2E5C6472697693
:105880006572735C686333325F6C6C5F64726976F7
:1058900065725C7372635C686333325F6C6C5F73F8
:1058A00070692E63000000006FF0020168B10021F2
:1058B00008220160C0E90112C1600161C0E905125E
:1058C000D201C0E90721416281620846704738B5BC
:1058D00004466FF0020000290CD0002A0AD060684C
:1058E00000F00200022806D0009313460022204652
:1058F00000F07EF838BD01B02046BDE8304000F031
:1059000001B800002DE9FF4F85B04FF000090446B3
:10591000CDF80890C06817468A46C84600F00305CF
:105920006D1CB2FBF5F005FB107020B14FF4D9717E
:1059300021A0FBF7D7FAA0694FF4806B00F47066E2
:1059400026E05A464FF44061CDF8009014E09642AC
:1059500003D8029B1AF8030007E0029B8E4202D88C
:105960003AF8130001E05AF8230020600098401C28
:1059700000900298401C02900098A842E7D3202291
:1059800011462046089B00F017F95FEA000802D193
:105990000298B842D5D36068000709D5B8F1000F66
:1059A00006D1002202212046089B00F005F980461E
:1059B00009B04046BDE8F08F2E2E5C2E2E5C2E2EB8
:1059C0005C2E2E5C647269766572735C6863333238
:1059D0005F6C6C5F6472697665725C7372635C683D
:1059E0006333325F6C6C5F7370692E63000000007C
:1059F0002DE9F04F89B04FF0000A0446CDF808A019
:105A00000120CDF80CA0CDF81CA00090E0689846CD
:105A100091468B46564600F003056D1CB3FBF5F12D
:105A200005FB118020B140F2491155A0FBF75AFA4D
:105A3000606800F008000690A06900F470678BE0D1
:105A4000029941453FD2202200231146204600F012
:105A5000B3F80099012936D1A8BB0698082800D0D0
:105A600088BBBBF1000FCDF800A01DD04FF48061C2
:105A70004FF4406214E08F4203D8029B1BF80300EE
:105A800007E0029B974202D83BF8130001E05BF865
:105A9000230020600098401C00900298401C029057
:105AA0000098A842E7D30CE04FF0FF3006E02060FA
:105AB0000099491C00910299491C02910099A94240
:105AC000F5D3CDF800A0802200231146204600F037
:105AD00073F8060037D1B9F1000F21D04FF480617F
