:020000040000FA
:1000000038A2FF1F95020000CD020000CF020000C1
:10001000D1020000D3020000D50200000000000061
:10002000000000000000000000000000D7020000F7
:10003000D902000000000000DB020000E1670000C0
:10004000912C0000A52C0000B92C0000CD2C000044
:10005000E12C0000F52C0000092D00001D2D0000F2
:10006000312D0000452D0000592D00006D2D0000A0
:10007000812D0000952D0000A92D0000BD2D000050
:10008000D12D0000E52D0000F92D00000D2E0000FF
:10009000212E0000352E0000492E00005D2E0000AC
:1000A000712E0000852E0000992E0000AD2E00005C
:1000B000C12E0000D52E0000E92E0000FD2E00000C
:1000C000112F0000252F0000392F00004D2F0000B8
:1000D000612F0000752F0000892F00009D2F000068
:1000E000B12F0000C52F0000D92F0000ED2F000018
:1000F0000130000015300000293000003D300000C4
:100100005130000065300000793000008D30000073
:10011000A1300000B5300000C9300000DD30000023
:10012000F130000005310000193100002D310000D0
:100130004131000055310000693100007D3100007F
:1001400091310000A5310000B9310000CD3100002F
:10015000E1310000F5310000093200001D320000DD
:100160003132000045320000593200006D3200008B
:100170008132000095320000A9320000BD3200003B
:10018000D1320000E5320000F93200000D330000EA
:100190002133000035330000493300005D33000097
:1001A000713300008533000099330000AD33000047
:1001B000C1330000D5330000E9330000FD330000F7
:1001C0001134000025340000393400004D340000A3
:1001D0006134000075340000893400009D34000053
:1001E000B1340000C5340000D9340000ED34000003
:1001F0000135000015350000293500003D350000AF
:100200005135000065350000793500008D3500005E
:10021000A1350000B5350000C9350000DD3500000E
:10022000F135000005360000193600002D360000BB
:100230004136000055360000693600007D3600006A
:1002400091360000E53700007D3C0000653D000070
:100250002D400000DF020000DF020000DF0200008E
:10026000AD410000F144000079470000A9490000B9
:10027000CD4A0000E14C0000494F000055500000FD
:10028000DFF80CD000F07EF900480047F16A00006A
:1002900038A2FF1F12484FF01F01016011484FF0B4
:1002A0007701016010484FF0770101600F484FF46B
:1002B000885101600B484FF0760101600A484FF009
:1002C000760101600A4880470A480047FEE7FEE7DA
:1002D000FEE7FEE7FEE7FEE7FEE7FEE7FEE7FEE7F6
:1002E00010080540040805400C08054000080540BA
:1002F0006569000081020000F0B480EA0102D40FB9
:100300004200B2EB410F02D20246084611464A00B3
:1003100042D0C30DDDB2C1F3C752AD1A202D35DA7C
:10032000C1F3160141F4000204B15242C5F12006A6
:1003300002FA06F12A411044B3EBD05F23D0C4B1D6
:10034000012DA0EBC35009DCF0BC4FF0004202EAE3
:10035000C352DBB200F5000000F0E5B8400000F148
:10036000807000EBC350A0F1807040EAD17049006A
:1003700009E0490841EAC071A0EBC35000F5000054
:10038000400800EBC350F0BC00F0C4B86142012249
:1003900002EB4101001BF6E7F0BC704781F0004121
:1003A000AAE780F00040A7E796230022114600F05C
:1003B000BAB820F00040C10DC0F3160040F40000B0
:1003C0007F2901DA00207047962903DCC1F19601EC
:1003D000C84070479639884070470000002801DB0C
:1003E000C0F10040002901DBC1F1004181427047AA
:1003F0007047704770477047704770477047704745
:10040000BFFFDFFFFFFEFFFFFFFFFFFFFFFFFFFF5D
:10041000FFFFFFFFFFFFFFFFFFFFFFFFFFFFFFFFEC
:1004200080EA010210B502F00043400022D04A00E9
:100430001FD0010E01EB1261C0F35600C2F3560249
:1004400040F4000042F40002A0FB022000047F39C7
:10045000140400D0401C50EA124001D44000491E50
:10046000C2B20C0604EBD010401C4008802A02D017
:1004700003E0002010BD20F00100002900DA002078
:10048000184310BD30B480EA010202F0004530F09C
:10049000004221F0004013D090B1C30DD40DC2F33F
:1004A0001601C0F31600E41A41F4000140F4000202
:1004B0007D34914201D3641C00E04900002C02DA33
:1004C00030BC002070474FF400000023914201D35C
:1004D000891A034340084FEA4101F7D151B19142D3
:1004E00002D14FF0004105E002D24FF0010101E0DE
:1004F0006FF0010103EBC450284430BC00F00AB88F
:10050000002801DBC0F10040002901DBC1F10041FE
:10051000884270470029A8BF7047401C490008BFA7
:1005200020F00100704710B4B0FA80FC00FA0CF023
:1005300050EA010404BF10BC704749B1CCF120045B
:1005400021FA04F411FA0CF118BF012121430843E8
:10055000A3EB0C01CB1D4FEA00614FEA102042BF14
:10056000002010BC704700EBC35010440029A4BF0A
:1005700010BC7047401C490008BF20F0010010BCAF
:1005800070470000064C074D06E0E06840F00103AC
:1005900094E8070098471034AC42F6D3FFF774FE96
:1005A00028A5000048A5000070B504460D4600BF10
:1005B0000A48844207D309486830844203D804F0CB
:1005C000030000B903E08F2105A000F089FC00BF03
:1005D000206865F30800206070BD00000408014039
:1005E0002E2E5C2E2E5C2E2E5C2E2E5C6472697676
:1005F0006572735C686333325F6C6C5F64726976DA
:1006000065725C7372635C686333325F6C6C5F61EC
:100610006F732E63000000001FB501220321052027
:1006200000F086FF02A800F0C8FB684600F060FA00
:100630003049314800F085FA00208DF80A0030205A
:100640008DF8090000208DF8080005208DF80C00B9
:1006500002A800F009FB00200190019820F01F0083
:10066000401D01906321019861F3102001900198D1
:1006700020F0704000F180500190019820F07060EF
:1006800000F180700190019820F4700000F5801056
:10069000019000208DF80000019820F0800001906A
:1006A000684600F0CDF800BF202000F029F80128AE
:1006B000FAD100221146042005F0F2FD0122114674
:1006C0000B2005F0EDFD502000F01CFE4FF44040E3
:1006D00001F056FA05F05AF9052000F03CFA012025
:1006E00000F0D0FD002000F0CDFD012000F08EFDD7
:1006F0001FBD0000102211007777770770470000B8
:1007000010B5044600BF24B144F06900692800D147
:1007100004E040F28B5106A000F0E2FB00BF12485B
:100720000078204008B1012010BD0020FCE7000047
:100730002E2E5C2E2E5C2E2E5C2E2E5C6472697624
:100740006572735C686333325F6C6C5F6472697688
:1007500065725C7372635C686333325F6C6C5F6399
:100760006C6B2E63000000003C40054070B50446F1
:10077000002500BF0CB1012C00D104E040F2E5419E
:100780001FA000F0ADFB00BF00BF2B48008800F0A9
:10079000010000B104E040F2E64119A000F0A0FB26
:1007A00000BF64B92548007800F00700052801D192
:1007B000C54322E001202149091D08701DE01F48A2
:1007C000DA300068C0F3C01030B94FF4805108200F
:1007D00000F0C9F9054605E04FF48051012000F012
:1007E000C2F905464DB900201449091D08704FF49F
:1007F0008051202000F0B7F90546284670BD000062
:100800002E2E5C2E2E5C2E2E5C2E2E5C6472697653
:100810006572735C686333325F6C6C5F64726976B7
:1008200065725C7372635C686333325F6C6C5F63C8
:100830006C6B2E6300000000FE430540264005401F
:100840002DE9F041044614B96FF002061FE100BF24
:100850002079C0F3C01018B12079C0F3C01000B1E6
:1008600004E04FF497618BA000F03AFB00BF00BF9B
:10087000207900F01F00401C182805D8207900F0CE
:100880001F00401C00B104E040F2B94181A000F01B
:1008900027FB00BF00BF6068C0F30820401CB0F514
:1008A000F07F06D86068C0F30820401C142800D3ED
:1008B00004E040F2BA4177A000F012FB00BF00BF95
:1008C0000121606801EB1070102805D8606801EB09
:1008D0001070022800D304E040F2BB416DA000F08C
:1008E000FFFA00BF2079C0F3C01008B9774901E0D2
:1008F00077480168207900F01F00401CB1FBF0F739
:100900006068C0F30820401C00FB07F500BF714879
:10091000874203D87048874200D304E04FF49861BF
:100920005CA000F0DDFA00BF00BF6C48854203D830
:100930004010854200D304E040F2C14155A000F0D0
:10094000CFFA00BF00BF0121606801EB1070B5FB5A
:10095000F0F06349884209D80121606801EB10700A
:10096000B5FBF0F05F49884200D304E040F2C24199
:1009700048A000F0B5FA00BF00BF6068C0F3036094
:10098000401C102806D86068C0F30360401C022891
:1009900000D304E040F2C3413EA000F0A1FA00BF42
:1009A00000BF6068C0F30350401C102806D8606880
:1009B000C0F30350401C022800D304E040F2C441BD
:1009C00034A000F08DFA00BF00BF6068C0F3035090
:1009D000401CB5FBF0F04249884209D86068C0F37A
:1009E0000350401CB5FBF0F03E49884200D304E0C0
:1009F00040F2C54127A000F073FA00BF00BF606855
:100A0000C0F30360401CB5FBF0F03549884209D8BB
:100A10006068C0F30360401CB5FBF0F031498842C8
:100A200000D304E040F2C6411AA000F059FA00BF1A
:100A300000BF2078012801D0207800B904E04FF4ED
:100A4000996114A000F04CFA00BF00BF264800884E
:100A500000F0010000B104E040F2C9410DA000F037
:100A60003FFA00BF2079C1092048006861F3C71030
:100A70001E49086060680860207820B90120FFF7EF
:100A800075FE064603E00020FFF770FE064630467E
:100A9000BDE8F0812E2E5C2E2E5C2E2E5C2E2E5C60
:100AA000647269766572735C686333325F6C6C5F25
:100AB0006472697665725C7372635C686333325F1B
:100AC0006C6C5F636C6B2E630000000000366E017F
:100AD0000480FF1F40787D0140420F0000389C1CBD
:100AE00000C2EB0BC0E1E400FE43054000410540BD
:100AF0000146002009B9C01E22E000224A604A686F
:100B000022F080024A604A6822F01F024A601323E2
:100B10004A6863F310224A604A6822F0704202F188
:100B200080524A604A6822F0706202F180724A6024
:100B30004A6822F4700202F580124A6001220A70AB
:100B4000704770B504460D462946204605F024FC42
:100B500005F0A0FE70BD10B50446204605F0B8FDB6
:100B600005F098FE10BDF8B505460C460020009033
:100B70006FF0070609E02846FFF7C2FD012801D102
:100B8000002605E00098401C00900098A042F2D991
:100B900000BF3046F8BD000070B50446002500BF18
:100BA0000CB1012C00D104E04FF467711EA000F0DD
:100BB00097F900BF00BF2A48008800F0010000B18B
:100BC00004E040F29D3118A000F08AF900BFFCB9A2
:100BD0002448007800F00700032802D16FF00505D3
:100BE00020E02048DA300068C0F3C01058B91D4832
:100BF000001D007810B96FF0050513E001201949B8
:100C00000C3108700EE0012016490C31087009E023
:100C1000002014490C3108704FF480510820FFF770
:100C2000A2FF0546284670BD2E2E5C2E2E5C2E2E71
:100C30005C2E2E5C647269766572735C6863333215
:100C40005F6C6C5F6472697665725C7372635C681A
:100C50006333325F6C6C5F636C6B2E63000000006B
:100C6000FE4305402640054070B5044614B96FF0B8
:100C700002057FE000BF2078012801D0207800B96C
:100C800004E04FF45F713CA000F02AF900BF00BF00
:100C9000607840B16078102805D06078202802D0B4
:100CA0006078302800D104E040F27D3132A000F0BD
:100CB00017F900BF00BFA07810B1A078402800D17C
:100CC00004E040F27E312CA000F00AF900BF00BF22
:100CD000E078802801D0E07800B904E040F27F316C
:100CE00025A000F0FDF800BF00BF2079012817D033
:100CF0002079022814D02079032811D020790428E3
:100D00000ED0207905280BD02079062808D020792C
:100D1000072805D02079082802D02079092800D199
:100D200004E04FF4607114A000F0DAF800BF00BFD7
:100D30001F48008800F0010000B104E040F281315A
:100D40000DA000F0CDF800BF20791A490870E078B6
:100D500061780843A178084315491231087020785A
:100D600020B90120FFF718FF054603E00020FFF738
:100D700013FF0546284670BD2E2E5C2E2E5C2E2EAF
:100D80005C2E2E5C647269766572735C68633332C4
:100D90005F6C6C5F6472697665725C7372635C68C9
:100DA0006333325F6C6C5F636C6B2E63000000001A
:100DB000FE430540A240054070470146002009B9A6
:100DC000C01E08E001220A7000228A704A70802248
:100DD000CA7005220A71704710B501F0C9FA0A20DD
:100DE00000F080F83021112000F050F8052000F0CC
:100DF00079F8C0210F2000F049F810BD08B5002097
:100E0000009001226946104600F004F89DF80000A9
:100E100008BD0000F7B50D46164642F210711A489B
:100E200001F082FC42F2107300222721164801F0E3
:100E300025FD04463CB942F210730122694612486E
:100E400001F096FD04462CB942F210710E4801F0F3
:100E50001BFC04463CB942F21073012227210A48C8
:100E600001F00CFD044644B942F2107332462946A3
:100E7000054801F041FB044604E042F210710248CB
:100E800001F0A0FC2046FEBD00E00440F8B5044699
:100E90000D468DF800408DF8015042F210710D485A
:100EA00001F042FC42F2107300222721094801F0B0
:100EB000E5FC06463EB942F2107302226946054837
:100EC00001F056FD064642F21071024801F07AFC2C
:100ED0003046F8BD00E004407047704770477047E7
:100EE00000BFFEE708B50D49096AC1F302630C496A
:100EF0000968D94041F270731944491EB1FBF3F2FD
:100F000006E0009200BF00994B1E00930029FAD121
:100F1000011EA0F10100F4D108BD00000040054011
:100F20000080FF1F08B50C49096AC1F302630B4931
:100F30000968D9400A4B1944491EB1FBF3F206E097
:100F4000009200BF00994B1E00930029FAD1011EA8
:100F5000A0F10100F4D108BD004005400080FF1F52
:100F6000808D5B00704770477047704770477047CF
:100F700070477047704770477047704770477047B9
:100F800070477047704770477047704770477047A9
:100F90007047704770B504460D4600BF0E48844246
:100FA00002D00E48844200D104E04FF4B2710CA08C
:100FB000FFF796FF00BF00BF2DB145F00F10B0F155
:100FC0000F1F00D104E040F2651105A0FFF788FF74
:100FD00000BFA56170BD0000003005400034054031
:100FE0002E2E5C2E2E5C2E2E5C2E2E5C647269766C
:100FF0006572735C686333325F6C6C5F64726976D0
:1010000065725C7372635C686333325F6C6C5F64DF
:101010006D612E63000000002DE9F04106460D468B
:1010200014464FF0000800BF5B48864202D05B4880
:10103000864200D104E04FF46B7159A0FFF750FFD6
:1010400000BF00BF032D00D804E040F2AD3154A032
:10105000FFF746FF00BF14B96FF0020898E000BF29
:10106000E06878B1E068B0F5807F03D1207900F0C6
:10107000010038B1E068B0F5007F04D1207900F0BC
:10108000030000B904E040F2B23145A0FFF728FFA9
:1010900000BF00BFE06878B1E068B0F5807F03D1A1
:1010A000207A00F0010038B1E068B0F5007F04D18B
:1010B000207A00F0030000B904E040F2B33138A018
:1010C000FFF70EFF00BF00BFA06928B1A06901288B
:1010D00002D0A069022800D104E04FF46D7130A065
:1010E000FFF7FEFE00BF00BFE06928B1E0690428F9
:1010F00002D0E069082800D104E040F2B53128A010
:10110000FFF7EEFE00BF00BF2069B0F5806F00D88A
:1011100004E040F2B63122A0FFF7E2FE00BF00BFBC
:101120002068B0F5805F01D0206800B904E040F28B
:10113000B7311BA0FFF7D4FE00BF06F1400000EB63
:1011400085106168016006F1440000EB8510A1681C
:101150000160208AC0F30900A18A40EA014106F13A
:10116000480000EB8510016006F15C0000EB85177C
:10117000E16820680843A1690843E169084341F236
:101180000F310840396841F20F329143084338600B
:101190004046BDE8F08100000030054000340540C5
:1011A0002E2E5C2E2E5C2E2E5C2E2E5C64726976AA
:1011B0006572735C686333325F6C6C5F647269760E
:1011C00065725C7372635C686333325F6C6C5F641E
:1011D0006D612E63000000000146002009B9C01EA9
:1011E0000AE000220A604A608A60CA6001220A613D
:1011F00000224A618A61CA617047000010B501216E
:101200000148FFF7C7FE10BD0030054010B5044689
:1012100000BF0CB1012C00D104E040F2711109A013
:10122000FFF75EFE00BF00BF14480068012800D130
:1012300004E04FF4B97103A0FFF752FE00BF10485D
:10124000046010BD2E2E5C2E2E5C2E2E5C2E2E5C8D
:10125000647269766572735C686333325F6C6C5F6D
:101260006472697665725C7372635C686333325F63
:101270006C6C5F65666D2E63000000000004014029
:101280004081204210B5044600BF0CB1012C00D1B2
:1012900004E040F2631109A0FFF722FE00BF00BF87
:1012A00014480068012800D104E04FF4B27103A093
:1012B000FFF716FE00BF1048046010BD2E2E5C2EF6
:1012C0002E5C2E2E5C2E2E5C647269766572735CC9
:1012D000686333325F6C6C5F6472697665725C73ED
:1012E00072635C686333325F6C6C5F65666D2E633E
:1012F00000000000000401406081204270477047F8
:101300007047000070B50446002500BF1D48006806
:10131000012800D104E040F24F111BA0FFF7E0FDCF
:1013200000BF00BFF02C00D804E04FF4A87116A055
:10133000FFF7D6FD00BF13480830006820F0F0002A
:1013400004F0F00108430F490831086010E06D1CFB
:101350001B48006AC0F302611A480068C84044F69E
:101360002061B0FBF1F0A84202D26FF0070070BD1F
:1013700004480830006800F0F000A042E7D10020E7
:10138000F5E70000000401402E2E5C2E2E5C2E2E70
:101390005C2E2E5C647269766572735C68633332AE
:1013A0005F6C6C5F6472697665725C7372635C68B3
:1013B0006333325F6C6C5F65666D2E630000000006
:1013C000004005400080FF1F70477047704770471E
:1013D0007047704770477047704770477047704755
:1013E0007047704770477047704770477047704745
:1013F00070B504460D4600BF2CB11748204316496E
:10140000884200D103E0712114A0FFF769FD00BFFD
:1014100000BF0DB1012D00D103E072210FA0FFF735
:101420005FFD00BF00BF1B48006900F0010000B174
:1014300003E0732109A0FFF753FD00BF012D05D183
:1014400014480068A0431349086004E0114800688C
:1014500020431049086070BD11C5F38F2E2E5C2EFD
:101460002E5C2E2E5C2E2E5C647269766572735C27
:10147000686333325F6C6C5F6472697665725C734B
:1014800072635C686333325F6C6C5F6663672E63A4
:10149000000000000080044070B504460D4600BF07
:1014A0002CB1114820431049884200D103E0842127
:1014B0000EA0FFF715FD00BF00BF0DB1012D00D13B
:1014C00003E0852109A0FFF70BFD00BF012D05D129
:1014D00014484068A0431349486004E0114840683C
:1014E00020431049486070BD79FD0F0F2E2E5C2EF1
:1014F0002E5C2E2E5C2E2E5C647269766572735C97
:10150000686333325F6C6C5F6472697665725C73BA
:1015100072635C686333325F6C6C5F6663672E6313
:1015200000000000008004407047704770470000D2
:101530002DE9F04104460D46904600BF254800883D
:1015400000F0010000B104E040F2812122A0FFF789
:10155000C7FC00BF00BF4CB1012C07D0022C05D046
:10156000032C03D0042C01D0052C00D104E040F260
:10157000822119A0FFF7B4FC00BF00BF15B1A8B2CB
:1015800000B104E040F2832113A0FFF7A9FC00BFE3
:10159000002719E005F0010088B10E48001D00EB9E
:1015A000841000EB8706B8F1010F04D1308840F4B5
:1015B0000040308003E03088C0F30E0030806D10B2
:1015C00005B903E0781CC7B2102FE3D300BFBDE814
:1015D000F0810000FC3B05402E2E5C2E2E5C2E2E52
:1015E0005C2E2E5C647269766572735C686333325C
:1015F0005F6C6C5F6472697665725C7372635C6861
:101600006333325F6C6C5F6770696F2E630000003C
:101610002DE9F05F05460E4614464FF0000B14B955
:101620006FF0020BD9E000BF6D48008800F00100A8
:1016300000B104E04FF480716AA0FFF751FC00BFD5
:1016400000BF4DB1012D07D0022D05D0032D03D0D1
:10165000042D01D0052D00D104E040F2011161A05C
:10166000FFF73EFC00BF00BF16B1B0B200B104E00E
:101670004FF481715BA0FFF733FC00BF00BF2088EF
:1016800010B12088012800D104E040F2031155A0D8
:10169000FFF726FC00BF00BF608810B160880228F9
:1016A00000D104E04FF482714EA0FFF719FC00BF97
:1016B00000BFA08810B1A088042800D104E040F247
:1016C000051148A0FFF70CFC00BF00BFE08828B15F
:1016D000E088102802D0E088202800D104E04FF4F0
:1016E000837140A0FFF7FCFB00BF00BF208918B149
:1016F0002089B0F5804F00D104E040F2071139A0F5
:10170000FFF7EEFB00BF00BF608910B16089402881
:1017100000D104E04FF4847132A0FFF7E1FB00BF79
:1017200000BFA08918B1A089B0F5007F00D104E006
:1017300040F209112BA0FFF7D3FB00BF00BFE089E7
:1017400018B1E089B0F5805F00D104E04FF48571F5
:1017500024A0FFF7C5FB00BF00BF208A18B1208A74
:10176000B0F5004F00D104E040F20B111DA0FFF7CF
:10177000B7FB00BF00272DE006F0010028B320884A
:1017800061880843A1880843E188084361890843C8
:10179000A1890843E1890843218940EA010A45F209
:1017A0007728208A40EA0A0A48F400480C48001DBD
:1017B00000EB851000EB8709B9F8000020EA08006B
:1017C0000AEA08010843A9F80000761006B903E008
:1017D000781CC7B2102FCFD300BF5846BDE8F09F8A
:1017E000FC3B05402E2E5C2E2E5C2E2E5C2E2E5C9D
:1017F000647269766572735C686333325F6C6C5FC8
:101800006472697665725C7372635C686333325FBD
:101810006C6C5F6770696F2E6300000070B50446E2
:101820000D4600BF4CB1012C07D0022C05D0032C73
:1018300003D0042C01D0052C00D104E04FF4FF713B
:101840000CA0FFF74DFB00BF00BF15B1A8B200B15F
:1018500004E040F2FF1107A0FFF742FB00BF13496D
:1018600001EB0410B0F80008284008B1012070BD59
:101870000020FCE72E2E5C2E2E5C2E2E5C2E2E5C85
:10188000647269766572735C686333325F6C6C5F37
:101890006472697665725C7372635C686333325F2D
:1018A0006C6C5F6770696F2E63000000003005404C
:1018B00070B504460D4600BF4CB1012C07D0022C78
:1018C00005D0032C03D0042C01D0052C00D104E05A
:1018D00040F24A210BA0FFF703FB00BF00BF15B188
:1018E000A8B200B104E040F24B2106A0FFF7F8FADD
:1018F00000BF1248102101FB0406308828433080C5
:1019000070BD00002E2E5C2E2E5C2E2E5C2E2E5CCA
:10191000647269766572735C686333325F6C6C5FA6
:101920006472697665725C7372635C686333325F9C
:101930006C6C5F6770696F2E630000000A380540A9
:1019400070B504460D4600BF24B144F01F001F28A7
:1019500000D104E04FF4B27118A0FFF7C1FA00BF44
:1019600000BF0DB1012D00D104E040F2651113A0BC
:10197000FFF7B6FA00BF00BF1E48008800F0010064
:1019800000B104E04FF4B3710CA0FFF7A9FA00BF57
:10199000012D09D117480838008804F01F010843B9
:1019A00014490839088008E012480838008804F013
:1019B0001F0188430F490839088070BD2E2E5C2E08
:1019C0002E5C2E2E5C2E2E5C647269766572735CC2
:1019D000686333325F6C6C5F6472697665725C73E6
:1019E00072635C686333325F6C6C5F6770696F2E23
:1019F00063000000FC3B05402DE9F04104460D4624
:101A0000164600BF4CB1012C07D0022C05D0032C88
:101A100003D0042C01D0052C00D104E04FF4BE719A
:101A200024A0FFF75DFA00BF00BF15B1A8B200B156
:101A300004E040F27D111FA0FFF752FA00BF00BF83
:101A40000F2E03D9202E02D33B2E00D804E04FF4F2
:101A5000BF7118A0FFF744FA00BF00BF23480088F9
:101A600000F0010000B104E040F27F1111A0FFF787
:101A700037FA00BF002717E005F0010078B11B48D6
:101A8000801D00EB841000EB8708B8F800004FF6CB
:101A9000C071084006F03F010843A8F800006D102F
:101AA00005B903E0781CC7B2102FE5D300BFBDE82D
:101AB000F08100002E2E5C2E2E5C2E2E5C2E2E5CD5
:101AC000647269766572735C686333325F6C6C5FF5
:101AD0006472697665725C7372635C686333325FEB
:101AE0006C6C5F6770696F2E63000000FC3B054003
:101AF00070B504460D4600BF4CB1012C07D0022C36
:101B000005D0032C03D0042C01D0052C00D104E017
:101B10004FF40E710BA0FFF7E3F900BF00BF15B142
:101B2000A8B200B104E040F2392106A0FFF7D8F9CD
:101B300000BF1248102101FB040630882843308082
:101B400070BD00002E2E5C2E2E5C2E2E5C2E2E5C88
:101B5000647269766572735C686333325F6C6C5F64
:101B60006472697665725C7372635C686333325F5A
:101B70006C6C5F6770696F2E630000000838054069
:101B800010B5044600BF44B1B4F5804F05D0B4F59C
:101B9000004F02D0B4F5404F00D104E04FF4ED7196
:101BA0000EA0FFF79DF900BF00BF1A48008800F0A3
:101BB000010000B104E040F2DB1108A0FFF790F94A
:101BC00000BF1448001F0088C0F30D0004F440411A
:101BD00008431049091F088010BD00002E2E5C2EFE
:101BE0002E5C2E2E5C2E2E5C647269766572735CA0
:101BF000686333325F6C6C5F6472697665725C73C4
:101C000072635C686333325F6C6C5F6770696F2E00
:101C100063000000FC3B05400146002009B9C01EDE
:101C200009E000220A804A80CA800A820A814A8129
:101C30008A81CA818A8070477047704770477047B1
:101C400070477047704770477047704770477047DC
:101C500070B504460D4600BF1148844205D01148B6
:101C6000844202D01048844200D104E04FF438711D
:101C70000EA0FFF735F900BF00BF15B1B5F5806FB5
:101C800000D104E040F2E12108A0FFF729F900BFEC
:101C9000206820F4806005F480610843206070BDF6
:101CA00000E0044000E4044000E804402E2E5C2ED6
:101CB0002E5C2E2E5C2E2E5C647269766572735CCF
:101CC000686333325F6C6C5F6472697665725C73F3
:101CD00072635C686333325F6C6C5F6932632E637E
:101CE000000000002DE9F04F8DB005460C46164669
:101CF0004FF0000A00200A90022009900020059071
:101D000004B116B96FF0020AE5E000BF77488542DA
:101D100005D07748854202D07648854200D104E05C
:101D20004FF48A7174A0FFF7DBF800BF00BF606852
:101D300020B17F496068884200D804E040F2151164
:101D40006DA0FFF7CDF800BF00BF2068072800D8BE
:101D500004E04FF48B7168A0FFF7C2F800BF75482C
:101D6000006AC0F302317448006820FA01F8217853
:101D7000012000FA01F7A0680C9060680B90286BB6
:101D800000F0100020B1286B00F00300401C0A9006
:101D9000206808B903200990002F7DD03846FEF74F
:101DA00003FB03900B98FEF7FFFA02904046FEF704
:101DB000FBFA01900299FEF765FB83460399FEF753
:101DC00061FB81460C98FEF7EFFA03900A98FEF744
:101DD000EBFA4FF080410090FEF722FB8346099812
:101DE000FEF7E2FA4FF080410090FEF719FB5946EA
:101DF0000190FEF781FA02900399FEF77DFA0790B1
:101E000048460799FEF7CAFA06904846FEF7D1FA07
:101E10000290FEF7C9FA83464946FEF7C2FA4FF030
:101E20007C510390FEF76CFB0CD84846FEF7C1FAD4
:101E30000390FEF7B9FA83464FF07E51FEF75CFA45
:101E4000814606E04846FEF7B4FA8346FEF7ACFA50
:101E5000814648460799FEF7C1FA02D86FF0020A98
:101E600039E03648049004990698FEF749FB02D2FF
:101E70006FF0020A2FE04846FEF79BFAB8FBF0F03D
:101E8000B0FBF7F008900898FEF78EFA03900898D8
:101E9000FEF78AFA029000E01BE00B98FEF784FA46
:101EA00001900299FEF77AFA83460399FEF7EAFA5F
:101EB00005900698FEF77DFA4008218840EA014B1C
:101EC0000698FEF776FAA0EB50004BEA0020E86295
:101ED00001E06FF0020A26B1BAF1000F01D10598B6
:101EE000306050460DB0BDE8F08F000000E00440C7
:101EF00000E4044000E804402E2E5C2E2E5C2E2EC2
:101F00005C2E2E5C647269766572735C6863333232
:101F10005F6C6C5F6472697665725C7372635C6837
:101F20006333325F6C6C5F6932632E6300000000C4
:101F3000801A0600004005400080FF1F0000784224
:101F400070B504460D4600BF1348844205D01348BF
:101F5000844202D01248844200D104E040F20121C0
:101F600010A0FEF7BDFF00BF00BF0DB1012D00D1D5
:101F700004E040F202210BA0FEF7B2FF00BF012DEA
:101F800004D1E06840F48060E06003E0E06820F4A1
:101F90008060E06070BD000000E0044000E40440A8
:101FA00000E804402E2E5C2E2E5C2E2E5C2E2E5C25
:101FB000647269766572735C686333325F6C6C5F00
:101FC0006472697665725C7372635C686333325FF6
:101FD0006C6C5F6932632E630000000070B50446CC
:101FE0000D4600BF0F48844205D00F48844202D0FE
:101FF0000E48844200D104E040F28D210CA0FEF78F
:102000006FFF00BF00BF2DB1174828431649884213
:1020100000D104E040F28E2105A0FEF761FF00BF71
:10202000256270BD00E0044000E4044000E8044084
:102030002E2E5C2E2E5C2E2E5C2E2E5C647269760B
:102040006572735C686333325F6C6C5F647269766F
:1020500065725C7372635C686333325F6C6C5F697A
:1020600032632E63000000005F52F00070B504463A
:102070000D4600BF0F48844205D00F48844202D06D
:102080000E48844200D104E04FF4EF710CA0FEF73B
:1020900027FF00BF00BF0DB1012D00D104E040F2C9
:1020A000DF1107A0FEF71CFF00BF206865F30000EA
:1020B000206070BD00E0044000E4044000E80440FB
:1020C0002E2E5C2E2E5C2E2E5C2E2E5C647269767B
:1020D0006572735C686333325F6C6C5F64726976DF
:1020E00065725C7372635C686333325F6C6C5F69EA
:1020F00032632E630000000010B5044600BF0D4897
:10210000844205D00C48844202D00C48844200D15D
:1021100004E04FF4AE710AA0FEF7E2FE00BF2068B3
:1021200020F001002060206840F400402060002082
:1021300010BD000000E0044000E4044000E804405A
:102140002E2E5C2E2E5C2E2E5C2E2E5C64726976FA
:102150006572735C686333325F6C6C5F647269765E
:1021600065725C7372635C686333325F6C6C5F6969
:1021700032632E630000000010B5044600BF0A4819
:10218000844205D00948844202D00948844200D1E3
:1021900003E0D42107A0FEF7A3FE00BF206840F0B3
:1021A0008000206010BD000000E0044000E4044016
:1021B00000E804402E2E5C2E2E5C2E2E5C2E2E5C13
:1021C000647269766572735C686333325F6C6C5FEE
:1021D0006472697665725C7372635C686333325FE4
:1021E0006C6C5F6932632E630000000010B504461A
:1021F00000BF0A48844205D00948844202D00948F9
:10220000844200D103E0C72107A0FEF769FE00BFAA
:10221000206840F48070206010BD000000E00440A1
:1022200000E4044000E804402E2E5C2E2E5C2E2E8E
:102230005C2E2E5C647269766572735C68633332FF
:102240005F6C6C5F6472697665725C7372635C6804
:102250006333325F6C6C5F6932632E630000000091
:1022600010B5044600BF0A48844205D0094884429C
:1022700002D00948844200D103E0E12107A0FEF723
:102280002FFE00BF206840F40070206010BD0000E9
:1022900000E0044000E4044000E804402E2E5C2EE0
:1022A0002E5C2E2E5C2E2E5C647269766572735CD9
:1022B000686333325F6C6C5F6472697665725C73FD
:1022C00072635C686333325F6C6C5F6932632E6388
:1022D0000000000070B504460D4600BF124884425D
:1022E00005D01248844202D01148844200D104E053
:1022F0004FF41F710FA0FEF7F3FD00BF00BF2DB11B
:102300001A4828431949884200D104E040F27D214F
:1023100008A0FEF7E5FD00BFE069284008B10120F4
:1023200070BD0020FCE7000000E0044000E4044031
:1023300000E804402E2E5C2E2E5C2E2E5C2E2E5C91
:10234000647269766572735C686333325F6C6C5F6C
:102350006472697665725C7372635C686333325F62
:102360006C6C5F6932632E6300000000DF56F7007B
:1023700000B589B001211020FFF78EF804A8FFF7FF
:102380004BFC2020ADF816000220ADF812004020D2
:10239000ADF81A000420ADF8140004AA0121084683
:1023A000FFF736F904AA80210020FFF731F9312226
:1023B00001210846FFF720FB302280210020FFF793
:1023C0001BFB0D48FFF798FE01A800F04BFA002018
:1023D00001900A480290002003906A4601A906482D
:1023E00000F00EF801210448FFF7AAFD0121024880
:1023F000FFF73CFE09B000BD00E00440A0860100EC
:102400002DE9F04104460D46174615B96FF0020656
:102410004BE000BF2648844205D02648844202D0C3
:102420002548844200D104E04FF4C47123A0FEF794
:1024300057FD00BF00BF686820B12E496868884218
:1024400000D804E040F289111CA0FEF749FD00BF4E
:1024500000BF2868072800D804E04FF4C57117A012
:10246000FEF73EFD00BF206820F0010020602068DC
:1024700040F400402060206840F0010020603A46AF
:1024800029462046FFF72EFC0646206820F0400033
:102490002060206820F400402060206820F00100C7
:1024A0002060206920F4805020613046BDE8F08132
:1024B00000E0044000E4044000E804402E2E5C2EBE
:1024C0002E5C2E2E5C2E2E5C647269766572735CB7
:1024D000686333325F6C6C5F6472697665725C73DB
:1024E00072635C686333325F6C6C5F6932632E6366
:1024F00000000000801A06002DE9F04706460F464E
:10250000154699464FF0000800BF3248864205D074
:102510003148864202D03148864200D104E04FF46F
:102520008C612FA0FEF7DCFC00BF002F4CD0B06800
:1025300000F0800A00243FE04B4601224021304653
:1025400000F07EFA8046BAF1000F0AD1022D15D3B1
:10255000A81EA04212D14FF480613046FFF778FBED
:102560000CE0681EA04204D000213046FFF770FB4B
:1025700004E04FF480613046FFF76AFBB8F1000FCA
:1025800018D1681EA04206D110213046FFF726FD63
:102590003046FFF765FE304600F03EF83855681EBD
:1025A000A04208D14B4601221021304600F048FAE3
:1025B000804600E002E0641CAC42BDD300BF0021B5
:1025C0003046FFF745FB01E06FF002084046BDE8EA
:1025D000F087000000E0044000E4044000E804400C
:1025E0002E2E5C2E2E5C2E2E5C2E2E5C6472697656
:1025F0006572735C686333325F6C6C5F64726976BA
:1026000065725C7372635C686333325F6C6C5F69C4
:1026100032632E630000000010B5044600BF094875
:10262000844205D00848844202D00848844200D140
:1026300004E040F2D12106A0FEF752FC00BF94F85E
:10264000280010BD00E0044000E4044000E804401D
:102650002E2E5C2E2E5C2E2E5C2E2E5C64726976E5
:102660006572735C686333325F6C6C5F6472697649
:1026700065725C7372635C686333325F6C6C5F6954
:1026800032632E630000000070B504460E4600BFA2
:102690001348844205D01348844202D01248844231
:1026A00000D104E040F2693110A0FEF719FC00BF30
:1026B000334601225104204600F0C2F905466DB9A7
:1026C00001212046FFF78AFC2046FFF755FD3346DF
:1026D00001221449204600F0B3F90546284670BD92
:1026E00000E0044000E4044000E804402E2E5C2E8C
:1026F0002E5C2E2E5C2E2E5C647269766572735C85
:10270000686333325F6C6C5F6472697665725C73A8
:1027100072635C686333325F6C6C5F6932632E6333
:10272000000000000100020070B504460E4600BF24
:102730001248844205D01248844202D01148844293
:1027400000D104E040F24D310FA0FEF7C9FB00BFFD
:10275000334600224FF40031204600F071F905465F
:102760004DB92046FFF742FD334601221449204669
:1027700000F066F90546284670BD000000E0044000
:1027800000E4044000E804402E2E5C2E2E5C2E2E29
:102790005C2E2E5C647269766572735C686333329A
:1027A0005F6C6C5F6472697665725C7372635C689F
:1027B0006333325F6C6C5F6932632E63000000002C
:1027C0000100020070B504460D4600BF1448844263
:1027D00005D01448844202D01348844200D104E05A
:1027E00040F29B4111A0FEF77BFB00BF04E01021EB
:1027F0002046FFF7F3FB6D1E10212046FFF76AFD10
:10280000012801D1002DF2D12046FFF729FD2B46EA
:1028100001221021204600F013F90646304670BD13
:1028200000E0044000E4044000E804402E2E5C2E4A
:102830002E5C2E2E5C2E2E5C647269766572735C43
:10284000686333325F6C6C5F6472697665725C7367
:1028500072635C686333325F6C6C5F6932632E63F2
:10286000000000000146002009B9C01E05E04CF23E
:1028700050324A6000228A600A6070472DE9F041B8
:1028800005460F461446984600BF2848854205D0A5
:102890002748854202D02748854200D104E040F213
:1028A0008A3125A0FEF71CFB00BF00BF0CB1012C34
:1028B00000D104E040F28B311FA0FEF711FB00BFF6
:1028C00000BF7F2F00D804E04FF463711AA0FEF719
:1028D00007FB00BF434601228021284600F0B0F8E4
:1028E0000646FEB9780644EA1061284600F014F95D
:1028F0003CB9434601220821284600F0A1F80646CB
:1029000007E0434600224FF48021284600F098F863
:1029100006463EB94FF480512846FFF7DBFC0128FC
:1029200000D1861E3046BDE8F081000000E0044082
:1029300000E4044000E804402E2E5C2E2E5C2E2E77
:102940005C2E2E5C647269766572735C68633332E8
:102950005F6C6C5F6472697665725C7372635C68ED
:102960006333325F6C6C5F6932632E63000000007A
:102970002DE9F84304460D461746984600260020E8
:10298000009000BF1D48844205D01D48844202D0FB
:102990001C48844200D104E040F2FE311AA0FEF748
:1029A0009FFA00BF2DB31EE043460122802120463E
:1029B00000F046F80646B6B90098295C204600F0BB
:1029C000ABF8434601220821204600F039F80646BC
:1029D0004FF480512046FFF77DFC012800D107E02D
:1029E0000098401C00900098B84201D0002EDBD027
:1029F00001E06FF002063046BDE8F88300E00440D5
:102A000000E4044000E804402E2E5C2E2E5C2E2EA6
:102A10005C2E2E5C647269766572735C6863333217
:102A20005F6C6C5F6472697665725C7372635C681C
:102A30006333325F6C6C5F6932632E6300000000A9
:102A40002DE9F04704460D4616461F466FF007096C
:102A500000BF1F48844205D01E48844202D01E4851
:102A6000844200D103E0AB211CA0FEF739FA00BF7D
:102A700000BF2DB1274828432649884200D103E0F2
:102A8000AC2116A0FEF72CFA00BF00BF0EB1012E3C
:102A900000D103E0AD2111A0FEF722FA00BF00BF74
:102AA000E06900EA0508012E01D1454503D026B9A9
:102AB000B8F1000F01D14FF00009B9F1000F00D0BB
:102AC00007B901E07F1EEBE700BF4846BDE8F0878D
:102AD00000E0044000E4044000E804402E2E5C2E98
:102AE0002E5C2E2E5C2E2E5C647269766572735C91
:102AF000686333325F6C6C5F6472697665725C73B5
:102B000072635C686333325F6C6C5F6932632E633F
:102B100000000000DF56F70070B504460D4600BF08
:102B20000948844205D00948844202D008488442BA
:102B300000D104E040F2C32106A0FEF7D1F900BFA6
:102B400084F8245070BD000000E0044000E404401C
:102B500000E804402E2E5C2E2E5C2E2E5C2E2E5C69
:102B6000647269766572735C686333325F6C6C5F44
:102B70006472697665725C7372635C686333325F3A
:102B80006C6C5F6932632E63000000007047704711
:102B9000704770477047704770477047704770477D
:102BA0007047704770B5044600260CB9F61E4BE01E
:102BB00000BF2088B0F5007F00DA03E0CD2123A01C
:102BC000FEF78EF900BF2088400900EB400020216D
:102BD00001EB4000B4F9021088420AD8208840096D
:102BE00000EB4000252101EB4000B4F902108842BF
:102BF00006D2B4F90200202802D36FF0020623E0C7
:102C000060882149042212FB00152868C0F30800DF
:102C100040F2FF11884208D120882860B4F90210E0
:102C20001A4A606842F821000EE020882968C1F342
:102C30000801884206D1B4F90210144A606842F8CB
:102C4000210001E06FF00106304670BD2E2E5C2E93
:102C50002E5C2E2E5C2E2E5C647269766572735C1F
:102C6000686333325F6C6C5F6472697665725C7343
:102C700072635C686333325F6C6C5F696E7465723B
:102C800072757074732E63005C1005403880FF1FEE
:102C900010B5034908688047BFF34F8F10BD00008F
:102CA0003880FF1F10B5034948688047BFF34F8F36
:102CB00010BD00003880FF1F10B5034988688047A9
:102CC000BFF34F8F10BD00003880FF1F10B50349C0
:102CD000C8688047BFF34F8F10BD00003880FF1FCA
:102CE00010B5034908698047BFF34F8F10BD00003E
:102CF0003880FF1F10B5034948698047BFF34F8FE5
:102D000010BD00003880FF1F10B503498869804757
:102D1000BFF34F8F10BD00003880FF1F10B503496F
:102D2000C8698047BFF34F8F10BD00003880FF1F78
:102D300010B50349086A8047BFF34F8F10BD0000EC
:102D40003880FF1F10B50349486A8047BFF34F8F93
:102D500010BD00003880FF1F10B50349886A804706
:102D6000BFF34F8F10BD00003880FF1F10B503491F
:102D7000C86A8047BFF34F8F10BD00003880FF1F27
:102D800010B50349086B8047BFF34F8F10BD00009B
:102D90003880FF1F10B50349486B8047BFF34F8F42
:102DA00010BD00003880FF1F10B50349886B8047B5
:102DB000BFF34F8F10BD00003880FF1F10B50349CF
:102DC000C86B8047BFF34F8F10BD00003880FF1FD6
:102DD00010B50349086C8047BFF34F8F10BD00004A
:102DE0003880FF1F10B50349486C8047BFF34F8FF1
:102DF00010BD00003880FF1F10B50349886C804764
:102E0000BFF34F8F10BD00003880FF1F10B503497E
:102E1000C86C8047BFF34F8F10BD00003880FF1F84
:102E200010B50349086D8047BFF34F8F10BD0000F8
:102E30003880FF1F10B50349486D8047BFF34F8F9F
:102E400010BD00003880FF1F10B50349886D804712
:102E5000BFF34F8F10BD00003880FF1F10B503492E
:102E6000C86D8047BFF34F8F10BD00003880FF1F33
:102E700010B50349086E8047BFF34F8F10BD0000A7
:102E80003880FF1F10B50349486E8047BFF34F8F4E
:102E900010BD00003880FF1F10B50349886E8047C1
:102EA000BFF34F8F10BD00003880FF1F10B50349DE
:102EB000C86E8047BFF34F8F10BD00003880FF1FE2
:102EC00010B50349086F8047BFF34F8F10BD000056
:102ED0003880FF1F10B50349486F8047BFF34F8FFD
:102EE00010BD00003880FF1F10B50349886F804770
:102EF000BFF34F8F10BD00003880FF1F10B503498E
:102F0000C86F8047BFF34F8F10BD00003880FF1F90
:102F100010B50349D1F880008047BFF34F8F10BD33
:102F20003880FF1F10B50349D1F884008047BFF3F4
:102F30004F8F10BD3880FF1F10B50349D1F88800AE
:102F40008047BFF34F8F10BD3880FF1F10B5034976
:102F5000D1F88C008047BFF34F8F10BD3880FF1F22
:102F600010B50349D1F890008047BFF34F8F10BDD3
:102F70003880FF1F10B50349D1F894008047BFF394
:102F80004F8F10BD3880FF1F10B50349D1F898004E
:102F90008047BFF34F8F10BD3880FF1F10B5034926
:102FA000D1F89C008047BFF34F8F10BD3880FF1FC2
:102FB00010B50349D1F8A0008047BFF34F8F10BD73
:102FC0003880FF1F10B50349D1F8A4008047BFF334
:102FD0004F8F10BD3880FF1F10B50349D1F8A800EE
:102FE0008047BFF34F8F10BD3880FF1F10B50349D6
:102FF000D1F8AC008047BFF34F8F10BD3880FF1F62
:1030000010B50349D1F8B0008047BFF34F8F10BD12
:103010003880FF1F10B50349D1F8B4008047BFF3D3
:103020004F8F10BD3880FF1F10B50349D1F8B8008D
:103030008047BFF34F8F10BD3880FF1F10B5034985
:10304000D1F8BC008047BFF34F8F10BD3880FF1F01
:1030500010B50349D1F8C0008047BFF34F8F10BDB2
:103060003880FF1F10B50349D1F8C4008047BFF373
:103070004F8F10BD3880FF1F10B50349D1F8C8002D
:103080008047BFF34F8F10BD3880FF1F10B5034935
:10309000D1F8CC008047BFF34F8F10BD3880FF1FA1
:1030A00010B50349D1F8D0008047BFF34F8F10BD52
:1030B0003880FF1F10B50349D1F8D4008047BFF313
:1030C0004F8F10BD3880FF1F10B50349D1F8D800CD
:1030D0008047BFF34F8F10BD3880FF1F10B50349E5
:1030E000D1F8DC008047BFF34F8F10BD3880FF1F41
:1030F00010B50349D1F8E0008047BFF34F8F10BDF2
:103100003880FF1F10B50349D1F8E4008047BFF3B2
:103110004F8F10BD3880FF1F10B50349D1F8E8006C
:103120008047BFF34F8F10BD3880FF1F10B5034994
:10313000D1F8EC008047BFF34F8F10BD3880FF1FE0
:1031400010B50349D1F8F0008047BFF34F8F10BD91
:103150003880FF1F10B50349D1F8F4008047BFF352
:103160004F8F10BD3880FF1F10B50349D1F8F8000C
:103170008047BFF34F8F10BD3880FF1F10B5034944
:10318000D1F8FC008047BFF34F8F10BD3880FF1F80
:1031900010B50349D1F800018047BFF34F8F10BD30
:1031A0003880FF1F10B50349D1F804018047BFF3F1
:1031B0004F8F10BD3880FF1F10B50349D1F80801AB
:1031C0008047BFF34F8F10BD3880FF1F10B50349F4
:1031D000D1F80C018047BFF34F8F10BD3880FF1F1F
:1031E00010B50349D1F810018047BFF34F8F10BDD0
:1031F0003880FF1F10B50349D1F814018047BFF391
:103200004F8F10BD3880FF1F10B50349D1F818014A
:103210008047BFF34F8F10BD3880FF1F10B50349A3
:10322000D1F81C018047BFF34F8F10BD3880FF1FBE
:1032300010B50349D1F820018047BFF34F8F10BD6F
:103240003880FF1F10B50349D1F824018047BFF330
:103250004F8F10BD3880FF1F10B50349D1F82801EA
:103260008047BFF34F8F10BD3880FF1F10B5034953
:10327000D1F82C018047BFF34F8F10BD3880FF1F5E
:1032800010B50349D1F830018047BFF34F8F10BD0F
:103290003880FF1F10B50349D1F834018047BFF3D0
:1032A0004F8F10BD3880FF1F10B50349D1F838018A
:1032B0008047BFF34F8F10BD3880FF1F10B5034903
:1032C000D1F83C018047BFF34F8F10BD3880FF1FFE
:1032D00010B50349D1F840018047BFF34F8F10BDAF
:1032E0003880FF1F10B50349D1F844018047BFF370
:1032F0004F8F10BD3880FF1F10B50349D1F848012A
:103300008047BFF34F8F10BD3880FF1F10B50349B2
:10331000D1F84C018047BFF34F8F10BD3880FF1F9D
:1033200010B50349D1F850018047BFF34F8F10BD4E
:103330003880FF1F10B50349D1F854018047BFF30F
:103340004F8F10BD3880FF1F10B50349D1F85801C9
:103350008047BFF34F8F10BD3880FF1F10B5034962
:10336000D1F85C018047BFF34F8F10BD3880FF1F3D
:1033700010B50349D1F860018047BFF34F8F10BDEE
:103380003880FF1F10B50349D1F864018047BFF3AF
:103390004F8F10BD3880FF1F10B50349D1F8680169
:1033A0008047BFF34F8F10BD3880FF1F10B5034912
:1033B000D1F86C018047BFF34F8F10BD3880FF1FDD
:1033C00010B50349D1F870018047BFF34F8F10BD8E
:1033D0003880FF1F10B50349D1F874018047BFF34F
:1033E0004F8F10BD3880FF1F10B50349D1F8780109
:1033F0008047BFF34F8F10BD3880FF1F10B50349C2
:10340000D1F87C018047BFF34F8F10BD3880FF1F7C
:1034100010B50349D1F880018047BFF34F8F10BD2D
:103420003880FF1F10B50349D1F884018047BFF3EE
:103430004F8F10BD3880FF1F10B50349D1F88801A8
:103440008047BFF34F8F10BD3880FF1F10B5034971
:10345000D1F88C018047BFF34F8F10BD3880FF1F1C
:1034600010B50349D1F890018047BFF34F8F10BDCD
:103470003880FF1F10B50349D1F894018047BFF38E
:103480004F8F10BD3880FF1F10B50349D1F8980148
:103490008047BFF34F8F10BD3880FF1F10B5034921
:1034A000D1F89C018047BFF34F8F10BD3880FF1FBC
:1034B00010B50349D1F8A0018047BFF34F8F10BD6D
:1034C0003880FF1F10B50349D1F8A4018047BFF32E
:1034D0004F8F10BD3880FF1F10B50349D1F8A801E8
:1034E0008047BFF34F8F10BD3880FF1F10B50349D1
:1034F000D1F8AC018047BFF34F8F10BD3880FF1F5C
:1035000010B50349D1F8B0018047BFF34F8F10BD0C
:103510003880FF1F10B50349D1F8B4018047BFF3CD
:103520004F8F10BD3880FF1F10B50349D1F8B80187
:103530008047BFF34F8F10BD3880FF1F10B5034980
:10354000D1F8BC018047BFF34F8F10BD3880FF1FFB
:1035500010B50349D1F8C0018047BFF34F8F10BDAC
:103560003880FF1F10B50349D1F8C4018047BFF36D
:103570004F8F10BD3880FF1F10B50349D1F8C80127
:103580008047BFF34F8F10BD3880FF1F10B5034930
:10359000D1F8CC018047BFF34F8F10BD3880FF1F9B
:1035A00010B50349D1F8D0018047BFF34F8F10BD4C
:1035B0003880FF1F10B50349D1F8D4018047BFF30D
:1035C0004F8F10BD3880FF1F10B50349D1F8D801C7
:1035D0008047BFF34F8F10BD3880FF1F10B50349E0
:1035E000D1F8DC018047BFF34F8F10BD3880FF1F3B
:1035F00010B50349D1F8E0018047BFF34F8F10BDEC
:103600003880FF1F10B50349D1F8E4018047BFF3AC
:103610004F8F10BD3880FF1F10B50349D1F8E80166
:103620008047BFF34F8F10BD3880FF1F10B503498F
:10363000D1F8EC018047BFF34F8F10BD3880FF1FDA
:1036400010B50349D1F8F0018047BFF34F8F10BD8B
:103650003880FF1F10B50349D1F8F4018047BFF34C
:103660004F8F10BD3880FF1F10B50349D1F8F80106
:103670008047BFF34F8F10BD3880FF1F10B503493F
:10368000D1F8FC018047BFF34F8F10BD3880FF1F7A
:1036900010B55248046852480068012804D104F06B
:1036A000010008B1FDF794FE4D48001D0068012897
:1036B00004D104F0020008B1FDF78BFE4848083041
:1036C0000068012804D104F0040008B1FDF782FE6F
:1036D00043480C300068012804D104F0080008B108
:1036E000FDF779FE3E4810300068012804D104F04F
:1036F000100008B1FDF770FE394814300068012849
:1037000004D104F0200008B1FDF767FE34481830FA
:103710000068012804D104F0400008B1FDF75EFE06
:103720002F481C300068012804D104F0800008B143
:10373000FDF755FE2A4820300068012804D104F422
:10374000807008B1FDF74CFE254824300068012840
:1037500004D104F4007008B1FDF743FE204828307E
:103760000068012804D104F4806008B1FDF73AFE36
:103770001B482C300068012804D104F4006008B113
:10378000FDF731FE164830300068012804D104F4FA
:10379000805008B1FDF728FE114834300068012838
:1037A00004D104F4005008B1FDF71FFE0C48383076
:1037B0000068012804D104F4804008B1FDF716FE2A
:1037C00007483C300068012804D104F4004008B1E7
:1037D000FDF70DFEBFF34F8F10BD00005C120540DA
:1037E000800AA24270B5FE480468FE48D0F8B00BCB
:1037F00001282BD1FC48006840B9FC48006801282A
:1038000004D104F0010008B1FDF7B4FBF6484030E4
:10381000006848B9F54840300068012804D104F434
:10382000807008B1FDF79EFBF148406800F001167A
:10383000EF48C1684FF0011020EA010506EA0500D3
:1038400020B104F4803008B1FDF790FBE948006B2B
:1038500001282DD1E448001D006848B9E348001D47
:103860000068012804D104F0020008B1FDF783FBD1
:10387000DD484430006848B9DC484430006801281D
:1038800004D104F4007008B1FDF76DFBD84840681E
:1038900000F00216D648C1684FF0021020EA010578
:1038A00006EA050020B104F4803008B1FDF75FFBA3
:1038B000D148006B01282DD1CB480830006848B9A9
:1038C000CA4808300068012804D104F0040008B197
:1038D000FDF752FBC4484830006848B9C348483037
:1038E0000068012804D104F4806008B1FDF73CFBB6
:1038F000BF48406800F00416BD48C1684FF004108E
:1039000020EA010506EA050020B104F4803008B180
:10391000FDF72EFBB948006B01282DD1B2480C30C1
:10392000006848B9B1480C300068012804D104F09F
:10393000080008B1FDF721FBAB484C30006848B9DE
:10394000AA484C300068012804D104F4006008B192
:10395000FDF70BFBA648406800F00816A448C168B4
:103960004FF0081020EA010506EA050020B104F432
:10397000803008B1FDF7FDFAA148006801282CD17C
:10398000A048006840B9A0480068012804D104F0AC
:10399000100008B1FDF7FAFA9A484030006848B9BB
:1039A000994840300068012804D104F4805008B1DF
:1039B000FDF7E4FA9548006800F0011693480830D6
:1039C00001684FF0011020EA010506EA050020B168
:1039D00004F4003008B1FDF7D5FA8D48006B0128DA
:1039E0002ED18848001D006848B98748001D00682E
:1039F000012804D104F0200008B1FDF7C8FA81487D
:103A00004430006848B9794844300068012804D13E
:103A100004F4005008B1FDF7B2FA7C48006800F0E9
:103A200002167A48083001684FF0021020EA0105BA
:103A300006EA050020B104F4003008B1FDF7A3FA4E
:103A40007448006B01282ED16E480830006848B9D0
:103A50006D4808300068012804D104F0400008B126
:103A6000FDF796FA67484830006848B95F48483023
:103A70000068012804D104F4804008B1FDF780FA01
:103A80006248006800F004166048083001684FF092
:103A9000041020EA010506EA050020B104F4003014
:103AA00008B1FDF771FA5C48006B01282ED155482A
:103AB0000C30006848B954480C300068012804D123
:103AC00004F0800008B1FDF764FA4E484C300068FD
:103AD00048B946484C300068012804D104F400403D
:103AE00008B1FDF74EFA4948006800F0081647484B
:103AF000083001684FF0081020EA010506EA0500C9
:103B000020B104F4003008B1FDF73FFA43480068E3
:103B1000012809D14248006800F00F0020B104F4E8
:103B2000802008B1FDF7ECFB3C4808300068012814
:103B300009D13A48EC380068012804D104F4002087
:103B400008B1FDF7DBFB3548001D0068012809D1ED
:103B50003248F0380068012804D104F4801008B11C
:103B6000FDF7CDFB4FF01C40C06800F0800020B195
:103B700004F4800008B101F066FF2A48C06F0128F4
:103B80000CD129488669456806EA050000F07F00E7
:103B900020B104F4000008B1FDF79EF92348C06F7E
:103BA00001280ED12248066821481438056806EA23
:103BB000050000F07F0020B104F0807008B1FDF72F
:103BC0008CF91C48C06F01283ED11B4806681A4872
:103BD0001438056806EA050000F07F0070B32EE097
:103BE000601205400000A6420002A6420001A64263
:103BF000003005408013A642801BA6428023A642C7
:103C0000B08BA6420082A6420081A6420434054041
:103C10008093A642809BA64280A3A64200832042B6
:103C2000100401400000A442002005400080A4428E
:103C3000182405400000A5421828054004E004F0BF
:103C4000007008B1FDF74AF90A48C06F01280ED18B
:103C50000948066808481438056806EA050000F0B7
:103C60007F0020B104F0806008B1FDF738F9BFF3A0
:103C70004F8F70BD0080A542182C054010B532480A
:103C800004683248D0F80802012808D1304800689A
:103C9000012804D104F0010008B102F0ABFE2C4869
:103CA00038380068012809D12948403000680128C7
:103CB00004D104F0020008B102F09DFE254800681E
:103CC000012809D1234878300068012804D104F084
:103CD000040008B102F090FE1E4840300068012840
:103CE00009D11C48B8300068012804D104F008004C
:103CF00008B102F082FE1848007800F0010050B1CF
:103D00001548401C007800F0010020B104F40010B8
:103D100008B1FDF751F81148008800F48050B0F563
:103D2000805F04D104F4800008B101F08BFE0C48E0
:103D3000006800F4403020B104F4000008B102F043
:103D400029FBBFF34F8F10BD6412054000004842AD
:103D500080024842088248424040054000C4044076
:103D60000494044070B5AA480468AA480068012871
:103D700008D1A9480068012804D104F0010008B165
:103D800002F05DFEA348001D0068012809D1A24889
:103D9000001D0068012804D104F0020008B102F0FF
:103DA0004FFE9C4808300068012809D19A48083025
:103DB0000068012804D104F0040008B102F041FEBB
:103DC00094480C300068012809D193480C300068F1
:103DD000012804D104F0080008B102F033FE8D4838
:103DE00010300068012809D18B4810300068012884
:103DF00004D104F0100008B102F025FE854814300B
:103E00000068012809D1844814300068012804D1D1
:103E100004F0200008B102F017FE7E481830006858
:103E2000012809D17C4818300068012804D104F029
:103E3000400008B102F00AFE76481C3000680128F4
:103E400009D175481C300068012804D104F08000B5
:103E500008B102F0FCFD6F4820300068012809D14C
:103E60006D4820300068012804D104F4807008B146
:103E700002F0EBFD6948406D00F44030C609674828
:103E8000006F00F4C06506EA050020B104F400608C
:103E900008B102F0DDFD6148406D00F44020C60924
:103EA0005E48006F00F4C05506EA050020B104F436
:103EB000805008B102F0CDFD59480068012808D1B2
:103EC00058480068012804D104F4803008B102F099
:103ED000C1FD5348001D0068012809D15148001D4B
:103EE0000068012804D104F4003008B102F0B3FDE9
:103EF0004B4808300068012809D14A48083000685A
:103F0000012804D104F4802008B102F0A5FD444842
:103F10000C300068012809D142480C3000680128A3
:103F200004D104F4002008B102F097FD3C481030A1
:103F30000068012809D13B4810300068012804D1ED
:103F400004F4801008B102F089FD3548143000688F
:103F5000012809D1334814300068012804D104F441
:103F6000001008B102F07BFD2D48183000680128D0
:103F700009D12C4818300068012804D104F48000CD
:103F800008B102F06EFD26481C300068012809D1F6
:103F900024481C300068012804D104F4000008B152
:103FA00002F060FD1E4820300068012809D11D483C
:103FB00020300068012804D104F0807008B102F0BC
:103FC0004FFD1948006800F44030C60916481C30FF
:103FD000006800F4C06506EA050020B104F0006046
:103FE00008B102F040FD1048006800F44020C60906
:103FF0000D481C30006800F4C05506EA050020B1E9
:1040000004F0805008B102F02FFDBFF34F8F70BD58
:1040100068120540800A3042000E304200800140A4
:10402000808A3042008E30425484014070B55B4833
:1040300004685B480068012808D15A4800680128D4
:1040400004D104F0010008B102F00FFD5448001D36
:104050000068012809D15348001D0068012804D1D7
:1040600004F0020008B102F001FD4D48083000687C
:10407000012809D14B4808300068012804D104F018
:10408000040008B102F0F3FC45480C300068012838
:1040900009D144480C300068012804D104F008001C
:1040A00008B102F0E5FC3E4810300068012809D153
:1040B0003C4810300068012804D104F0100008B119
:1040C00002F0D7FC364814300068012809D1354881
:1040D00014300068012804D104F0200008B102F077
:1040E000C9FC2F4818300068012809D12D48183024
:1040F0000068012804D104F0400008B102F0BCFCC3
:1041000027481C300068012809D126481C30006867
:10411000012804D104F0800008B102F0AEFC204870
:1041200020300068012809D11E482030006801288D
:1041300004D104F4807008B102F09DFC1A480068B4
:1041400000F44030C60918481C30006800F4C0650F
:1041500006EA050040B104F4006008B1012000E067
:10416000002008B102F08AFC0F48006800F44020EB
:10417000C6090D481C30006800F4C05506EA050069
:1041800040B104F4805008B1012000E0002008B1E3
:1041900002F075FCBFF34F8F70BD00006C1205403C
:1041A000800A3142000E31425488014070B5BE4849
:1041B0000468BE480069012808D1BC48806901280C
:1041C00004D104F0010008B102F05BFCB74840697B
:1041D000012808D1B548C069012804D104F00200C3
:1041E00008B102F04FFCB2480688B1489038B0F8E8
:1041F0009C5006EA0500C0B220B104F0040008B1EA
:1042000002F03EFCAB480069012808D1A94880694A
:10421000012804D104F0080008B102F035FCA548DB
:104220004069012808D1A348C069012804D104F0DD
:10423000100008B102F029FC9F4806889E480C3007
:10424000058806EA0500C0B220B104F0200008B1DC
:1042500002F019FC99480069012808D19748806943
:10426000012804D104F0400008B102F010FC93488A
:104270004069012808D19148C069012804D104F09F
:10428000800008B102F004FC8D4806888C480C3090
:10429000058806EA0500C0B220B104F4807008B1B8
:1042A00002F0F4FB87480069012808D1854880693D
:1042B000012804D104F4007008B102F0EBFB81483E
:1042C0004069012808D17F48C069012804D104F45D
:1042D000806008B102F0DFFB7B4806887A480C302A
:1042E000058806EA0500C0B220B104F4006008B1F8
:1042F00002F0CFFB75480069012808D17348806936
:10430000012804D104F4805008B102F0C6FB6F48C4
:104310004069012808D16D48C069012804D104F41E
:10432000005008B102F0BAFB694806886848903826
:10433000B0F89C5006EA0500C0B220B104F48040F9
:1043400008B102F0A9FB63480069012808D161485F
:104350008069012804D104F4803008B102F0A0FB88
:104360005C484069012808D15A48C069012804D135
:1043700004F4003008B102F094FB57480688564810
:104380000C30058806EA0500C0B220B104F4802094
:1043900008B102F084FB51480068012810D1504850
:1043A0008069504900EA01064D48406900EA01056C
:1043B00006EA050020B104F4002008B102F086FBF3
:1043C00049480668C56805F0200038B106F00B00C2
:1043D00020B104F4800008B102F064FB05EA060095
:1043E00000F0200020B104F4000008B102F05BFBF3
:1043F00005EA060000F0800020B104F0807008B1EA
:1044000002F054FB05EA060000F0400020B104F081
:10441000007008B102F049FB05F0020038B106F463
:10442000807020B104F0806008B102F03DFB2F489D
:1044300006682E480C30056805F0200038B106F0FB
:104440000B0020B104F0006008B102F030FB05EA77
:10445000060000F0200020B104F0805008B102F006
:1044600027FB05EA060000F0800020B104F00050B0
:1044700008B102F020FB05EA060000F0400020B180
:1044800004F0804008B102F015FB05F0020038B1DD
:1044900006F4807020B104F0004008B102F009FB7E
:1044A000BFF34F8F70BD00007C12054020102A42E0
:1044B0009050014020902A429054014020102B42FD
:1044C0009058014020902B42905C014020102C42DB
:1044D0009060014020902C42906401400001804394
:1044E00000000C40FBFC7CF700D0014000D40140F0
:1044F00070B59A4805689A480468C66806F02000B6
:1045000038B104F00B0020B105F0010008B102F051
:10451000D3FA06EA040000F0200020B105F0020002
:1045200008B102F0CAFA06EA040000F0800020B1E7
:1045300005F0040008B102F0C3FA06EA040000F036
:10454000400020B105F0080008B102F0B8FA06F00A
:10455000020038B104F4807020B105F0100008B1F9
:1045600002F0ACFA7F4804687E480C30066806F01A
:10457000200038B104F00B0020B105F0200008B194
:1045800002F09FFA06EA040000F0200020B105F0D6
:10459000400008B102F096FA06EA040000F080003C
:1045A00020B105F0800008B102F08FFA06EA04009D
:1045B00000F0400020B105F4807008B102F084FAE8
:1045C00006F0020038B104F4807020B105F40070E8
:1045D00008B102F078FA64484468466904F48060DF
:1045E00038B106F0800020B105F4006008B101F098
:1045F0002FFA04F4007038B106F0200020B105F461
:10460000805008B101F025FA04F4006038B106F0DA
:10461000020020B905F4005008B101F018FA04F4C2
:10462000807038B106F01D0020B105F4804008B15B
:1046300001F00CFA4D4804684C481030066804F448
:10464000806038B106F0800020B105F4803008B1F8
:1046500001F002FA04F4007038B106F0200020B135
:1046600005F4003008B101F0F8F904F4006038B145
:1046700006F0020020B905F4802008B101F0EBF942
:1046800004F4807038B106F01D0020B105F400205C
:1046900008B101F0DFF936484468466904F48060E7
:1046A00038B106F0800020B105F4001008B101F027
:1046B000D7F904F4007038B106F0200020B105F4F9
:1046C000800008B101F0CDF904F4006038B106F0C3
:1046D000020020B905F4000008B101F0C0F904F4AB
:1046E000807038B106F01D0020B105F0807008B16F
:1046F00001F0B4F91F4804681E481030066804F43D
:10470000806038B106F0800020B105F0806008B10B
:1047100001F0AAF904F4007038B106F0200020B1CD
:1047200005F0006008B101F0A0F904F4006038B1B0
:1047300006F0020020B905F0805008B101F093F9AD
:1047400004F4807038B106F01D0020B105F000506F
:1047500008B101F087F9BFF34F8F70BD801205409B
:10476000001002400014024000C0014004C4014097
:10477000000002400404024070B58848056888487B
:10478000048B05F0010038B104F0100020B104F0F2
:10479000400008B102F032F905F0020038B104F02F
:1047A000200020B104F0800008B102F028F97C4814
:1047B000848B05F0040038B104F0100020B104F03F
:1047C000400008B102F01CF905F0080038B104F00F
:1047D000200020B104F0800008B102F012F9704806
:1047E000048C05F0100038B104F0100020B104F082
:1047F000400008B102F006F905F0200038B104F0DD
:10480000200020B104F0800008B102F0FCF86448F8
:104810004830048805F0400038B104F4807020B1BD
:1048200004F4007008B102F0EFF805F0800038B130
:1048300004F4005020B104F4804008B102F0E5F81F
:104840005748A430048805F4807038B104F00100A2
:1048500020B904F0100008B102F0D8F805F4007097
:1048600038B104F0020020B904F4807008B102F0FD
:10487000CEF805F4806038B104F0040020B904F4E7
:10488000805008B102F0C4F84648048805F480302E
:1048900038B104F0100020B104F0400008B102F07B
:1048A000ADF805F4003038B104F0200020B104F078
:1048B000800008B102F0A3F83A48001D048805F40E
:1048C000802038B104F0100020B104F0400008B19D
:1048D00002F0A1F805F4002038B104F0200020B166
:1048E00004F0800008B102F097F82E4808300488E0
:1048F00005F4801038B104F0100020B104F040003D
:1049000008B102F08AF805F4001038B104F0200074
:1049100020B104F0800008B102F080F82148303066
:10492000048805F4800038B104F4807020B104F4E8
:10493000007008B102F073F805F4000038B104F417
:10494000005020B104F4804008B102F069F8154825
:104950008C30048805F0807038B104F0010020B973
:1049600004F0100008B102F05CF805F0007038B1F6
:1049700004F0020020B904F4807008B102F052F88B
:1049800005F0806038B104F0040020B904F48050D0
:1049900008B102F048F8BFF34F8F70BD8412054094
:1049A000007001401848024070B546480568464806
:1049B000048805F0010038B104F0100020B104F0C3
:1049C000400008B102F030F805F0020038B104F000
:1049D000200020B104F0800008B102F026F83A4827
:1049E000001D048805F0040038B104F0100020B167
:1049F00004F0400008B102F019F805F0080038B1E1
:104A000004F0200020B104F0800008B102F00FF89B
:104A10002D480830048805F0100038B104F010006B
:104A200020B104F0400008B102F002F805F02000C7
:104A300038B104F0200020B104F0800008B101F08A
:104A4000F8FF21483030048805F0400038B104F404
:104A5000807020B104F4007008B101F0EBFF05F0A4
:104A6000800038B104F4005020B104F4804008B153
:104A700001F0E1FF14488C30048805F4807038B1EF
:104A800004F0010020B904F0100008B101F0BEFFED
:104A900005F4007038B104F0020020B904F480700D
:104AA00008B101F0CAFF05F4806038B104F00400D9
:104AB00020B904F4805008B101F0C0FFBFF34F8F5C
:104AC00070BD000088120540184C024070B57A484D
:104AD00004687A48006800F00F06784808300068DB
:104AE00000F00F0506EA050020B104F0400008B10F
:104AF000FCF76AFC71482030006800F00F066F4830
:104B00002830006800F00F0506EA050020B104F027
:104B1000800008B1FCF759FC68484030006800F09C
:104B20000F0666484830006800F00F0506EA0500E9
:104B300020B104F4807008B1FCF748FC5F48603095
:104B4000006800F00F065D486830006800F00F054F
:104B500006EA050020B104F4007008B1FCF737FC48
:104B600057484068012809D155488030006801281D
:104B700004D104F4803008B1FEF70AF85048C06848
:104B8000012809D14E4884300068012804D104F47A
:104B9000003008B1FDF7FBFF49480069012809D141
:104BA0004848806800F0030020B104F4802008B178
:104BB000FDF7ECFF44484068012809D142488030A5
:104BC0000068012804D104F4002008B1FDF7E3FFD8
:104BD0003D48C068012809D13B488430006801285D
:104BE00004D104F4801008B1FDF7D4FF3648006901
:104BF000012809D13548006800F0030020B104F411
:104C0000001008B1FDF7C5FF31484068012809D1FF
:104C10002F4880300068012804D104F4800008B1D6
:104C2000FDF7BCFF2A48C068012809D12848843014
:104C30000068012804D104F4000008B1FDF7ADFFBD
:104C400023480069012809D12248806800F0030048
:104C500020B104F0807008B1FDF79EFF1E48406847
:104C6000012809D11C4880300068012804D104F0D3
:104C7000007008B1FDF795FF1748C068012809D1F9
:104C8000154884300068012804D104F0806008B120
:104C9000FDF786FF10480069012809D10F48006818
:104CA00000F0030020B104F0006008B1FDF777FFC9
:104CB000BFF34F8F70BD00008C1205400C7C01408B
:104CC00000003C4200E0014000803C4208E401401A
:104CD0000000444200200240008044420824024078
:104CE00070B58A4804688A48D0F89800012808D12D
:104CF00088480068012804D104F0100008B1FCF7CE
:104D00009CFF83489C300068012809D18148001D20
:104D10000068012804D104F0200008B1FCF78FFFDF
:104D20007B488C300068012809D17A480C3800682B
:104D3000012804D104F0400008B1FCF77FFF764859
:104D40004068764900EA01067348C06900EA010537
:104D500006EA050020B104F0800008B1FCF76CFF02
:104D60006F480068012808D16E480068012804D106
:104D700004F4807008B1FCF764FF6948001D006806
:104D8000012809D16748001D0068012804D104F4F6
:104D9000007008B1FCF757FF61480C380068012823
:104DA00009D160480C380068012804D104F48060FF
:104DB00008B1FCF747FF5C480068584900EA010663
:104DC00059481830006800EA010506EA050020B1DC
:104DD00004F4006008B1FCF733FF54480068012870
:104DE00008D153480068012804D104F4805008B168
:104DF000FCF72BFF4D48001D0068012809D14C48E5
:104E0000001D0068012804D104F4005008B1FCF72B
:104E10001EFF46480C380068012809D144480C3868
:104E20000068012804D104F4804008B1FCF70EFFAB
:104E300040480068394900EA01063E4818300068D9
:104E400000EA010506EA050020B104F4004008B1BB
:104E5000FCF7FAFE3848007800F0030001280AD178
:104E60003648007800F00200022804D104F4003033
:104E700008B100F0CBFD3048007800F03000102879
:104E80000AD12E48007800F02000202804D104F434
:104E9000802008B100F0BBFD29480068012809D135
:104EA000274880300068012804D104F4801008B13C
:104EB000FCF73BFB2248001D0068012809D120486F
:104EC00084300068012804D104F4001008B1FCF714
:104ED0002BFB1B4808300068012809D1184888308E
:104EE0000068012804D104F4800008B1FCF71EFB1F
:104EF0001448406800F4403020B104F4000008B1C8
:104F000001F0E5FDBFF34F8F70BD0000901205402A
:104F100000009C4298039C4200E004401752F000BD
:104F200098809C4298839C4204E4044098009D42EF
:104F300098039D4204E8044013440540E1400540C5
:104F4000008390420090044010B53B4804683B4801
:104F50000068012809D1394820380068012804D1A7
:104F600004F0010008B1FBF744FA3448001D006862
:104F7000012809D131481C380068012804D104F007
:104F8000020008B1FBF736FA2D48006A012809D162
:104F90002C480068C0F3100020B104F0040008B1F0
:104FA000FBF726FA2648006A012809D1254800683F
:104FB000C0F3100020B104F0080008B1FBF71BFAA1
:104FC00021480068012809D11F48203800680128BD
:104FD00004D104F0100008B1FBF70FFA1A48001DC5
:104FE0000068012809D118481C380068012804D13C
:104FF00004F0200008B1FBF701FA1448006A012808
:1050000009D113480068C0F3080020B104F0400043
:1050100008B1FBF7F1F90D48006A012809D10C48E5
:105020000068C0F3080020B104F0800008B1FBF76D
:10503000E6F9BFF34F8F10BD94120540E00880429F
:1050400000148042B0000440E08880420094804216
:10505000B00404402DE9F84F3D48D0F800B00BF003
:105060000400D0B13B4807883A480830B0F80080C7
:10507000801FB0F8009037480A30B0F800A007EA67
:10508000080040F2F711084028B909EA0A0040F286
:105090007F11084008B100F0D7FC0BF02000A8B148
:1050A0002D48078EB0F83880B0F83290B0F83AA0AA
:1050B00007EA080040F2F711084028B909EA0A0097
:1050C00040F27F11084008B100F0BFFC0BF0400037
:1050D000A8B322480678401E007800901F48401C64
:1050E00004781E481A30057805F0200028BB06F029
:1050F000010010BB0098304000F0FE00E8B904F059
:10510000010010B104F00200B8B904F0040010B1BD
:1051100004F0080088B904F0100010B104F0200079
:1051200058B905F0080010B105F0100028B905F0D5
:10513000400028B105F0800010B1012001E003E03B
:10514000002008B1FBF7DAFABFF34F8FBDE8F88F04
:105150009812054030FC064000000740A5040740B7
:105160002DE9F04107460C4615461E462A2000F060
:1051700033FB384600F007FB284600F004FB2B20E9
:1051800000F02AFB204600F0FEFA304600F0FBFA61
:105190002C2000F021FBBDE8F08170B504460D46DF
:1051A00016462B46224629462046FFF7D9FF3046B1
:1051B00000F0E9FA70BD00002DE9F84F06460F46F1
:1051C00014461D46DDF82880A01BE91B00FB01FAF0
:1051D0004FEA282B08F0FF000090681E83B2601E83
:1051E00082B239463046FFF7BBFF40210120FCF771
:1051F0005FFB08210120FCF77BFC4FF0000917E062
:1052000000BF2021154800F09BFC0028F9D059462A
:10521000124801F007F800BF2021104800F090FC70
:105220000028F9D00D48009900F0FCFF09F10109B0
:10523000D145E5D300BF2021084800F081FC0028BB
:10524000F9D000BF0221054800F07AFC0028F9D00F
:1052500040210120FCF74CFCBDE8F88F0000024023
:1052600000B585B06846FCF7D7FC0220ADF8020017
:105270000120ADF800002020ADF806004020ADF878
:105280000A006A4640210120FCF7C2F96A4608215B
:105290000120FCF7BDF96A464FF400410020FCF7FD
:1052A000B7F96A4680210120FCF7B2F940210120BC
:1052B000FCF71EFC08210120FCF71AFC4FF400410A
:1052C0000020FCF715FC80210120FCF711FC05B043
:1052D00000BD10B5FFF7C4FF4FF400410020FCF7FC
:1052E000E7FA1E20FBF7FEFD4FF400410020FCF71B
:1052F000FFFB6420FBF7F6FD80210120FCF7F8FBA3
:105300006420FBF7EFFD112000F066FA362000F074
:1053100063FA002000F04EFA3A2000F05DFA052012
:1053200000F048FAB22000F057FA0C2000F042FAE0
:105330000C2000F03FFA002000F03CFA332000F08F
:1053400039FA332000F036FAB72000F045FA35205C
:1053500000F030FABB2000F03FFA352000F02AFAC6
:10536000C02000F039FA2C2000F024FAC22000F00E
:1053700033FA012000F01EFAC32000F02DFA1320AA
:1053800000F018FAC42000F027FA202000F012FAEA
:10539000C62000F021FA0F2000F00CFAD02000F017
:1053A0001BFAA42000F006FAA12000F003FAD62090
:1053B00000F012FAA12000F0FDF9E02000F00CFA54
:1053C000F02000F0F7F9002000F0F4F9042000F0DC
:1053D000F1F9042000F0EEF9042000F0EBF90520CB
:1053E00000F0E8F9292000F0E5F9332000F0E2F9B7
:1053F0003E2000F0DFF9382000F0DCF9122000F048
:10540000D9F9122000F0D6F9282000F0D3F9302085
:1054100000F0D0F9E12000F0DFF9F02000F0CAF947
:10542000072000F0C7F90A2000F0C4F90D2000F0B1
:10543000C1F90B2000F0BEF9072000F0BBF92820CD
:1054400000F0B8F9332000F0B5F93E2000F0B2F9D1
:10545000362000F0AFF9142000F0ACF9142000F071
:10546000A9F9292000F0A6F9322000F0A3F92120A3
:1054700000F0B2F9112000F0AFF97820FBF732FD0F
:10548000292000F0A9F910BD10B59EB003A8FCF7C3
:10549000C3FB2020ADF8120003AA10210120FCF765
:1054A000B7F803AA20210120FCF7B2F82B22102123
:1054B0000120FCF7A1FA282220210120FCF79CFA08
:1054C00001218804FBF7E8FF13A800F0FBFC002093
:1054D00013900220149008201590002017900320AC
:1054E0001890002019904FF480601A9000201B90B3
:1054F0001D9013A9364800F07FFB002010901190FA
:10550000129010A800F012FB01214FF41030FBF7AD
:105510006FFF08A8FBF760FE01200C900A200D9099
:1055200000200B900E900F9029480A90801408904C
:1055300008AA00212748FBF76FFD08B100BFFEE76E
:105540004FF49B712448FBF72FF82020ADF804009E
:105550000620ADF806002148029001A8FDF722FBC5
:10556000BDF90600002807DB00F01F0101228A4078
:105570001B49430941F8232000BFBDF906000F2154
:10558000002804DB0A07130E164A135406E00A0724
:10559000140E154A00F00F031B1FD45400BFBDF9B1
:1055A000060000280DDB00BF00BF00F01F02012134
:1055B00091404209920002F1E022C2F8001100BFBE
:1055C00000BF00BF0121024800F050FA1EB010BD1C
:1055D000000002400030054014080140FD110000A9
:1055E00080E200E000E400E018ED00E02DE9FF5F5C
:1055F00080468A4617469B460F9D00200290CDF8B4
:105600000080284605EBD071C1F347042046E2171D
:1056100004EB5272D2102146E31704EB5373DB10F4
:10562000A4EBC3030BB1012300E000231A446A4337
:1056300092B20192A7F12000C7B20AEB0500401E0A
:1056400083B208EB0400401E82B251464046FFF789
:1056500087FD002669E00C2D07D107EB470035498F
:1056600001EB8000805D03901BE0102D05D13248D6
:1056700000EB0710805D039013E0182D07D107EBB6
:1056800047002E4901EB0010805D039009E0202DBA
:1056900005D12B4800EB8710805D039001E0BDE849
:1056A000FF9F4FF000093AE01098C8B9012000FAB6
:1056B00009F00399084018B1584600F064F802E078
:1056C0000E9800F060F80298401CC0B20290029858
:1056D00090FBF4F104FB1100E8B90020029021E0F6
:1056E000012000FA09F00399084020B15A465146BA
:1056F0004046FFF752FD08F101001FFA80F80098BC
:10570000A8EB0000A04206D1DDF800800AF10100FC
:105710001FFA80FA06E009F1010000F0FF09B9F173
:10572000080FC1DB00BF701C86B20198864292DB75
:1057300000BFB4E70C6C00008070000070760000C1
:10574000408800002DE9FE4F06460F461446984655
:10575000DDE90D5ADDF8309010E0CDE9015ACDF8C1
:1057600000902278434639463046FFF73FFF2846EF
:1057700005EBD07106EB61018EB2641C2078002825
:10578000EBD1BDE8FE8F70B504462512E6B240218C
:105790000120FCF78DF808210120FCF7A9F9284623
:1057A00000F02CF8304600F029F840210120FCF7E9
:1057B0009FF970BD10B5044640210120FCF778F830
:1057C00008210120FCF794F9204600F017F8402149
:1057D0000120FCF78DF910BD10B5044640210120D1
:1057E000FCF766F808210120FCF762F8204600F07B
:1057F00005F840210120FCF77BF910BD01B50A2313
:1058000001226946014800F074FB08BD0000024017
:1058100010B5044604F0010048B100BF40F2231067
:105820001A49086043F21020086000BF00BF04F06E
:10583000020028B100BF16481649086100BF00BF2A
:1058400004F0040030B100BF4AF201501249088050
:1058500000BF00BF04F0100018B14AF2085000F079
:10586000E5F804F0400018B14AF2035000F0DEF809
:1058700004F0800040B100BF772008490860074964
:105880000831086000BF00BF10BD000000040140E7
:105890000100A5A500800440FC3B0540040805402C
:1058A00010B5044604F0010028B100BF00201949DA
:1058B000086000BF00BF04F0020028B100BF164816
:1058C0001649086100BF00BF04F0040030B100BFFA
:1058D0004FF425401249088000BF00BF04F01000BB
:1058E00018B14AF2085000F093F804F0400018B1E3
:1058F0004AF2035000F08CF804F0800040B100BF81
:1059000076200849086007490831086000BF00BFD9
:1059100010BD0000000401400000A5A50080044067
:10592000FC3B05400408054000B585B06846FCF71F
:1059300073F90020ADF800000220ADF802006A46BD
:1059400080210120FBF764FE6A464FF400410120EC
:10595000FBF75EFE6A464FF480710120FBF758FEAC
:105960004020ADF80A000020ADF802006A46202170
:10597000FBF74EFE6A4640210020FBF749FE6A46CF
:1059800010210020FBF744FE05B000BD10B500BF9C
:105990000F48008800F00200022800D104E040F225
:1059A000AD410CA0FBF79CFA00BF0948001D007830
:1059B00000F0C00040F00F000549091D08701020DC
:1059C0000349113108701E20FBF7ACFA002010BD0E
:1059D000FE4305402E2E5C2E2E5C2E2E5C2E2E5C61
:1059E000647269766572735C686333325F6C6C5F96
:1059F0006472697665725C7372635C686333325F8C
:105A00006C6C5F7077632E63000000007047704716
:105A100004490988814341F42541034AA2F8FE1351
:105A200070470000FE4305400040054003490988D7
:105A30000143034AA2F8FE1370470000FE430540ED
:105A40000040054070477047704770477047704787
:105A5000704770477047704770477047704770478E
:105A600070477047704770477047704770B504467D
:105A70000D4600BF1B48844208D01B48844205D015
:105A80001A48844202D01A48844200D104E040F20D
:105A9000622118A0FBF724FA00BF00BF0DB1012D51
:105AA00000D104E040F2632112A0FBF719FA00BF15
:105AB00000BF606900F0040000B105B904E04FF4D4
:105AC00019710CA0FBF70CFA00BF012D04D160681E
:105AD00040F04000606003E0606820F040006060DB
