:020000040000FA
:10000000B022012095020000CD020000CF020000C6
:10001000D1020000D3020000D50200000000000061
:10002000000000000000000000000000D7020000F7
:10003000D902000000000000DB020000415B00006C
:10004000C1280000D5280000E9280000FD28000094
:100050001129000025290000392900004D29000040
:100060006129000075290000892900009D290000F0
:10007000B1290000C5290000D9290000ED290000A0
:10008000012A0000152A0000292A00003D2A00004C
:10009000512A0000652A0000792A00008D2A0000FC
:1000A000A12A0000B52A0000C92A0000DD2A0000AC
:1000B000F12A0000052B0000192B00002D2B000059
:1000C000412B0000552B0000692B00007D2B000008
:1000D000912B0000A52B0000B92B0000CD2B0000B8
:1000E000E12B0000F52B0000092C00001D2C000066
:1000F000312C0000452C0000592C00006D2C000014
:10010000812C0000952C0000A92C0000BD2C0000C3
:10011000D12C0000E52C0000F92C00000D2D000072
:10012000212D0000352D0000492D00005D2D00001F
:10013000712D0000852D0000992D0000AD2D0000CF
:10014000C12D0000D52D0000E92D0000FD2D00007F
:10015000112E0000252E0000392E00004D2E00002B
:10016000612E0000752E0000892E00009D2E0000DB
:10017000B12E0000C52E0000D92E0000ED2E00008B
:10018000012F0000152F0000292F00003D2F000037
:10019000512F0000652F0000792F00008D2F0000E7
:1001A000A12F0000B52F0000C92F0000DD2F000097
:1001B000F12F000005300000193000002D30000044
:1001C0004130000055300000693000007D300000F3
:1001D00091300000A5300000B9300000CD300000A3
:1001E000E1300000F5300000093100001D31000051
:1001F0003131000045310000593100006D310000FF
:100200008131000095310000A9310000BD310000AE
:10021000D1310000E5310000F93100000D3200005D
:100220002132000035320000493200005D3200000A
:10023000713200008532000099320000AD320000BA
:10024000C1320000F5330000CD37000095380000C2
:10025000253B0000DF020000DF020000DF0200009B
:10026000793C00002D3F000029410000D1420000F0
:10027000B54300007945000075470000694800005B
:10028000DFF80CD000F0F4F90048004795F30100C6
:10029000B022012012484FF01F01016011484FF0B9
:1002A0007701016010484FF0770101600F484FF46B
:1002B000885101600B484FF0760101600A484FF009
:1002C000760101600A4880470A480047FEE7FEE7DA
:1002D000FEE7FEE7FEE7FEE7FEE7FEE7FEE7FEE7F6
:1002E00010080540040805400C08054000080540BA
:1002F0006D5C0000810200002DE9F05F05460020E2
:1003000092469B4688460646814640241BE0284686
:1003100041464746224600F064F953465A46C01A01
:10032000914110D311461846224600F04BF92D1A80
:1003300067EB01084F4622460120002100F042F9F8
:1003400017EB00094E41201EA4F10104DFDC4846F2
:1003500031462A464346BDE8F09F40EA01039B0729
:1003600003D009E008C9121F08C0042AFAD203E02A
:1003700011F8013B00F8013B521EF9D27047D2B28E
:1003800001E000F8012B491EFBD270470022F6E77E
:1003900010B513460A4604461946FFF7F0FF2046FB
:1003A00010BD421C10F8011B0029FBD1801A7047B8
:1003B00010B5002200E0521C835C8C5CA34201D18A
:1003C000002BF8D1D8B2E1B2401A10BD034611F8A3
:1003D000012B00F8012B002AF9D118467047420082
:1003E00005D0C0F3C7525242914201DC0020704751
:1003F00000EBC150704796230022114600F00AB965
:10040000BFFFDFFFFFFEFFFFFFFFFFFFFFFFFFFF5D
:10041000FFFFFFFFFFFFFFFFFFFFFFFFFFFFFFFFEC
:1004200040F20B0CC9F6000C604740F2693CC9F67B
:10043000000C604740F21B2CC9F6000C604740F2EC
:10044000132CC9F6000C6047F0B480EA0102D40F07
:100450004200B2EB410F02D20246084611464A0062
:1004600042D0C30DDDB2C1F3C752AD1A202D35DA2B
:10047000C1F3160141F4000204B15242C5F1200655
:1004800002FA06F12A411044B3EBD05F23D0C4B185
:10049000012DA0EBC35009DCF0BC4FF0004202EA92
:1004A000C352DBB200F5000000F0B4B8400000F128
:1004B000807000EBC350A0F1807040EAD170490019
:1004C00009E0490841EAC071A0EBC35000F5000003
:1004D000400800EBC350F0BC00F093B86142012229
:1004E00002EB4101001BF6E7F0BC704781F00041D0
:1004F000AAE780F00040A7E730B480EA010202F0EA
:10050000004530F0004221F0004013D090B1C30DFF
:10051000D40DC2F31601C0F31600E41A41F4000131
:1005200040F400027D34914201D3641C00E0490094
:10053000002C02DA30BC002070474FF4000000238A
:10054000914201D3891A034340084FEA4101F7D190
:1005500051B1914202D14FF0004105E002D24FF07B
:10056000010101E06FF0010103EBC450284430BCED
:1005700000F047B820F00040C10DC0F3160040F471
:1005800000007F2901DA00207047962903DCC1F1C1
:100590009601C8407047963988407047002801DBB3
:1005A000C0F10040002901DBC1F1004181427047E8
:1005B000002801DBC0F10040002901DBC1F100414E
:1005C00088427047202A04DB203A00FA02F100201A
:1005D00070479140C2F1200320FA03F31943904081
:1005E0007047202A04DB203A21FA02F000217047EC
:1005F00021FA02F3D040C2F120029140084319468B
:1006000070470029A8BF7047401C490008BF20F070
:100610000100704710B4B0FA80FC00FA0CF050EA08
:10062000010404BF10BC704749B1CCF1200421FA89
:1006300004F411FA0CF118BF012121430843A3EB84
:100640000C01CB1D4FEA00614FEA102042BF002091
:1006500010BC704700EBC35010440029A4BF10BC6D
:100660007047401C490008BF20F0010010BC7047D3
:10067000064C074D06E0E06840F0010394E80700EF
:1006800098471034AC42F6D3FFF7FEFDF831020074
:100690001832020070B58C1810F8015B15F00703D2
:1006A00001D110F8013B2A1106D110F8012B03E00B
:1006B00010F8016B01F8016B5B1EF9D12B0705D413
:1006C0000023521E0DD401F8013BFAE710F8013B5C
:1006D000CB1A921C03E013F8015B01F8015B521E78
:1006E000F9D5A142D8D3002070BD7047704770473C
:1006F00070477047704770477047000070B50446F8
:100700001048164620440D46682801D8A00703D09B
:100710007C210DA000F094FB0DB1A80003D07D2139
:1007200009A000F08DFB2EB1012E06D07E2106A07F
:1007300000F086FB2068A84301E020682843206081
:1007400070BD0000FCF7FEBF2E2E5C2E2E5C2E2E00
:100750005C2E2E5C647269766572735C68633332FA
:100760005F6C6C5F6472697665725C7372635C68FF
:100770006333325F6C6C5F616F732E630000000047
:1007800070B5044607480D462044682801D8A007E4
:1007900003D08F2104A000F053FB206865F308000C
:1007A000206070BDFCF7FEBF2E2E5C2E2E5C2E2E20
:1007B0005C2E2E5C647269766572735C686333329A
:1007C0005F6C6C5F6472697665725C7372635C689F
:1007D0006333325F6C6C5F616F732E6300000000E7
:1007E0007FB501220321052000F0F4FF684600F0E8
:1007F000DCFA02A800F0C2F92549264800F0D6F933
:1008000000258DF8025030208DF8010005248DF868
:1008100000508DF80440684600F042FA632060F30F
:10082000102404F1805424F0706000F1807020F4F2
:10083000700000F5801020F0800003908DF80850C3
:1008400002A800F0B5F8202000F028F80128FAD11D
:1008500000221146042004F077FF012211460B20EC
:1008600004F072FF502000F08FFE4FF4404001F082
:10087000F9F904F0B9FB052000F09FF9012000F020
:1008800047FE002000F044FE012000F009FE7FBD7D
:1008900010221100777777077047000010B5040029
:1008A00002D034F0690004D040F28B5104A000F073
:1008B000C7FA114890F83C00204000D0012010BD3C
:1008C0002E2E5C2E2E5C2E2E5C2E2E5C6472697693
:1008D0006572735C686333325F6C6C5F64726976F7
:1008E00065725C7372635C686333325F6C6C5F6308
:1008F0006C6B2E63000000000040054070B50600E0
:100900004FF0000406D0012E04D040F2E54119A0BA
:1009100000F096FA254DB5F8FE03C00704D140F269
:10092000E64114A000F08CFA46B1D5F800014FF46E
:100930008056000631460ED408200DE095F82600BA
:1009400000F00700052803D0012085F82A000EE0FA
:100950006FF005040BE0012000F036F9040006D129
:1009600085F82A003146202000F02EF90446204662
:1009700070BD00002E2E5C2E2E5C2E2E5C2E2E5C6A
:10098000647269766572735C686333325F6C6C5F46
:100990006472697665725C7372635C686333325F3C
:1009A0006C6C5F636C6B2E630000000000400540C0
:1009B0002DE9F041040027D0207900F01F0017280E
:1009C00004D940F2B94158A000F03AFA6068C0F387
:1009D00008201338B0F5E67F04D940F2BA4152A09E
:1009E00000F02EFA60684FF0FF3101EB10700E2816
:1009F00004D940F2BB414CA000F022FA6168584A89
:100A0000080605D4134605E06FF00200BDE8F0814A
:100A10005448036801F01F00401CB3FBF0F0C1F321
:100A200008256D1C504945430844904204D94FF4B1
:100A300098613DA000F004FA4C484C4928444942D2
:100A4000884204D940F2C14137A000F0F9F960684A
:100A5000012101EB1070B5FBF0F0454E454F3044DD
:100A6000B84204D940F2C2412FA000F0E9F9606811
:100A7000C0F30360401E0E2804D940F2C3412AA0EF
:100A800000F0DEF96068C0F30350401E0E2804D960
:100A900040F2C44124A000F0D3F96068C0F30350D1
:100AA000401CB5FBF0F03044B84204D940F2C541D7
:100AB0001DA000F0C5F96068C0F30360401CB5FBE1
:100AC000F0F03044B84204D940F2C64116A000F01C
:100AD000B7F92078012805D020B14FF4996112A010
:100AE00000F0AEF9244DB5F8FE03C00704D140F282
:100AF000C9410DA000F0A4F9D5F80001217920F03A
:100B00008000C1F3C01140EAC110C5F8000160685F
:100B1000C5F80001207820B10020BDE8F041FFF7C2
:100B2000EDBE0120F9E700002E2E5C2E2E5C2E2E4D
:100B30005C2E2E5C647269766572735C6863333216
:100B40005F6C6C5F6472697665725C7372635C681B
:100B50006333325F6C6C5F636C6B2E63000000006C
:100B600000366E010480FF1FC0BDF0FF00E4B1F14C
:100B7000401E1BFF40E0060B00400540002290B1E4
:100B80000021132363F3102101F1805121F07061E2
:100B900001F1807121F4700101F5801141600121A2
:100BA0000170104670476FF00202FAE710B504F0CA
:100BB00033FEBDE8104005F00FB810B504F03EFF5D
:100BC000BDE8104005F008B8F8B5064600200D460F
:100BD0006FF00704009007E03046FFF75FFE012842
:100BE00006D00098401C0090A842F5D92046F8BDD8
:100BF0000024FBE770B506004FF0000506D0012E7B
:100C000004D04FF4677117A000F01AF9234CB4F820
:100C1000FE03C00704D140F29D3112A000F010F98C
:100C200046B1002084F832004FF480510820FFF7CD
:100C3000CBFF13E094F8260000F007016FF00500E9
:100C400003290BD0D4F800110A064FF0010102D499
:100C500094F82A2012B184F8321000E005462846A4
:100C600070BD00002E2E5C2E2E5C2E2E5C2E2E5C77
:100C7000647269766572735C686333325F6C6C5F53
:100C80006472697665725C7372635C686333325F49
:100C90006C6C5F636C6B2E630000000000400540CD
:100CA00070B5040045D02078012805D020B14FF45C
:100CB0005F712DA000F0C4F8607850B1102808D002
:100CC000202806D0302804D040F27D3126A000F044
:100CD000B7F8A07830B1402804D040F27E3122A08D
:100CE00000F0AEF8E078802805D020B140F27F31E6
:100CF0001DA000F0A5F82079012814D0022812D0F8
:100D0000032810D004280ED005280CD006280AD0BD
:100D1000072808D0082806D0092804D04FF46071AD
:100D200011A000F08DF81E4DB5F8FE03C00708D1E4
:100D300002E06FF0020070BD40F281310AA000F0C5
:100D40007FF8207985F8A200E07861780843A178DF
:100D5000084314490870207820B10020BDE8704095
:100D6000FFF748BF0120F9E72E2E5C2E2E5C2E2EB9
:100D70005C2E2E5C647269766572735C68633332D4
:100D80005F6C6C5F6472697665725C7372635C68D9
:100D90006333325F6C6C5F636C6B2E63000000002A
:100DA00000400540104405407047002150B1012229
:100DB00002700022827042708022C270052202718D
:100DC000084670476FF00201FAE710B501F04CFADF
:100DD0000A2000F037F83021112000F009F8052032
:100DE00000F030F8C021BDE810400F20AFF30080C4
:100DF000F8B5104E8DF800008DF8011042F2107514
:100E00002946304601F0E6FA2B46002227213046DB
:100E100001F084FB040006D12B46022269463046CD
:100E200001F0E8FB04462946304601F01DFB204650
:100E3000F8BD000000E004407047704770477047FD
:100E4000FEE7000008B50D49096AC1F302630C49C9
:100E50000968D94041F270731944491EB1FBF3F29D
:100E600006E0009200BF00994B1E00930029FAD1C2
:100E7000011EA0F10100F4D108BD000000400540B2
:100E80000080FF1F08B50C49096AC1F302630B49D2
:100E90000968D9400A4B1944491EB1FBF3F206E038
:100EA000009200BF00994B1E00930029FAD1011E49
:100EB000A0F10100F4D108BD004005400080FF1FF3
:100EC000808D5B0070477047704770477047704770
:100ED000704770477047704770477047704770475A
:100EE000704770477047704770477047704770474A
:100EF000704770472DE9F04704464F4800261746D3
:100F00000D46844207D04D48844204D040F27B1104
:100F10004BA0FFF795FF032D04D94FF4BE7148A0F5
:100F2000FFF78EFF37B1012F04D040F27D1144A0AE
:100F3000FFF786FF5048017819B14FF0FF30BDE848
:100F4000F08701210170E369A9408B434FF0000253
:100F500064D0E3696FF00709DB074FF4A04C11D0B0
:100F600085B1A36C4FEA1348A36E1B0C0A2B09D85A
:100F7000434504D306E0761CB6B2664548D8E3691B
:100F8000DB07F8D1E3699B0714D5012D12D0D4F803
:100F900088301E0CD4F8A8301B0C0A2B0AD8B34298
:100FA00008D2002303E05B1C9BB2634530D8E6699E
:100FB000B607F8D4E3695B0715D5022D13D0D4F832
:100FC000C86000234FEA1648D4F8E860360C0A2EB1
:100FD00009D8464504D306E05B1C9BB2634517D88D
:100FE000E6697607F8D4E3691B0717D5032D15D0FA
:100FF000D4F8085100232E0CD4F828512D0C0A2DBA
:101000000CD8B54207D309E05B1C9BB2634502D9FB
:101010000270484693E7E5692D07F5D4E369012F8F
:1010200006D00F258D432B40E3610270002086E738
:1010300001F00F010B43F7E7003005400034054095
:101040002E2E5C2E2E5C2E2E5C2E2E5C647269760B
:101050006572735C686333325F6C6C5F647269766F
:1010600065725C7372635C686333325F6C6C5F647F
:101070006D612E63000000001480FF1F70B50546EF
:101080000B480C46854207D00A48854204D04FF4ED
:10109000B27109A0FFF7D4FE14B134F00F1004D0E0
:1010A00040F2651104A0FFF7CBFEAC6170BD0000FB
:1010B00000300540003405402E2E5C2E2E5C2E2E76
:1010C0005C2E2E5C647269766572735C6863333281
:1010D0005F6C6C5F6472697665725C7372635C6886
:1010E0006333325F6C6C5F646D612E6300000000DF
:1010F00070B5054609480C46854206D00848854229
:1011000003D0FB2107A0FFF79BFE2CB1012C03D0DD
:10111000FC2104A0FFF794FE2C6070BD0030054058
:10112000003405402E2E5C2E2E5C2E2E5C2E2E5C66
:10113000647269766572735C686333325F6C6C5F8E
:101140006472697665725C7372635C686333325F84
:101150006C6C5F646D612E630000000070B50C0064
:10116000054602D034F00F1004D04FF4AB7104A048
:10117000FFF766FEA868204000D0012070BD000087
:101180002E2E5C2E2E5C2E2E5C2E2E5C64726976CA
:101190006572735C686333325F6C6C5F647269762E
:1011A00065725C7372635C686333325F6C6C5F643E
:1011B0006D612E63000000002DE9F04705464448AC
:1011C000002614460F46854207D04248854204D087
:1011D0004FF46B7140A0FFF733FE032F04D940F2A8
:1011E000AD313DA0FFF72CFE64B1E068002827D0A8
:1011F0004FF480784FF40079404506D12079C0073C
:1012000011D007E06FF002065EE0484502D1207978
:1012100080070DD040F2B2312FA0FFF711FEE06839
:1012200070B1404502D1207AC00703E0484502D1A1
:10123000207A800720B140F2B33127A0FFF700FEEB
:10124000A06940B1012806D0022804D04FF46D7186
:1012500021A0FFF7F5FDE06940B1042806D0082879
:1012600004D040F2B5311CA0FFF7EAFD2069B0F5CB
:10127000806F04D940F2B63117A0FFF7E1FD206876
:10128000B0F5805F05D020B140F2B73112A0FFF772
:10129000D7FD05EB871061680164A1684164218A6C
:1012A000A28AC1F3090141EA024181642268E1682E
:1012B0000A43D4E9061319430A4341F20F31C36DBF
:1012C0000A408B431A43C2653046BDE8F0870000F0
:1012D00000300540003405402E2E5C2E2E5C2E2E54
:1012E0005C2E2E5C647269766572735C686333325F
:1012F0005F6C6C5F6472697665725C7372635C6864
:101300006333325F6C6C5F646D612E6300000000BC
:101310002DE9F04106461448002415460F46864242
:1013200007D01248864204D040F2052110A0FFF7F2
:1013300087FD032F04D940F206210DA0FFF780FDA1
:1013400006EB871005644FF4805208E0641CA4B2D9
:10135000944203D96FF00700BDE8F0810564016E87
:10136000A942F3D10020F7E70030054000340540E2
:101370002E2E5C2E2E5C2E2E5C2E2E5C64726976D8
:101380006572735C686333325F6C6C5F647269763C
:1013900065725C7372635C686333325F6C6C5F644C
:1013A0006D612E63000000002DE9F04106461948EA
:1013B000002415460F46864207D01748864204D0BF
:1013C0004FF4107115A0FFF73BFD032F04D940F235
:1013D000412112A0FFF734FD06EB871101F148000F
:1013E0008A6CC2EA05428A644FF4805268310BE08D
:1013F000641CA4B2944203D96FF00700BDE8F081E9
:101400000368C3EA054303600B68B5EB134FEFD1E4
:101410000020F3E700300540003405402E2E5C2EFE
:101420002E5C2E2E5C2E2E5C647269766572735C67
:10143000686333325F6C6C5F6472697665725C738B
:1014400072635C686333325F6C6C5F646D612E63E2
:1014500000000000002258B100210160416001231A
:101460008160C0E9031341618161C1611046704729
:101470006FF00202FAE7000010B5074C0121204688
:10148000FFF76CFE002806D001212046FFF7F6FD8D
:1014900002490120087010BD003005400880FF1F80
:1014A00010B5040006D0012C04D040F2711108A040
:1014B000FFF7C6FC14480068012804D04FF4B97146
:1014C00003A0FFF7BDFC1148C0F8404110BD00006B
:1014D0002E2E5C2E2E5C2E2E5C2E2E5C6472697677
:1014E0006572735C686333325F6C6C5F64726976DB
:1014F00065725C7372635C686333325F6C6C5F65EA
:10150000666D2E6300000000000401400080204250
:1015100010B5040006D0012C04D040F2631108A0DD
:10152000FFF78EFC14480068012804D04FF4B27114
:1015300003A0FFF785FC1148C0F8604110BD000012
:101540002E2E5C2E2E5C2E2E5C2E2E5C6472697606
:101550006572735C686333325F6C6C5F647269766A
:1015600065725C7372635C686333325F6C6C5F6579
:10157000666D2E63000000000004014000802042E0
:10158000704770477047000070B505461948002441
:101590000068012804D040F24F1117A0FFF750FC5B
:1015A000F02D04D94FF4A87113A0FFF749FC11499D
:1015B0000831086805F0F00220F0F00010430860E0
:1015C0001C481B4A44F6206300680CE0166AC6F308
:1015D000026620FA06F6B6FBF3F6641CA64202D2B7
:1015E0006FF0070070BD0E6806F0F006AE42EDD158
:1015F000002070BD000401402E2E5C2E2E5C2E2E8D
:101600005C2E2E5C647269766572735C686333323B
:101610005F6C6C5F6472697665725C7372635C6840
:101620006333325F6C6C5F65666D2E630000000093
:10163000004005400080FF1F7047704770477047AB
:1016400070477047704770477047704770477047E2
:1016500070477047704770477047704770477047D2
:1016600070B50E46050002D00E48054203D0712128
:101670000DA0FFF7E5FB2EB1012E03D072210AA0C9
:10168000FFF7DEFB164C2069C00703D1732106A0CB
:10169000FFF7D6FB2068012E02D02843206070BDE2
:1016A000A843FBE7EE3A0C702E2E5C2E2E5C2E2EFD
:1016B0005C2E2E5C647269766572735C686333328B
:1016C0005F6C6C5F6472697665725C7372635C6890
:1016D0006333325F6C6C5F6663672E6300000000EB
:1016E0000080044070B50E46040002D00A4804424F
:1016F00003D0842109A0FFF7A3FB164D2EB1012EC4
:1017000006D0852105A0FFF79BFB6868204301E018
:101710006868A043686070BD8602F0F02E2E5C2ED3
:101720002E5C2E2E5C2E2E5C647269766572735C64
:10173000686333325F6C6C5F6472697665725C7388
:1017400072635C686333325F6C6C5F6663672E63E1
:10175000000000000080044070B50E46040002D076
:101760000A48044203D0962109A0FFF769FB164DF1
:101770002EB1012E06D0972105A0FFF761FBA868C6
:10178000204301E0A868A043A86070BD0078F8FF7E
:101790002E2E5C2E2E5C2E2E5C2E2E5C64726976B4
:1017A0006572735C686333325F6C6C5F6472697618
:1017B00065725C7372635C686333325F6C6C5F6626
:1017C00063672E630000000000800440704770478C
:1017D0007047000070B504461C4816460D46008848
:1017E000C00704D140F2812119A0FFF729FB74B191
:1017F000012C0CD0022C0AD0032C08D0042C06D0CB
:10180000052C04D040F2822111A0FFF719FB25B965
:1018100040F283210EA0FFF713FB0C4B0020A20126
:101820001B1DE90708D002EB80011944012E0C882A
:1018300009D0C4F30E040C806D0803D0401CC0B264
:101840001028EED370BD44F40044F4E7FC3B05409F
:101850002E2E5C2E2E5C2E2E5C2E2E5C64726976F3
:101860006572735C686333325F6C6C5F6472697657
:1018700065725C7372635C686333325F6C6C5F6764
:1018800070696F2E630000002DE9F04114000E46D0
:1018900005464FF0000704D052480088C00708D121
:1018A00002E06FF002079AE04FF480714EA0FFF75C
:1018B000C7FA75B1012D0CD0022D0AD0032D08D026
:1018C000042D06D0052D04D040F2011146A0FFF7EB
:1018D000B7FA26B94FF4817143A0FFF7B1FA208817
:1018E00030B1012804D040F203113FA0FFF7A8FA5D
:1018F000608830B1022804D04FF482713AA0FFF71B
:101900009FFAA08830B1042804D040F2051136A017
:10191000FFF796FAE08840B1102806D0202804D0BE
:101920004FF4837130A0FFF78BFA208938B1B0F5FE
:10193000804F04D040F207112BA0FFF781FA608995
:1019400030B1402804D04FF4847127A0FFF778FA13
:10195000A08938B1B0F5007F04D040F2091122A06F
:10196000FFF76EFAE08938B1B0F5805F04D04FF42C
:1019700085711DA0FFF764FA208A38B1B0F5004FD9
:1019800004D040F20B1118A0FFF75AFA0021F0071B
:101990001FD020886288E3881043A2884DF2772CFC
:1019A0001A43104362890F4B1043A2891043E28906
:1019B000104322891043228A0243A80100EB8100D0
:1019C0001B1D1844038802EA0C0223EA0C0313438C
:1019D0000380760803D0491CC9B21029D7D33846F2
:1019E000BDE8F081FC3B05402E2E5C2E2E5C2E2E99
:1019F0005C2E2E5C647269766572735C6863333248
:101A00005F6C6C5F6472697665725C7372635C684C
:101A10006333325F6C6C5F6770696F2E6300000028
:101A200070B50D4604000ED0012C0CD0022C0AD04B
:101A3000032C08D0042C06D0052C04D040F24A21F7
:101A400007A0FFF7FDF925B940F24B2104A0FFF7ED
:101A5000F7F9114800EB041001882943018070BD9B
:101A60002E2E5C2E2E5C2E2E5C2E2E5C64726976E1
:101A70006572735C686333325F6C6C5F6472697645
:101A800065725C7372635C686333325F6C6C5F6752
:101A900070696F2E630000000A38054070B50C466F
:101AA000050001D0680904D04FF4B2710FA0FFF710
:101AB000C7F934B1012C04D040F265110BA0FFF737
:101AC000BFF918480088C00704D14FF4B37107A0CC
:101AD000FFF7B6F9134A05F01F00083A012C1188E8
:101AE00002D08143118070BD0143FBE72E2E5C2E96
:101AF0002E5C2E2E5C2E2E5C647269766572735C91
:101B0000686333325F6C6C5F6472697665725C73B4
:101B100072635C686333325F6C6C5F6770696F2EF1
:101B200063000000FC3B054070B516460D460400FE
:101B30000ED0012C0CD0022C0AD0032C08D0042C7F
:101B400006D0052C04D04FF4BE7118A0FFF778F929
:101B500025B940F27D1115A0FFF772F90F2E08D9B3
:101B6000A6F120001B2804D94FF4BF710FA0FFF786
:101B700067F91C480088C00704D140F27F110BA010
:101B8000FFF75EF9174B0020A2019B1DE90706D065
:101B900002EB800119440C8866F305040C806D0883
:101BA00003D0401CC0B21028F0D370BD2E2E5C2E86
:101BB0002E5C2E2E5C2E2E5C647269766572735CD0
:101BC000686333325F6C6C5F6472697665725C73F4
:101BD00072635C686333325F6C6C5F6770696F2E31
:101BE00063000000FC3B054070B50D4604000ED0BC
:101BF000012C0CD0022C0AD0032C08D0042C06D0C7
:101C0000052C04D04FF40E7107A0FFF719F925B980
:101C100040F2392104A0FFF713F9114800EB04103A
:101C200001882943018070BD2E2E5C2E2E5C2E2E45
:101C30005C2E2E5C647269766572735C6863333205
:101C40005F6C6C5F6472697665725C7372635C680A
:101C50006333325F6C6C5F6770696F2E63000000E6
:101C60000838054010B504000DD0B4F5804F0AD0F7
:101C7000B4F5004F07D0B4F5404F04D04FF4ED71E8
:101C80000AA0FFF7DDF817480088C00704D140F22A
:101C9000DB1106A0FFF7D4F81248001F018804F4F6
:101CA0004042C1F30D011143018010BD2E2E5C2E68
:101CB0002E5C2E2E5C2E2E5C647269766572735CCF
:101CC000686333325F6C6C5F6472697665725C73F3
:101CD00072635C686333325F6C6C5F6770696F2E30
:101CE00063000000FC3B0540002258B10021018048
:101CF0004180C1800182018141818181C1818180D6
:101D0000104670476FF00202FAE77047704770475D
:101D1000704770477047704770477047704770470B
:101D2000704700002DE9F74F4FF000068AB00C0015
:101D30000546B1464FF0020A6FF002087DD00C98BC
:101D40000028FBD05B4885420AD05B48854207D01B
:101D50005A48854204D04FF48A7159A0FFF770F8B1
:101D6000606810B16449884204D940F2151154A04A
:101D7000FFF766F82068072804D94FF48B7150A04C
:101D8000FFF75EF85D48006A0127C0F302315C4846
:101D9000006820FA01FB2068A1680991616801913F
:101DA000296B8740C90604D5296B01F0030101F1B5
:101DB000010908B94FF0030A002F75D03846FEF725
:101DC0001AFB00900198FEF716FB0590029058460A
:101DD000FEF711FB0299FEF78FFB0099FEF78CFBD3
:101DE00000900998FEF707FB01904846FEF703FBB9
:101DF0000121FEF7F4FA81465046FEF7FCFA012174
:101E0000FEF7EDFA4946FEF71FFB0199FEF71CFBB2
:101E1000824601460098FEF769FB03900098FEF7A2
:101E2000A9FBFEF7E8FA0099FEF763FBB0F17C5FCF
:101E300000980ADBFEF79EFB00E035E0FEF7DBFAD8
:101E40004FF07E51FEF700FB03E0FEF793FBFEF739
:101E5000D2FA81465146FEF7A1FB25D929490398BC
:101E6000FEF7A6FB20D34846FEF784FBBBFBF0F051
:101E7000B0FBF7F0FEF7BFFA074639460598FEF7C4
:101E800035FB3946FEF738FB07460398FEF772FB31
:101E900041082288A0EB500041EA024141EA0020BB
:101EA000E8620C98076000E046460DB03046BDE899
:101EB000F08F000000E0044000E4044000E804402B
:101EC0002E2E5C2E2E5C2E2E5C2E2E5C647269767D
:101ED0006572735C686333325F6C6C5F64726976E1
:101EE00065725C7372635C686333325F6C6C5F69EC
:101EF00032632E6300000000801A06000040054097
:101F00000080FF1F0000784270B504460F480D4660
:101F100084420AD00E48844207D00E48844204D03E
:101F200040F201210CA0FEF78BFF35B1012D08D046
:101F300040F2022108A0FEF783FFE06820F48060F1
:101F400002E0E06840F48060E06070BD00E00440C2
:101F500000E4044000E804402E2E5C2E2E5C2E2E61
:101F60005C2E2E5C647269766572735C68633332D2
:101F70005F6C6C5F6472697665725C7372635C68D7
:101F80006333325F6C6C5F6932632E630000000064
:101F900070B504460C480D4684420AD00B48844272
:101FA00007D00B48844204D040F28D2109A0FEF7EF
:101FB00047FF15B11548054204D040F28E2105A017
:101FC000FEF73EFF256270BD00E0044000E40440DF
:101FD00000E804402E2E5C2E2E5C2E2E5C2E2E5CF5
:101FE000647269766572735C686333325F6C6C5FD0
:101FF0006472697665725C7372635C686333325FC6
:102000006C6C5F6932632E6300000000A0AD0FFFAF
:1020100070B504460D480D4684420AD00C488442EF
:1020200007D00C48844204D04FF4EF710AA0FEF7A9
:1020300007FF35B1012D04D040F2DF1106A0FEF7F5
:10204000FFFE206865F30000206070BD00E00440E2
:1020500000E4044000E804402E2E5C2E2E5C2E2E60
:102060005C2E2E5C647269766572735C68633332D1
:102070005F6C6C5F6472697665725C7372635C68D6
:102080006333325F6C6C5F6932632E630000000063
:1020900010B504460B4884420AD00B48844207D04E
:1020A0000A48844204D04FF4AE7109A0FEF7C8FE7E
:1020B000206820F001002060206840F4004020608B
:1020C000002010BD00E0044000E4044000E80440AB
:1020D0002E2E5C2E2E5C2E2E5C2E2E5C647269766B
:1020E0006572735C686333325F6C6C5F64726976CF
:1020F00065725C7372635C686333325F6C6C5F69DA
:1021000032632E630000000010B504460848844284
:1021100009D00848844206D00748844203D0C7212A
:1021200006A0FEF78DFE206840F48070206010BD90
:1021300000E0044000E4044000E804402E2E5C2E41
:102140002E5C2E2E5C2E2E5C647269766572735C3A
:10215000686333325F6C6C5F6472697665725C735E
:1021600072635C686333325F6C6C5F6932632E63E9
:102170000000000010B504460848844209D0084811
:10218000844206D00748844203D0E12106A0FEF72E
:1021900057FE206840F40070206010BD00E004404D
:1021A00000E4044000E804402E2E5C2E2E5C2E2E0F
:1021B0005C2E2E5C647269766572735C6863333280
:1021C0005F6C6C5F6472697665725C7372635C6885
:1021D0006333325F6C6C5F6932632E630000000012
:1021E00070B504460E480D4684420AD00D4884421C
:1021F00007D00D48844204D04FF41F710BA0FEF7A6
:102200001FFE15B11748054204D040F27D2107A0FA
:10221000FEF716FEE069284000D0012070BD0000E6
:1022200000E0044000E4044000E804402E2E5C2E50
:102230002E5C2E2E5C2E2E5C647269766572735C49
:10224000686333325F6C6C5F6472697665725C736D
:1022500072635C686333325F6C6C5F6932632E63F8
:102260000000000020A908FF10B58AB0012110204D
:10227000FFF738FA6846FFF737FD2020ADF8060073
:102280000220ADF802004020ADF80A000420ADF8AD
:10229000040001216A460846FFF7F6FA6A468021E3
:1022A0000020FFF7F1FA012131220846FFF73CFC3C
:1022B000302280210020FFF737FC0D4C2046FFF72D
:1022C000E7FE05A800F01CF90A480021CDE9051039
:1022D000079108AA05A9204600F00EF80121204622
:1022E000FFF712FE01212046FFF792FE0AB010BD53
:1022F00000E00440A086010070B516460D000446BB
:1023000041D0224884420AD02148844207D0214843
:10231000844204D04FF4C4711FA0FEF791FD686899
:1023200010B12B49884204D940F289111AA0FEF756
:1023300087FD2868072804D94FF4C57116A0FEF759
:102340007FFD206820F001002060206840F40040FC
:102350002060206840F00100206032462946204677
:10236000FFF7E0FC216821F040012160216821F4A1
:1023700000412160216821F001012160216921F4DF
:102380008051216170BD6FF0020070BD00E004401B
:1023900000E4044000E804402E2E5C2E2E5C2E2E1D
:1023A0005C2E2E5C647269766572735C686333328E
:1023B0005F6C6C5F6472697665725C7372635C6893
:1023C0006333325F6C6C5F6932632E630000000020
:1023D000801A060070B5044611480D4684420AD0A2
:1023E0001048844207D01048844204D040F24D3156
:1023F0000EA0FEF725FD2B4600224FF400312046AB
:1024000000F05AF900280AD12046FFF77DFE2B463E
:102410002046BDE870400122124900F04DB970BD60
:1024200000E0044000E4044000E804402E2E5C2E4E
:102430002E5C2E2E5C2E2E5C647269766572735C47
:10244000686333325F6C6C5F6472697665725C736B
:1024500072635C686333325F6C6C5F6932632E63F6
:10246000000000000100020070B5054613480C464C
:10247000854210D0124885420DD0124885420AD0BC
:1024800040F29B4110A0FEF7DBFC04E0102128463F
:10249000FFF77EFD641E10212846FFF7A1FE0128EC
:1024A00001D1002CF2D12846FFF764FE23462846CE
:1024B000BDE870400122102100F0FEB800E00440A9
:1024C00000E4044000E804402E2E5C2E2E5C2E2EEC
:1024D0005C2E2E5C647269766572735C686333325D
:1024E0005F6C6C5F6472697665725C7372635C6862
:1024F0006333325F6C6C5F6932632E6300000000EF
:10250000002138B14CF250324260002282600260F9
:10251000084670476FF00201FAE700002DE9F0412C
:1025200006462348984615460F4686420AD021485B
:10253000864207D02048864204D040F28A311FA04C
:10254000FEF77EFC35B1012D04D040F28B311BA08B
:10255000FEF776FC7F2F04D94FF4637117A0FEF7C6
:102560006FFC434601228021304600F0A5F80400AC
:102570001BD1780645EA1061304600F0F9F8434671
:1025800045B100224FF48021304600F095F8040058
:1025900003D00AE001220821F6E74FF480513046CB
:1025A000FFF71EFE012800D1841E2046BDE8F08101
:1025B00000E0044000E4044000E804402E2E5C2EBD
:1025C0002E5C2E2E5C2E2E5C647269766572735CB6
:1025D000686333325F6C6C5F6472697665725C73DA
:1025E00072635C686333325F6C6C5F6932632E6365
:1025F000000000002DE9F843054600241D489946D7
:1026000017460E46009485420AD01B48854207D0E3
:102610001A48854204D040F2FE3119A0FEF710FCA2
:102620001EB34FF480580098B84220D0FCB94B46F6
:1026300001228021284600F03FF80400F3D10098E1
:10264000315C284600F094F84B46012208212846C8
:1026500000F032F8044641462846FFF7C1FD012844
:1026600005D00098401C0090DDE76FF00204204682
:10267000BDE8F88300E0044000E4044000E80440C2
:102680002E2E5C2E2E5C2E2E5C2E2E5C64726976B5
:102690006572735C686333325F6C6C5F6472697619
:1026A00065725C7372635C686333325F6C6C5F6924
:1026B00032632E63000000002DE9F04106461A48FF
:1026C000984614460D466FF00707864209D0174812
:1026D000864206D01648864203D0AB2115A0FEF7ED
:1026E000AFFB15B12148054203D0AC2111A0FEF784
:1026F000A7FB2CB1012C03D0AD210EA0FEF7A0FB4F
:10270000F0692840012C01D1854208D0204306D031
:1027100037B1B8F1000F03D0A8F10108F0E70027A6
:102720003846BDE8F081000000E0044000E40440C9
:1027300000E804402E2E5C2E2E5C2E2E5C2E2E5C8D
:10274000647269766572735C686333325F6C6C5F68
:102750006472697665725C7372635C686333325F5E
:102760006C6C5F6932632E630000000020A908FFD3
:1027700070B5044608480D4684420AD00748844292
:1027800007D00748844204D040F2C32105A0FEF7D9
:1027900057FB84F8245070BD00E0044000E404407E
:1027A00000E804402E2E5C2E2E5C2E2E5C2E2E5C1D
:1027B000647269766572735C686333325F6C6C5FF8
:1027C0006472697665725C7372635C686333325FEE
:1027D0006C6C5F6932632E630000000070477047C5
:1027E0007047704770477047704770477047704731
:1027F000704770472DE9F04104004FF000056FF07D
:10280000020619D02088B0F5007F03D3CD211AA08D
:10281000FEF716FB2288500900EB4001202000EB58
:102820004103B4F90200834204D8252303EB41019C
:10283000814203D2202801D335461AE01D4901EB1D
:1028400080010E681C4F1D4BB7EBC65F06D10A60B6
:10285000B4F90210606843F821000AE00968C1F386
:1028600008018A4203D1616843F8201001E06FF04B
:1028700001052846BDE8F0812E2E5C2E2E5C2E2E02
:102880005C2E2E5C647269766572735C68633332A9
:102890005F6C6C5F6472697665725C7372635C68AE
:1028A0006333325F6C6C5F696E74657272757074DD
:1028B000732E63005C100540000080FF6481FF1FE1
:1028C000034810B500688047BFF34F8F10BD00006C
:1028D0006481FF1F034810B540688047BFF34F8FE6
:1028E00010BD00006481FF1F034810B58068804759
:1028F000BFF34F8F10BD00006481FF1F034810B568
:10290000C0688047BFF34F8F10BD00006481FF1F78
:10291000034810B500698047BFF34F8F10BD00001A
:102920006481FF1F034810B540698047BFF34F8F94
:1029300010BD00006481FF1F034810B58069804707
:10294000BFF34F8F10BD00006481FF1F034810B517
:10295000C0698047BFF34F8F10BD00006481FF1F27
:10296000034810B5006A8047BFF34F8F10BD0000C9
:102970006481FF1F034810B5406A8047BFF34F8F43
:1029800010BD00006481FF1F034810B5806A8047B6
:10299000BFF34F8F10BD00006481FF1F034810B5C7
:1029A000C06A8047BFF34F8F10BD00006481FF1FD6
:1029B000034810B5006B8047BFF34F8F10BD000078
:1029C0006481FF1F034810B5406B8047BFF34F8FF2
:1029D00010BD00006481FF1F034810B5806B804765
:1029E000BFF34F8F10BD00006481FF1F034810B577
:1029F000C06B8047BFF34F8F10BD00006481FF1F85
:102A0000034810B5006C8047BFF34F8F10BD000026
:102A10006481FF1F034810B5406C8047BFF34F8FA0
:102A200010BD00006481FF1F034810B5806C804713
:102A3000BFF34F8F10BD00006481FF1F034810B526
:102A4000C06C8047BFF34F8F10BD00006481FF1F33
:102A5000034810B5006D8047BFF34F8F10BD0000D5
:102A60006481FF1F034810B5406D8047BFF34F8F4F
:102A700010BD00006481FF1F034810B5806D8047C2
:102A8000BFF34F8F10BD00006481FF1F034810B5D6
:102A9000C06D8047BFF34F8F10BD00006481FF1FE2
:102AA000034810B5006E8047BFF34F8F10BD000084
:102AB0006481FF1F034810B5406E8047BFF34F8FFE
:102AC00010BD00006481FF1F034810B5806E804771
:102AD000BFF34F8F10BD00006481FF1F034810B586
:102AE000C06E8047BFF34F8F10BD00006481FF1F91
:102AF000034810B5006F8047BFF34F8F10BD000033
:102B00006481FF1F034810B5406F8047BFF34F8FAC
:102B100010BD00006481FF1F034810B5806F80471F
:102B2000BFF34F8F10BD00006481FF1F034810B535
:102B3000C06F8047BFF34F8F10BD00006481FF1F3F
:102B4000034810B5D0F880008047BFF34F8F10BD09
:102B50006481FF1F034810B5D0F884008047BFF39D
:102B60004F8F10BD6481FF1F034810B5D0F8880057
:102B70008047BFF34F8F10BD6481FF1F034810B51E
:102B8000D0F88C008047BFF34F8F10BD6481FF1FCA
:102B9000034810B5D0F890008047BFF34F8F10BDA9
:102BA0006481FF1F034810B5D0F894008047BFF33D
:102BB0004F8F10BD6481FF1F034810B5D0F89800F7
:102BC0008047BFF34F8F10BD6481FF1F034810B5CE
:102BD000D0F89C008047BFF34F8F10BD6481FF1F6A
:102BE000034810B5D0F8A0008047BFF34F8F10BD49
:102BF0006481FF1F034810B5D0F8A4008047BFF3DD
:102C00004F8F10BD6481FF1F034810B5D0F8A80096
:102C10008047BFF34F8F10BD6481FF1F034810B57D
:102C2000D0F8AC008047BFF34F8F10BD6481FF1F09
:102C3000034810B5D0F8B0008047BFF34F8F10BDE8
:102C40006481FF1F034810B5D0F8B4008047BFF37C
:102C50004F8F10BD6481FF1F034810B5D0F8B80036
:102C60008047BFF34F8F10BD6481FF1F034810B52D
:102C7000D0F8BC008047BFF34F8F10BD6481FF1FA9
:102C8000034810B5D0F8C0008047BFF34F8F10BD88
:102C90006481FF1F034810B5D0F8C4008047BFF31C
:102CA0004F8F10BD6481FF1F034810B5D0F8C800D6
:102CB0008047BFF34F8F10BD6481FF1F034810B5DD
:102CC000D0F8CC008047BFF34F8F10BD6481FF1F49
:102CD000034810B5D0F8D0008047BFF34F8F10BD28
:102CE0006481FF1F034810B5D0F8D4008047BFF3BC
:102CF0004F8F10BD6481FF1F034810B5D0F8D80076
:102D00008047BFF34F8F10BD6481FF1F034810B58C
:102D1000D0F8DC008047BFF34F8F10BD6481FF1FE8
:102D2000034810B5D0F8E0008047BFF34F8F10BDC7
:102D30006481FF1F034810B5D0F8E4008047BFF35B
:102D40004F8F10BD6481FF1F034810B5D0F8E80015
:102D50008047BFF34F8F10BD6481FF1F034810B53C
:102D6000D0F8EC008047BFF34F8F10BD6481FF1F88
:102D7000034810B5D0F8F0008047BFF34F8F10BD67
:102D80006481FF1F034810B5D0F8F4008047BFF3FB
:102D90004F8F10BD6481FF1F034810B5D0F8F800B5
:102DA0008047BFF34F8F10BD6481FF1F034810B5EC
:102DB000D0F8FC008047BFF34F8F10BD6481FF1F28
:102DC000034810B5D0F800018047BFF34F8F10BD06
:102DD0006481FF1F034810B5D0F804018047BFF39A
:102DE0004F8F10BD6481FF1F034810B5D0F8080154
:102DF0008047BFF34F8F10BD6481FF1F034810B59C
:102E0000D0F80C018047BFF34F8F10BD6481FF1FC6
:102E1000034810B5D0F810018047BFF34F8F10BDA5
:102E20006481FF1F034810B5D0F814018047BFF339
:102E30004F8F10BD6481FF1F034810B5D0F81801F3
:102E40008047BFF34F8F10BD6481FF1F034810B54B
:102E5000D0F81C018047BFF34F8F10BD6481FF1F66
:102E6000034810B5D0F820018047BFF34F8F10BD45
:102E70006481FF1F034810B5D0F824018047BFF3D9
:102E80004F8F10BD6481FF1F034810B5D0F8280193
:102E90008047BFF34F8F10BD6481FF1F034810B5FB
:102EA000D0F82C018047BFF34F8F10BD6481FF1F06
:102EB000034810B5D0F830018047BFF34F8F10BDE5
:102EC0006481FF1F034810B5D0F834018047BFF379
:102ED0004F8F10BD6481FF1F034810B5D0F8380133
:102EE0008047BFF34F8F10BD6481FF1F034810B5AB
:102EF000D0F83C018047BFF34F8F10BD6481FF1FA6
:102F0000034810B5D0F840018047BFF34F8F10BD84
:102F10006481FF1F034810B5D0F844018047BFF318
:102F20004F8F10BD6481FF1F034810B5D0F84801D2
:102F30008047BFF34F8F10BD6481FF1F034810B55A
:102F4000D0F84C018047BFF34F8F10BD6481FF1F45
:102F5000034810B5D0F850018047BFF34F8F10BD24
:102F60006481FF1F034810B5D0F854018047BFF3B8
:102F70004F8F10BD6481FF1F034810B5D0F8580172
:102F80008047BFF34F8F10BD6481FF1F034810B50A
:102F9000D0F85C018047BFF34F8F10BD6481FF1FE5
:102FA000034810B5D0F860018047BFF34F8F10BDC4
:102FB0006481FF1F034810B5D0F864018047BFF358
:102FC0004F8F10BD6481FF1F034810B5D0F8680112
:102FD0008047BFF34F8F10BD6481FF1F034810B5BA
:102FE000D0F86C018047BFF34F8F10BD6481FF1F85
:102FF000034810B5D0F870018047BFF34F8F10BD64
:103000006481FF1F034810B5D0F874018047BFF3F7
:103010004F8F10BD6481FF1F034810B5D0F87801B1
:103020008047BFF34F8F10BD6481FF1F034810B569
:10303000D0F87C018047BFF34F8F10BD6481FF1F24
:10304000034810B5D0F880018047BFF34F8F10BD03
:103050006481FF1F034810B5D0F884018047BFF397
:103060004F8F10BD6481FF1F034810B5D0F8880151
:103070008047BFF34F8F10BD6481FF1F034810B519
:10308000D0F88C018047BFF34F8F10BD6481FF1FC4
:10309000034810B5D0F890018047BFF34F8F10BDA3
:1030A0006481FF1F034810B5D0F894018047BFF337
:1030B0004F8F10BD6481FF1F034810B5D0F89801F1
:1030C0008047BFF34F8F10BD6481FF1F034810B5C9
:1030D000D0F89C018047BFF34F8F10BD6481FF1F64
:1030E000034810B5D0F8A0018047BFF34F8F10BD43
:1030F0006481FF1F034810B5D0F8A4018047BFF3D7
:103100004F8F10BD6481FF1F034810B5D0F8A80190
:103110008047BFF34F8F10BD6481FF1F034810B578
:10312000D0F8AC018047BFF34F8F10BD6481FF1F03
:10313000034810B5D0F8B0018047BFF34F8F10BDE2
:103140006481FF1F034810B5D0F8B4018047BFF376
:103150004F8F10BD6481FF1F034810B5D0F8B80130
:103160008047BFF34F8F10BD6481FF1F034810B528
:10317000D0F8BC018047BFF34F8F10BD6481FF1FA3
:10318000034810B5D0F8C0018047BFF34F8F10BD82
:103190006481FF1F034810B5D0F8C4018047BFF316
:1031A0004F8F10BD6481FF1F034810B5D0F8C801D0
:1031B0008047BFF34F8F10BD6481FF1F034810B5D8
:1031C000D0F8CC018047BFF34F8F10BD6481FF1F43
:1031D000034810B5D0F8D0018047BFF34F8F10BD22
:1031E0006481FF1F034810B5D0F8D4018047BFF3B6
:1031F0004F8F10BD6481FF1F034810B5D0F8D80170
:103200008047BFF34F8F10BD6481FF1F034810B587
:10321000D0F8DC018047BFF34F8F10BD6481FF1FE2
:10322000034810B5D0F8E0018047BFF34F8F10BDC1
:103230006481FF1F034810B5D0F8E4018047BFF355
:103240004F8F10BD6481FF1F034810B5D0F8E8010F
:103250008047BFF34F8F10BD6481FF1F034810B537
:10326000D0F8EC018047BFF34F8F10BD6481FF1F82
:10327000034810B5D0F8F0018047BFF34F8F10BD61
:103280006481FF1F034810B5D0F8F4018047BFF3F5
:103290004F8F10BD6481FF1F034810B5D0F8F801AF
:1032A0008047BFF34F8F10BD6481FF1F034810B5E7
:1032B000D0F8FC018047BFF34F8F10BD6481FF1F22
:1032C0004A4810B5D0F85C4249480068012803D14B
:1032D000E00701D0FEF7B4F94548001D0068012859
:1032E00003D1A00701D5FEF7ACF9414808300068CA
:1032F000012803D1600701D5FEF7A4F93C480C3042
:103300000068012803D1200701D5FEF79CF9384851
:1033100010300068012803D1E00601D5FEF794F9CA
:10332000334814300068012803D1A00601D5FEF708
:103330008CF92F4818300068012803D1600601D5A8
:10334000FEF784F92A481C300068012803D12006C2
:1033500001D5FEF77CF9264820300068012803D10A
:10336000E00501D5FEF774F92148243000680128F2
:1033700003D1A00501D5FEF76CF91D48283000687F
:10338000012803D1600501D5FEF764F918482C30F7
:103390000068012803D1200501D5FEF75CF9144827
:1033A00030300068012803D1E00401D5FEF754F95C
:1033B0000F4834300068012803D1A00401D5FEF77E
:1033C0004CF90B4838300068012803D1600401D55E
:1033D000FEF744F906483C300068012803D1200478
:1033E00001D5FEF73CF9BFF34F8F10BD001005402B
:1033F000800AA2422DE9F05FDD48D0F86042DD4846
:103400000068DD4EDD4D012822D1D5F8000238B923
:10341000D5F80001012803D1E00701D0FDF75AFDDE
:10342000D5F8400238B9D5F84001012803D1E005AC
:1034300001D5FDF747FD7068F26800F001114FF00B
:1034400001109043014203D0E00301D5FDF73EFD9A
:10345000CB48D0F8B0034FF0021A012821D1D5F89B
:10346000040238B9D5F80401012803D1A00701D519
:10347000FDF731FDD5F8440238B9D5F844010128EB
:1034800003D1A00501D5FDF71EFD7068F26800F0BC
:1034900002112AEA0200014203D0E00301D5FDF740
:1034A00016FDB84800684FF0041B012821D1D5F85B
:1034B000080238B9D5F80801012803D1600701D501
:1034C000FDF70AFDD5F8480238B9D5F848010128BA
:1034D00003D1600501D5FDF7F7FC7068F26800F0D4
:1034E00004112BEA0200014203D0E00301D5FDF7ED
:1034F000EFFCA548D0F8B0034FF00819012821D1FE
:10350000D5F80C0238B9D5F80C01012803D12007F1
:1035100001D5FDF7E2FCD5F84C0238B9D5F84C01DD
:10352000012803D1200501D5FDF7CFFC7068F268B2
:1035300000F0081129EA0200014203D0E00301D59E
:10354000FDF7C7FC91480068DFF84482904F914E28
:1035500008F10808012823D1D6F8000238B9D6F8B6
:103560000001012803D1E00601D5FDF7BFFCD6F824
:10357000400238B9D6F84001012803D1E00401D552
:10358000FDF7ACFC3868D8F8002000F001114FF0CE
:1035900001109043014203D0A00301D5FDF7A2FC26
:1035A0007D48D0F8B003012822D1D6F8040238B9FA
:1035B000D6F80401012803D1A00601D5FDF797FC38
:1035C000D6F8440238B9D5F84401012803D1A00443
:1035D00001D5FDF784FC3868D8F8002000F002110E
:1035E0002AEA0200014203D0A00301D5FDF77BFCCB
:1035F0006A480068012822D1D6F8080238B9D6F8FE
:103600000801012803D1600601D5FDF771FCD6F849
:10361000480238B9D5F84801012803D1600401D522
:10362000FDF75EFC3868D8F8002000F004112BEAA2
:103630000200014203D0A00301D5FDF755FC584814
:10364000D0F8B003012822D1D6F80C0238B9D6F848
:103650000C01012803D1200601D5FDF74AFCD6F85C
:103660004C0238B9D5F84C01012803D1200401D50A
:10367000FDF737FC3868D8F8002000F0081129EA77
:103680000200014203D0A00301D5FDF72EFC454DF9
:10369000D5F80003012807D143480068000703D08C
:1036A000600301D5FDF76EFFD5F80803012807D1A7
:1036B000D5F81402012803D1200301D5FDF760FFDE
:1036C000D5F80403012807D1D5F81002012803D149
:1036D000E00201D5FDF755FF4FF01C40C068000621
:1036E00003D5600201D501F0BEFC3048C06F01284F
:1036F00009D12F49886949680840400603D0200253
:1037000001D5FDF799FB2B48C06F01280BD12A4842
:1037100000682949143909680840400603D0E001CF
:1037200001D5FDF78AFB2548C06F01280BD124483D
:1037300000682349143909680840400603D0A001F5
:1037400001D5FDF77BFB1F48C06F01280BD11E4838
:1037500000681D49143909680840400603D060011B
:1037600001D5FDF76CFBBFF34F8FBDE8F09F000064
:1037700000100540B00BA642003005400000A642F4
:103780000010A642B01BA6420020A642B08BA64263
:10379000043405400080A6420090A642B09BA64299
:1037A00000A0A64200802042100401400000A44274
:1037B000002005400080A442182405400000A542D6
:1037C000182805400080A542182C054070B52B48EC
:1037D000D0F864422A4DD5F80802012807D1D5F85F
:1037E0008002012803D1E00701D002F085FAD5F864
:1037F0004802012807D1D5F8C002012803D1A0074B
:1038000001D502F07AFA1F4DD5F80802012807D138
:10381000D5F88002012803D1600701D502F06EFAC5
:10382000D5F84802012807D1D5F8C002012803D1F4
:10383000200701D502F063FA134890F84010C90739
:1038400007D090F84100C00703D0A00201D5FDF7D2
:10385000ABFA0E480088C00403D5600201D501F020
:1038600001FC0B48006810F4403F03D0200201D552
:1038700001F0D0FFBFF34F8F70BD00000010054076
:1038800000004842008048420040054000C4044017
:10389000049404402DE9F0419B48D0F868429B48CD
:1038A0000068012807D19A480068012803D1E00781
:1038B00001D002F046FA9548001D0068012808D1A1
:1038C0009348001D0068012803D1A00701D502F02C
:1038D00039FA8E4808300068012808D18C48083031
:1038E0000068012803D1600701D502F02CFA87484F
:1038F0000C300068012808D185480C300068012888
:1039000003D1200701D502F01FFA8048103000686B
:10391000012808D17E4810300068012803D1E00654
:1039200001D502F012FA794814300068012808D154
:10393000774814300068012803D1A00601D502F0B1
:1039400005FA724818300068012808D1704818300C
:103950000068012803D1600601D502F0F9F96B482F
:103960001C300068012808D169481C300068012813
:1039700003D1200601D502F0ECF96448203000683C
:10398000012808D1624820300068012803D1E005F1
:1039900001D502F0DCF95F4D686D4FF4C066296F08
:1039A00006EAD01001F4C061084203D0200501D519
:1039B00002F0D0F9686D4FF4C057296F07EAD010B4
:1039C00001F4C051084203D0E00401D502F0C3F96C
:1039D00051480068012807D150480068012803D1E8
:1039E000E00301D502F0B8F94B48001D006801283A
:1039F00008D14A48001D0068012803D1A00301D561
:103A000002F0ABF9444808300068012808D1434867
:103A100008300068012803D1600301D502F09EF947
:103A20003D480C300068012808D13C480C30006843
:103A3000012803D1200301D502F091F93648103056
:103A40000068012808D1354810300068012803D1EA
:103A5000E00201D502F084F92F48143000680128F3
:103A600008D12E4814300068012803D1A00201D5E6
:103A700002F077F9284818300068012808D1274853
:103A800018300068012803D1600201D502F06BF9FB
:103A900021481C300068012808D120481C300068EB
:103AA000012803D1200201D502F05EF91A48203026
:103AB0000068012808D1194820300068012803D186
:103AC000E00101D502F04EF9154D286806EAD01044
:103AD000134E1C36316801F4C061084203D0200146
:103AE00001D502F042F92868316807EAD01001F4E4
:103AF000C051084203D0E00001D502F037F9BFF30E
:103B00004F8FBDE8F081000000100540800A304270
:103B1000000E304200800140808A3042008E3042E8
:103B20005484014070B55048D0F86C424F4800684A
:103B3000012807D14E480068012803D1E00701D0D1
:103B400002F015F94948001D0068012808D14848CD
:103B5000001D0068012803D1A00701D502F008F973
:103B6000424808300068012808D141480830006800
:103B7000012803D1600701D502F0FBF83B480C3067
:103B80000068012808D13A480C300068012803D1A8
:103B9000200701D502F0EEF8344810300068012803
:103BA00008D1334810300068012803D1E00601D560
:103BB00002F0E1F82D4814300068012808D12C48A3
:103BC00014300068012803D1A00601D502F0D4F812
:103BD000264818300068012808D1254818300068A8
:103BE000012803D1600601D502F0C8F81F481C3037
:103BF0000068012808D11E481C300068012803D144
:103C0000200601D502F0BBF81848203000680128D2
:103C100008D1174820300068012803D1E00501D5FC
:103C200002F0ABF8134E3068124D4FF4C0611C35F2
:103C300001EAD010296801F4C061084203D02005D0
:103C400001D502F09DF830684FF4C05101EAD01060
:103C5000296801F4C051084203D0E00401D502F004
:103C600090F8BFF34F8F70BD00100540800A3142BD
:103C7000000E3142548801402DE9F0419A48D0F8B5
:103C80007C429A4D286B012806D1A86B012803D1EC
:103C9000E00701D002F0B3FB686B012806D1E86BA6
:103CA000012803D1A00701D502F0AAFB904931F801
:103CB000900F8989084010F0FF0F03D0600701D5ED
:103CC00002F09CFB8B4D286B012806D1A86B0128C4
:103CD00003D1200701D502F095FB686B012806D1BE
:103CE000E86B012803D1E00601D502F08CFB824885
:103CF000008881490C310988084010F0FF0F03D07B
:103D0000A00601D502F07DFB7C4D286B012806D171
:103D1000A86B012803D1600601D502F076FB686B21
:103D2000012806D1E86B012803D1200601D502F055
:103D30006DFB7348008872490C310988084010F007
:103D4000FF0F03D0E00501D502F05EFB6D4D286B3F
:103D5000012806D1A86B012803D1A00501D502F0E6
:103D600057FB686B012806D1E86B012803D1600579
:103D700001D502F04EFB6448008863490C31098884
:103D8000084010F0FF0F03D0200501D502F03FFBE3
:103D90005E4D286B012806D1A86B012803D1E004F1
:103DA00001D502F038FB686B012806D1E86B0128C9
:103DB00003D1A00401D502F02FFB554931F8900F33
:103DC0008989084010F0FF0F03D0600401D502F08C
:103DD00021FB504D286B012806D1A86B012803D187
:103DE000E00301D502F01AFB686B012806D1E86BED
:103DF000012803D1A00301D502F011FB4648008839
:103E000045490C310988084010F0FF0F03D06003CA
:103E100001D502F002FB4FF08740D0F800010128E5
:103E20000BD13E4881693E4A406911401040014231
:103E300003D0200301D502F007FB3A480768C568A4
:103E4000A80606D517F00B0F03D0600201D502F0CB
:103E5000E7FA05EA0706B00603D5200201D502F00D
:103E6000E0FA300603D5E00101D502F0DDFA700674
:103E700003D5A00101D502F0D6FAA80705D5F805AB
:103E800003D5600101D502F0CDFA2748076826481E
:103E90000C300568A80606D517F00B0F03D02001DB
:103EA00001D502F0C2FA05EA0706B00603D5E00024
:103EB00001D502F0BBFA300603D5A00001D502F00F
:103EC000B8FA700603D5600001D502F0B1FAA80770
:103ED00005D5F80503D5002C01DA02F0A8FABFF3E6
:103EE0004F8FBDE8F08100000010054000102A420D
:103EF0000050014000902A429054014000102B4293
:103F00009058014000902B42905C014000102C42E0
:103F10000060014000902C429064014000000C4081
:103F2000FBFC7CF700D0014000D401402DE9F041BA
:103F30007648D0F8804276480668C568A80606D557
:103F400016F00B0F03D0E00701D002F073FA05EA78
:103F50000607B80603D5A00701D502F06CFA3806AB
:103F600003D5600701D502F069FA780603D520076A
:103F700001D502F062FAA80705D5F00503D5E006E1
:103F800001D502F059FA6348076862480C300568A9
:103F9000A80606D517F00B0F03D0A00601D502F036
:103FA0004EFA05EA0706B00603D5600601D502F011
:103FB00047FA300603D5200601D502F044FA700610
:103FC00003D5E00501D502F03DFAA80705D5F805AF
:103FD00003D5A00501D502F034FA4F48456846697B
:103FE000680505D5300603D5200501D501F040F858
:103FF000A80505D5B00603D5E00401D501F039F8D0
:10400000280505D5B00703D4A00401D501F02FF889
:10401000E80506D516F01D0F03D0600401D501F0A8
:1040200025F83E4805683D4810300668680505D506
:10403000300603D5E00301D501F01EF8A80505D52B
:10404000B00603D5A00301D501F017F8280505D562
:10405000B00703D4600301D501F00DF8E80506D5DB
:1040600016F01D0F03D0200301D501F003F82C48F2
:1040700045684669680505D5300603D5A00201D517
:1040800000F0FEFFA80505D5B00603D5600201D5F6
:1040900000F0F7FF280505D5B00703D4200201D5AD
:1040A00000F0EDFFE80506D516F01D0F03D0E00186
:1040B00001D500F0E3FF1B4805681A481030066878
:1040C000680505D5300603D5600101D500F0DCFF99
:1040D000A80505D5B00603D5200101D500F0D5FF10
:1040E000280505D5B00703D4E00001D500F0CBFFCB
:1040F000E80506D516F01D0F03D0A00001D500F08D
:10410000C1FFBFF34F8FBDE8F081000000100540F4
:10411000001002400014024000C0014004C40140ED
:10412000000002400404024070B56648D0F88442A2
:10413000654D2E8BE00705D0F00603D5700601D53E
:1041400001F0DEFDA00705D5B00603D5300601D588
:1041500001F0D7FDAE8B600705D5F00603D57006DC
:1041600001D501F0CFFD200705D5B00603D53006F7
:1041700001D501F0C8FD2E8CE00605D5F00603D56B
:10418000700601D501F0C0FDA00605D5B00603D527
:10419000300601D501F0B9FDB5F84860600605D5D7
:1041A000F00503D5B00501D501F0B0FD200605D519
:1041B000B00403D5700401D501F0A9FDB5F8A450F1
:1041C000E00505D5E80703D1E80601D501F0A0FD1B
:1041D000A00505D5A80703D4E80501D501F099FD90
:1041E000600505D5680703D4E80401D501F092FD08
:1041F00036480588E00305D5E80603D5680601D5ED
:1042000001F07EFDA00305D5A80603D5280601D53B
:1042100001F077FD2D48001D0588600305D5E806EF
:1042200003D5680601D501F078FD200305D5A80661
:1042300003D5280601D501F071FD24480830058812
:10424000E00205D5E80603D5680601D501F067FD53
:10425000A00205D5A80603D5280601D501F060FD0A
:104260001A4830300588600205D5E80503D5A80551
:1042700001D501F056FD200205D5A80403D5680438
:1042800001D501F04FFD11488C300588E00105D5BE
:10429000E80703D1E80601D501F045FDA00105D5E9
:1042A000A80703D4E80501D501F03EFD600105D55E
:1042B000680703D4E80401D501F037FDBFF34F8F41
:1042C00070BD000000100540007001401848024019
:1042D00070B53648D0F8884235480588E00705D0E3
:1042E000E80603D5680601D501F020FDA00705D535
:1042F000A80603D5280601D501F019FD2C48001D9C
:104300000588600705D5E80603D5680601D501F0E4
:104310000FFD200705D5A80603D5280601D501F015
:1043200008FD234808300588E00605D5E80603D5D2
:10433000680601D501F0FEFCA00605D5A80603D548
:10434000280601D501F0F7FC1948303005886006D1
:1043500005D5E80503D5A80501D501F0EDFC20063B
:1043600005D5A80403D5680401D501F0E6FC104882
:104370008C300588E00505D5E80703D1E80601D5AE
:1043800001F0C6FCA00505D5A80703D4E80501D5B2
:1043900001F0D5FC600505D5680703D4E80401D514
:1043A00001F0CEFCBFF34F8F70BD00000010054040
:1043B000184C024070B56648D0F88C4265480068D9
:1043C000644900F00F000831096801F00F0108424C
:1043D00003D0600601D5FDF72FF95E482030006854
:1043E0005C4900F00F002831096801F00F01084214
:1043F00003D0200601D5FDF720F95648403000686B
:10440000544900F00F004831096801F00F010842DB
:1044100003D0E00501D5FDF711F94E486030006882
:104420004C4900F00F006831096801F00F010842A3
:1044300003D0A00501D5FDF702F9474D68680128B2
:1044400007D1D5F88000012803D1E00301D5FEF79C
:10445000C7F9E868012807D1D5F88400012803D1FD
:10446000A00301D5FEF7BBF92869012807D13B4815
:104470008068800703D0600301D5FEF7AFF9384D9F
:104480006868012807D1D5F88000012803D12003EE
:1044900001D5FEF7A8F9E868012807D1D5F884000E
:1044A000012803D1E00201D5FEF79CF92869012813
:1044B00007D12C480068800703D0A00201D5FEF781
:1044C00090F9294D6868012807D1D5F880000128A6
:1044D00003D1600201D5FEF789F9E868012807D108
:1044E000D5F88400012803D1200201D5FEF77DF91B
:1044F0002869012807D11D488068800703D0E001A2
:1045000001D5FEF771F91A4D6868012807D1D5F871
:104510008000012803D1A00101D5FEF76AF9E868FF
:10452000012807D1D5F88400012803D1600101D505
:10453000FEF75EF92869012807D10E480068800758
:1045400003D0200101D5FEF752F9BFF34F8F70BDA4
:10455000001005400C7C014000003C4200E001409E
:1045600000803C4208E40140000044420020024038
:10457000008044420824024070B57248D0F890424E
:10458000714DD5F89800012807D1D5F89803012876
:1045900003D1E00601D5FDF7B9FBD5F89C00012851
:1045A00007D1D5F89C03012803D1A00601D5FDF75A
:1045B000AFFBD5F88C00012807D1D5F88C03012872
:1045C00003D1600601D5FDF7A2FB60494868604E43
:1045D000C96930403140084203D0200601D5FDF7BB
:1045E00094FB5C4DD5F89800012807D1D5F89803C5
:1045F000012803D1E00501D5FDF78CFBD5F89C001F
:10460000012807D1D5F89C03012803D1A00501D5C5
:10461000FDF782FBD5F88C00012807D1D5F88C0373
:10462000012803D1600501D5FDF775FB4A480068F4
:1046300049493040183109683140084203D020050B
:1046400001D5FDF766FB454DD5F89800012807D147
:10465000D5F89803012803D1E00401D5FDF75EFBEE
:10466000D5F89C00012807D1D5F89C03012803D177
:10467000A00401D5FDF754FBD5F88C00012807D123
:10468000D5F88C03012803D1600401D5FDF747FB61
:1046900033480068324930401831096831400842D7
:1046A00003D0200401D5FDF738FB2E4D28782E4E7F
:1046B00000F00300012807D196F8E100800703D538
:1046C000A00301D500F0CCFC2878C0F3011001282C
:1046D00007D196F8E100800603D5600301D500F00C
:1046E000C0FC224DD5F80003012807D1D5F880037E
:1046F000012803D1E00201D5FDF769F8D5F80403DC
:10470000012807D1D5F88403012803D1A00201D5DF
:10471000FDF75CF8D5F80803012807D1D5F8880320
:10472000012803D1600201D5FDF752F81048406816
:1047300010F4403F03D0200201D501F086FEBFF304
:104740004F8F70BD0010054000009C4200E0044007
:104750001752F00000809C4204E4044000009D4297
:1047600004E80440134405400040054000809042A6
:104770000090044070B53548D0F894423448006841
:10478000012808D1324820380068012803D1E00709
:1047900001D0FBF7ABFF2E48001D0068012808D1AF
:1047A0002B481C380068012803D1A00701D5FBF76E
:1047B0009EFF284D2868284E012807D1D6F8B00062
:1047C000C00303D0600701D5FBF78FFF28680128DD
:1047D00007D1D6F8B000C00303D0200701D5FBF7FE
:1047E00087FF1E480068012808D11C48203800684F
:1047F000012803D1E00601D5FBF77CFF1748001D17
:104800000068012808D115481C380068012803D128
:10481000A00601D5FBF76FFF114D2868114E012846
:1048200006D13068C00503D0600601D5FBF761FFF3
:104830002868012806D13068C00503D0200601D5BC
:10484000FBF75AFFBFF34F8F70BD0000001005400B
:10485000E00880422014804200000440E08880424A
:1048600020948042B004044070B52A48D0F89842A1
:1048700040F2F715600740F27F1611D526480088F0
:10488000254908310B88891F0988234A0A32128872
:104890001840284202D11140314201D000F0E4FB1F
:1048A000A0060CD51D48018E038F428E408F194003
:1048B000294202D10240324201D000F0D6FB60060C
:1048C00025D517480278401E0378801C00781449CB
:1048D0001A3109788C0618D4D40716D11A40520818
:1048E00013D1C20701D082070FD4420701D50207B6
:1048F0000BD4C20601D5800607D4080701D5C80627
:1049000003D4480603D5080601D5FBF7C5FFBFF35E
:104910004F8F70BD0010054030FC0640000007407E
:10492000A50407402DE9F04104461D4616460F46F2
:104930002A2000F06DFA204600F040FA304600F0E0
:104940003DFA2B2000F064FA384600F037FA28468A
:1049500000F034FABDE8F0412C2000F059BA10B54F
:1049600086B06846FDF7C0F90220ADF802000120CC
:10497000ADF800002020ADF806004020ADF80A0098
:1049800001466A460120FCF77FFF6A4608210120A4
:10499000FCF77AFF4FF400446A4621460020FCF7FA
:1049A00073FF6A4680210120FCF76EFF4021012041
:1049B000FDF71AF908210120FDF716F9214600201C
:1049C000FDF712F980210120FDF70EF906B010BDA8
:1049D00010B5FFF7C4FF4FF4004421460020FDF757
:1049E0001FF81E20FCF72EFA21460020FDF7FCF8E8
:1049F0006420FCF727FA80210120FDF7F5F86420F8
:104A0000FCF720FA112000F003FA362000F000FA3B
:104A1000002000F0EAF93A2000F0FAF9052000F051
:104A2000E4F9B22000F0F4F90C2000F0DEF90C20DB
:104A300000F0DBF9002000F0D8F9332000F0D5F9C0
:104A4000332000F0D2F9B72000F0E2F9352000F071
:104A5000CCF9BB2000F0DCF9352000F0C6F9C0200D
:104A600000F0D6F92C2000F0C0F9C22000F0D0F9F7
:104A7000012000F0BAF9C32000F0CAF9132000F0B9
:104A8000B4F9C42000F0C4F9202000F0AEF9C6202B
:104A900000F0BEF90F2000F0A8F9D02000F0B8F91E
:104AA000A42000F0A2F9A12000F09FF9D62000F088
:104AB000AFF9A12000F099F9E02000F0A9F9F02069
:104AC00000F093F9002000F090F9042000F08DF937
:104AD000042000F08AF9042000F087F9052000F096
:104AE00084F9292000F081F9332000F07EF93E207E
:104AF00000F07BF9382000F078F9122000F075F909
:104B0000122000F072F9282000F06FF9302000F038
:104B10006CF9E12000F07CF9F02000F066F9072044
:104B200000F063F90A2000F060F90D2000F05DF953
:104B30000B2000F05AF9072000F057F9282000F068
:104B400054F9332000F051F93E2000F04EF93620A0
:104B500000F04BF9142000F048F9142000F045F95A
:104B6000292000F042F9322000F03FF9212000F026
:104B70004FF9112000F04CF97820FCF763F9BDE8FB
:104B80001040292000F044B92DE9F0419EB013A84F
:104B9000FDF7AAF840202027ADF85600ADF8527076
:104BA00013AA10210120FCF76FFE13AA2021012077
:104BB000FCF76AFE2B2210210120FCF7B5FF28220A
:104BC00020210120FCF7B0FF01218804FCF78AFDB9
:104BD000684600F023FC00240220CDE900400820B4
:104BE00002900320CDE904407801CDE906403C4E17
:104BF0000894694630460A9400F0F6FA1A941B9419
:104C00001AA81C9400F096FA01214FF41030FCF71A
:104C100027FD0BA8FCF71EFC01250F9510950E949F
:104C2000CDE911540BAA280382E85100DFF8B480C3
:104C300000214046FCF7C0FA00B1FEE72A4C4FF4D1
:104C40009B712046FBF79CFD012291072046FBF754
:104C500055FD254840F23F115430FBF791FDADF86A
:104C600060700620ADF862002048199018A8FDF782
:104C7000C1FDBDF96200002809DB00F01F0105FA43
:104C800001F14009800000F1E020C0F88012BDF978
:104C90006210F020002904DB01F1E02181F800041A
:104CA00005E001F00F0101F1E02181F8140DBDF9DB
:104CB0006200002808DB00F01F018D4040098000E1
:104CC00000F1E020C0F8005101214046FCF710FA45
:104CD0000121304600F0DAF91EB0BDE8F081000095
:104CE0000000024000300540140801407914000023
:104CF0002DE9F05F02FB03F40B4402445B1E521EDD
:104D0000670000269BB292B2FFF70CFE4021012003
:104D1000FCF786FE08210120FCF766FF234D4FF0CB
:104D2000010885F800804EF66029DFF884A024E0B1
:104D3000B81B4C46A04200D8044628780028FCD076
:104D400000202870DFF86CB0024601465846FCF798
:104D5000D1F80A98002182195846FCF7D9FAA2B274
:104D600000215846FCF720FB012200215846FCF7A1
:104D7000C1F81149C1F800802644BE42D8D3287832
:104D80000028FCD054462021204600F0DDF9002800
:104D9000F9D00221204600F0D7F90028F9D0BDE86B
:104DA000F05F40210120FCF71FBF00000880FF1FBB
:104DB00000000240003005400000214270B5040AA6
:104DC000C5B240210120FCF72BFE08210120FCF791
:104DD0000BFF204600F030F8284600F02DF8BDE823
:104DE000704040210120FCF7FFBE10B50446402171
:104DF0000120FCF715FE08210120FCF7F5FE2046F6
:104E000000F01AF84021BDE810400120FCF7ECBE8C
:104E100010B5044640210120FCF702FE08210120C4
:104E2000FCF7FEFD204600F007F84021BDE81040E9
:104E30000120FCF7D9BE000001B50A230122694612
:104E4000014800F0FEFA08BD0000024010B58EB027
:104E500006A801F0C1FA684601F08CF90121880426
:104E6000FCF77AFC03224FF400410120FCF75CFEC2
:104E70001020079041F28830184C0C9006A920466B
:104E800000F0CEFF00220121204601F019FA012294
:104E90001146204600F076FF00220321204601F053
:104EA00077F90120049000210320CDE902100820A9
:104EB000019105906A460121204601F055F8002233
:104EC0000121204601F0ACF901221146204601F0F3
:104ED000FBF8204601F048FA0EB010BD00880140F2
:104EE000642800D9642041F2883110FB01F064216C
:104EF000B0FBF1F20321014801F04AB900880140FA
:104F0000C10706D0164940F223120A6043F210226C
:104F10000A60810702D5144A12491161410703D57D
:104F2000124A4AF2015111801149C20606D5B1F860
:104F3000FE234AF208531A43A1F8FE23420606D57F
:104F4000B1F8FE334AF203521343A1F8FE330006D0
:104F500005D5084977200860064908310860704780
:104F6000000401400100A5A500800440FC3B054071
:104F7000004005400408054010B586B06846FCF7BF
:104F8000B3FE0024ADF800400220ADF80200FFF7A8
:104F90005DFF6A4680210120FCF776FC6A464FF4EB
:104FA00080710120FCF770FC4020ADF80A00ADF8DC
:104FB00002406A4620210020FCF766FC6A46402138
:104FC0000020FCF761FC6A4610210020FCF75CFC25
:104FD0004FF40040ADF810006A4601210020FCF7B4
:104FE00053FC06B010BD00000D4810B5B0F8FE032C
:104FF000800704D440F2AD410AA0FBF721FF174817
:10500000017801F0C00141F00F0101701349102037
:105010000D3108701E20FBF735FF002010BD000089
:10502000004005402E2E5C2E2E5C2E2E5C2E2E5C1B
:10503000647269766572735C686333325F6C6C5F4F
:105040006472697665725C7372635C686333325F45
:105050006C6C5F7077632E630000000002440540B3
:105060007047704770477047704770477047704788
:105070007047704770477047704770477047704778
:1050800070477047704770477047704770B5044667
:1050900016480D4684420DD0154884420AD0154862
:1050A000844207D01448844204D040F2622113A005
:1050B000FBF7C6FE35B1012D04D040F263210FA0ED
:1050C000FBF7BEFE6069400705D535B14FF4197195
:1050D0000AA0FBF7B5FE012D04D0606820F0400067
:1050E000606070BD606840F04000F9E700C00140BA
:1050F00000C4014000000240000402402E2E5C2E3D
:105100002E5C2E2E5C2E2E5C647269766572735C4A
:10511000686333325F6C6C5F6472697665725C736E
:1051200072635C686333325F6C6C5F7370692E63AB
:10513000000000006FF0020118B100210160416021
:10514000816008467047000070B505461448002687
:105150000C4685420DD0134885420AD0124885423C
:1051600007D01248854204D04FF4257110A0FBF7F8
:1051700067FE14B134F0BF0004D040F295210CA0BA
:10518000FBF75EFE6869A10704D524F002048107DD
:1051900000D40126204200D00126304670BD000018
:1051A00000C0014000C40140000002400004024071
:1051B0002E2E5C2E2E5C2E2E5C2E2E5C647269765A
:1051C0006572735C686333325F6C6C5F64726976BE
:1051D00065725C7372635C686333325F6C6C5F73BF
:1051E00070692E63000000002DE9F0410546794802
:1051F0000C466FF0020685420DD0774885420AD0F2
:105200007648854207D07648854204D040F2ED11B9
:1052100074A0FBF715FE002C7ED0206830B1012869
:1052200004D04FF4F8716FA0FBF70AFE606830B14C
:10523000022804D040F2F1116AA0FBF701FEA06839
:1052400030B1082804D04FF4F97166A0FBF7F8FDDF
:10525000E0684FF4805730B1B84204D040F2F31107
:1052600060A0FBF7EDFD206950B1B0F5004F07D00D
:10527000B0F5404F04D04FF4FA715AA0FBF7E0FDAF
:10528000606950B1012808D0022806D0032804D054
:1052900040F2F51153A0FBF7D3FDA06990B10428AB
:1052A00010D008280ED00C280CD010280AD01428B2
:1052B00008D0182806D01C2804D04FF4FB7149A050
:1052C000FBF7BEFDE06940B3B0F5807F31D0B0F5AB
:1052D000007F2ED0B0F5407F2BD0B0F5806F28D066
:1052E000B0F5A06F25D0B0F5C06F22D0B0F5E06F5B
:1052F0001FD0B0F5006F1CD0B0F5106F19D0B0F50D
:10530000206F16D0B0F5306F13D0B0F5406F10D0CD
:10531000B0F5506F0DD001E052E00AE0B0F5606FDB
:1053200007D0B0F5706F04D040F2F7112DA0FBF755
:1053300087FD206A30B1B84204D04FF4FC7129A037
:10534000FBF77EFD606A30B1802804D040F2F9118D
:1053500024A0FBF775FDA06A50B1012808D00228EF
:1053600006D0032804D04FF4FD711EA0FBF768FDA2
:10537000A168082902D1E068B84221D0206801283C
:1053800004D119B96269DAB1022A19D062681043EE
:10539000626A11430843E168084321690843686071
:1053A00094F82810E86861F30100E860A068082814
:1053B00009D0E16960690843216A0843A8610026B1
:1053C0003046BDE8F081D4E905010843D4E907126D
:1053D0001143F2E700C0014000C401400000024058
:1053E000000402402E2E5C2E2E5C2E2E5C2E2E5C97
:1053F000647269766572735C686333325F6C6C5F8C
:105400006472697665725C7372635C686333325F81
:105410006C6C5F7370692E63000000006FF0020116
:1054200068B1002108220160C0E90112C160016178
:10543000C0E90512D201C0E9072141628162084634
:10544000704738B504466FF0020000290CD0002ADE
:105450000AD0606800F00200022806D000931346CC
:105460000022204600F07EF838BD01B02046BDE89D
:10547000304000F001B800002DE9FF4F85B04FF03B
:1054800000090446CDF80890C06817468A46C84609
:1054900000F003056D1CB2FBF5F005FB107020B1A8
:1054A0004FF4D97121A0FBF7CBFCA0694FF4806BBE
:1054B00000F4706626E05A464FF44061CDF8009043
:1054C00014E0964203D8029B1AF8030007E0029BFF
:1054D0008E4202D83AF8130001E05AF82300206007
:1054E0000098401C00900298401C02900098A8422E
:1054F000E7D3202211462046089B00F017F95FEA07
:10550000000802D10298B842D5D36068000709D5D7
:10551000B8F1000F06D1002202212046089B00F0BE
:1055200005F9804609B04046BDE8F08F2E2E5C2E6E
:105530002E5C2E2E5C2E2E5C647269766572735C16
:10554000686333325F6C6C5F6472697665725C733A
:1055500072635C686333325F6C6C5F7370692E6377
:10556000000000002DE9F04F89B04FF0000A04461A
:10557000CDF808A00120CDF80CA0CDF81CA000901B
:10558000E068984691468B46564600F003056D1C30
:10559000B3FBF5F105FB118020B140F2491155A094
:1055A000FBF74EFC606800F008000690A06900F46C
:1055B00070678BE0029941453FD2202200231146BB
:1055C000204600F0B3F80099012936D1A8BB06980F
:1055D000082800D088BBBBF1000FCDF800A01DD07B
:1055E0004FF480614FF4406214E08F4203D8029B75
:1055F0001BF8030007E0029B974202D83BF8130018
:1056000001E05BF8230020600098401C00900298A5
:10561000401C02900098A842E7D30CE04FF0FF3006
:1056200006E020600099491C00910299491C0291F2
:105630000099A942F5D3CDF800A08022002311469D
:10564000204600F073F8060037D1B9F1000F21D0E1
:105650004FF480614FF44062CDF800A016E020685E
:105660008F4204D8DDF80CC009F80C0008E0DDF822
:105670000CC0974202D829F81C0001E049F82C0020
:105680000098401C00900398401C03900098A8428A
:10569000E5D30EE05046CDF800A008E02068079062
:1056A0000098401C00900398401C03900098A8426A
:1056B000F4D30120CDF81CA00090079912988142E4
:1056C00002D96FF0070605E0481C07900399414591
:1056D000FFF470AF6068000707D536B900220221D9
:1056E0002046129B00F022F8064609B03046BDE87D
:1056F000F08F00002E2E5C2E2E5C2E2E5C2E2E5C4B
:10570000647269766572735C686333325F6C6C5F78
:105710006472697665725C7372635C686333325F6E
:105720006C6C5F7370692E630000000030B5044636
:10573000002001E02BB15B1E65690D409542F9D157
:1057400030BD6FF0070030BD2DE9F04117460D4622
:1057500004004FF0000601D0200903D0C7211EA08D
:10576000FBF76EFB072D03D9C8211BA0FBF768FBD5
:10577000072F03D9C92118A0FBF762FB2448006852
:10578000772803D0CA2114A0FBF75AFBDFF880E08A
:105790000723AEF1040E002C1BD0E00715D0F0005B
:1057A000011D05FA01FC07FA00F24CEA020C03FAAB
:1057B00001F203FA00F10A43DEF800000CEA020CE1
:1057C00090434CEA000CCEF800C06408761CF6B298
:1057D000E1E7BDE8F08100002E2E5C2E2E5C2E2E1F
:1057E0005C2E2E5C647269766572735C686333321A
:1057F0005F6C6C5F6472697665725C7372635C681F
:105800006333325F6C6C5F7372616D2E63000000F6
:1058100004080540704700002DE9FF41754D06461C
:105820000C4628680027009068680190A8680290DC
:10583000E86811F0E06F039012D0C4F30260012811
:105840000ED002280CD003280AD0042808D005283E
:1058500006D0062804D040F2A12167A0FBF7F0FA99
:1058600014F0700F12D0C4F3021001280ED00228D9
:105870000CD003280AD0042808D0052806D0062812
:1058800004D040F2A2215CA0FBF7DAFA14F4E02F76
:1058900012D0C4F3024001280ED002280CD00328F5
:1058A0000AD0042808D0052806D0062804D040F2E3
:1058B000A32151A0FBF7C4FA14F4E00F12D0C4F3F3
:1058C000025001280ED002280CD003280AD0042848
:1058D00008D0052806D0062804D04FF4297146A028
:1058E000FBF7AEFA600712D004F0070001280ED0D3
:1058F00002280CD003280AD0042808D0052806D096
:10590000062804D040F2A5213BA0FBF799FA14F435
:10591000E06F12D0C4F3022001280ED002280CD070
:1059200003280AD0042808D0052806D0062804D069
:1059300040F2A62130A0FBF783FA14F4E04F12D016
:10594000C4F3023001280ED002280CD003280AD05C
:10595000042808D0052806D0062804D040F2A72144
:1059600025A0FBF76DFA3248064204D14FF42A71A4
:1059700021A0FBF765FADFF8BC80B8F8FE03C0078A
:1059800004D140F2A9211CA0FBF75AFA98F826008E
:1059900000F00700052811D128690127C00704D1AC
:1059A0004FF42C7114A0FBF74BFA23482860C01267
:1059B0006860A860E8601E20FBF764FAD8F8201041
:1059C0003440B1432143C8F820101E20FBF75AFA97
:1059D000002F0DD000982860019868600298A86098
:1059E0000398E86004B01E20BDE8F041FBF74ABA16
:1059F000BDE8FF81008004402E2E5C2E2E5C2E2EF2
:105A00005C2E2E5C647269766572735C68633332F7
:105A10005F6C6C5F6472697665725C7372635C68FC
:105A20006333325F6C6C5F636C6B2E63000000004D
:105A30007777770700400540EEFAFFFF2DE9FF4139
:105A40002B4C05004FF00007206800906068019023
:105A5000A0680290E06803900ED0012D0CD0022DBA
:105A60000AD0032D08D0042D06D0052D04D040F215
:105A7000372120A0FBF7E4F92C4EB6F8FE03C0074F
:105A800004D14FF40E711BA0FBF7DAF996F826004B
:105A900000F00700052801D0052D11D1206901274C
:105AA000C00704D14FF4107112A0FBF7C9F92048C8
:105AB0002060C0126060A060E0601E20FBF7E2F989
:105AC00086F826501E20FBF7DDF9002F0DD0009838
:105AD0002060019860600298A0600398E06004B0C4
